:0200000460009A
:100000004643464200000156000000000103030081
:1000100000000000000000000000000000000000E0
:1000200000000000000000000000000000000000D0
:1000300000000000000000000000000000000000C0
:1000400000000000010408000000000000000000A3
:100050000000800000000000000000000000000020
:100060000000000000000000000000000000000090
:100070000000000000000000000000000000000080
:10008000EB04180A063204260000000000000000FD
:10009000050404240000000000000000000000002F
:1000A0000000000000000000000000000000000050
:1000B0000604000000000000000000000000000036
:1000C0000000000000000000000000000000000030
:1000D00020041808000000000000000000000000DC
:1000E0000000000000000000000000000000000010
:1000F0000000000000000000000000000000000000
:10010000D8041808000000000000000000000000F3
:100110000204180804200000000000000000000095
:1001200000000000000000000000000000000000CF
:10013000600400000000000000000000000000005B
:1001400000000000000000000000000000000000AF
:10015000000000000000000000000000000000009F
:10016000000000000000000000000000000000008F
:10017000000000000000000000000000000000007F
:10018000000000000000000000000000000000006F
:10019000000000000000000000000000000000005F
:1001A000000000000000000000000000000000004F
:1001B000000000000000000000000000000000003F
:1001C000000100000010000001000000000000001D
:1001D000000001000000000000000000000000001E
:1001E000000000000000000000000000000000000F
:1001F00000000000000000000000000000000000FF
:10020000FFFFFFFFFFFFFFFFFFFFFFFFFFFFFFFFFE
:10021000FFFFFFFFFFFFFFFFFFFFFFFFFFFFFFFFEE
:10100000D100204327140060000000000000000011
:10101000201000600010006000500460000000001C
:1010200000000060005C040000000000FFFFFFFF04
:10103000FFFFFFFFFFFFFFFFFFFFFFFFFFFFFFFFC0
:10104000FFFFFFFFFFFFFFFFFFFFFFFFFFFFFFFFB0
:10105000FFFFFFFFFFFFFFFFFFFFFFFFFFFFFFFFA0
:10106000FFFFFFFFFFFFFFFFFFFFFFFFFFFFFFFF90
:10140000884207D0904205D251F8043B40F8043B93
:101410008242F9D87047884204D2002340F8043B46
:101420008142FBD870472DE9F843644A644B5A6403
:10143000644A1A644FF42A029A63634B9D46BFF3D1
:101440004F8FBFF36F8F00F02BF9604B082260497C
:101450006048C3F85421604AFFF7D2FF5F4A6049F1
:101460006048FFF7CDFF60496048FFF7D4FF4FF4B5
:1014700070025F4B5F491A6000235F4A42F82310F5
:1014800001335D4DB02BF9D15C4B80215C4A03F8F0
:10149000011B9342FBD14D4C4FF08037594A5A4BB8
:1014A000DFF89C91DFF89C811D60C4F80471C4F8DA
:1014B0000091C4F8F470C4F8F0801368534E43F4FC
:1014C000E02313604FF0FF32F36923F07F0343F012
:1014D0004003F361736A23F07F0343F040037362B8
:1014E000374B9A66DA661A675A6700F0DCF8484BA1
:1014F0006322AB63474BEB630025474B1A60032223
:101500005D6043F8042C454AC3F80C2D444A136827
:1015100043F080731360434A136843F00103136080
:10152000414B1A68414B1A6000F076FAC4F8047116
:101530003F48C4F80091C4F8F470C4F8F08000F09B
:1015400007FCF36E43F44053F3663A4B1D60C3F857
:101550000851C3F81851C3F82851C3F8385103F59E
:10156000A0239A6BD20708D4334A5A6542F6156213
:101570001A659A6B42F001029A639A6842F001126E
:101580009A6000F0FFF800F09FFB00F0D9FB00F03C
:1015900071FA00F086F8294A1368284C132BFBD9FE
:1015A00000F0F6FA2368B3F5967FFBD300F07AF8E3
:1015B00000F0C2FB00F0C8FB30BFFDE7FFFFAAAAA6
:1015C00000C00A40070020000000042000800D40F9
:1015D000F81E00600000000028920300089D002013
:1015E00024B103600000002060F30120089D00206A
:1015F00088ED00E08163010000DC012000E400E0F0
:10160000A0E400E024ED00E008ED00E000C00F40A1
:10161000E97701004978010014E000E00000202093
:10162000FCED00E0001000E0041000E034F40020C5
:101630000046C323004008400000C0563CF4002090
:101640001B1018200C0D11130004084B012200F48C
:101650007020C3F8A010C3F8A400C3F8B0205A69E2
:10166000D207FCD50122014B5A61704700402A4045
:10167000094B0A4AC3F8A000C3F8A4200122C3F80A
:10168000B0205969044AC907FBD5D2F800012123CB
:1016900080B25361704700BF00402A40040003003D
:1016A00070477047704710B5214A0020214C102325
:1016B000214920601360214B1960112111602049DC
:1016C0001960122111601F4919601F4911601F49DB
:1016D00019601F4911601F4919601F4941F0150128
:1016E00011601E49196001F181510D3111601C49D1
:1016F00019601C4911601C4919601C4911601C4982
:1017000019601C4911601C4A1A6001232360BFF351
:101710004F8FBFF36F8F194B1860BFF34F8FBFF31D
:101720006F8F174A136843F44033136010BD00BF36
:101730009CED00E094ED00E03F000010A0ED00E023
:1017400025000803090010001300200021000207F3
:10175000140000202500081360F301200900001088
:1017600027000B131700004033001013180000600F
:101770002F000B07190000702F000B1350EF00E033
:1017800014ED00E073B58F4B4FF400548E4A8F492F
:10179000C3F85C22C3F8601248F20C71C3F86422EB
:1017A000A2F53042C3F8682202F5E042C3F86C2289
:1017B000C3F87022C3F87422C3F878221822DA66BC
:1017C0001A675A679A67DA67C3F88020C3F88420DB
:1017D000C3F888200122C3F82C27C3F83027C3F8A8
:1017E0003427C3F83827C3F83C27C3F85027784A72
:1017F000936923F0604323F4407343F0204343F4A0
:1018000040739361D2F8843043F00C03C2F8843003
:10181000704B1A6842F002021A601A6811406E4A50
:101820000A436E491A604FF0FF325A6002F57702A0
:10183000886802F56052024042F000529A60DA680D
:1018400022F07802DA60664A186A024042F00042EA
:1018500042F040021A62624A186A0240614842F04D
:10186000004242F040025A625F4A9A62DA62D1F85C
:10187000B82022F03F0242F00102C3F8B820D1F8AC
:10188000BC2040F2056122F03F0242F00102C3F8A1
:10189000BC2000221A611C661867C3F880105C66C1
:1018A0005867C3F884101968504821F00201196084
:1018B0004F4999610221D9614E4941F8042B814277
:1018C000FBD11A6842F001021A60424A1468414B87
:1018D00014F00104FAD1464A0226214620469A61B4
:1018E00040F2F562DE61C3F8002240F26642C3F8BE
:1018F000102240F29942C3F820223F4AC3F8302216
:1019000042F20142C3F8342240F23542C3F8402289
:101910003A4AC3F850223A4AC3F85422394AC3F823
:10192000602242F20122C3F86422FFF78DFE2146B5
:101930000120FFF789FE21463046FFF785FE20464D
:10194000FFF796FE45F60D530546984231D12146E4
:101950000420FFF779FE20464FF400012A4CFFF7E0
:1019600073FE4FF400010120FFF76EFE4FF40001FB
:101970003046FFF769FE4FF40000FFF779FEA842FA
:1019800007D14FF400010420FFF75EFE10232370FF
:1019900001E0082323701D4900231D4A2078521AB4
:1019A0000093012302EB00521A4800F0BDF902B087
:1019B00070BD10222146174802B0BDE8704000F00B
:1019C000CBB900BF00801F40F9B00100F910010041
:1019D00000C00F4000402A401200FFFF00802A4054
:1019E00000FFF07C63000200FF000F8300432A40E9
:1019F000F05AF05A00422A409F041830EB06180AA9
:101A0000063201263806180A40F400200000007053
:101A100000000070C0DE0120F0B5154B40204FF4EF
:101A200080314FF480544FF400554FF4404643F258
:101A300042071A6912F0020F03D09E6159619F613B
:101A4000F7E712F4005F01D15D61F2E712F4805F05
:101A500001D15C61EDE7002AEBDA12F4803F01D09E
:101A60009961E6E7520601D45861E2E7F0BD00BF94
:101A700000800D40394AB3EE096A394813689FED7A
:101A8000395A23F0010310B513600323364C136158
:101A9000364BD3F8E030D9B2016007EE901AC3F3A9
:101AA0000B201B0DB8EEE77A314907EE900A206053
:101AB000F8EEE76A07EE903A37EE455A2D4BF8EE0E
:101AC000E77A37EE466A77EEE67A81ED006A25EE30
:101AD000275AC3ED007A1368C5EE065A75EEA65A6A
:101AE000FCEEE55A15EE901ADFED235A37EE657AD3
:101AF00043EA0153136027EE277A204B66EE277ADC
:101B0000D2F81011C7EE065A35EEA67ABCEEC77AA7
:101B100017EE100A87EE867A03EA00430B43C2F8F9
:101B20001031D2F8101177EE267AFCEEE77A17EE34
:101B3000903AC3F30B030B43C2F81031136843F020
:101B40000203136000220E4B1A700E4A0E4BC3F8AC
:101B5000402101220D4B1A6010BD00BF80810D4055
:101B600044F400200000AA4250F4002000441F402A
:101B700048F400204CF400200000B4420000FF0FA5
:101B800040E400E04B65010000DC012008E100E0DA
:101B900038B540F661722D4BC3F8202100F0C8F82B
:101BA0002B4A2C49D2F8803043F00303C2F880302E
:101BB00040F20442284BC3F86021284A10680140D3
:101BC00019B9D3F8A811890718D04FF00041516313
:101BD000D3F8402142F00202C3F840211E4AD2F855
:101BE00040319B07FBD44FF400321D4B19201A6083
:101BF0004FF00042194B9A6300F092F8174B002106
:101C00004FF08042174D144C9A63284619600A23FE
:101C10004FF44072C4F8A83100F09EF84FF48103ED
:101C2000114A2B604FF480032B6440F24313C4F835
:101C30005851C4F848310D4BC3F804220C4B4FF4F3
:101C400000321A600123C4F8403138BD00800D40D5
:101C500000C00F40001C1E0000002E4000900D40F0
:101C60008CE200E000F00120FD67010000DC0120B3
:101C70000CE100E008B50E4B1B6E9B0701D4FBBEC8
:101C800016E072B600220B4BC3F84021A3F50D13EA
:101C9000094A1A64A3F1FF53A3F52B239D46BFF312
:101CA0004F8F064B06480360064B1B689B6898479E
:101CB00000441F4000002E4003002000000012EBF3
:101CC000008020201C0020000F4BDA6E42F44032CE
:101CD000DA66DA6E42F44072DA66A3F5603340F2F7
:101CE00037625A64A0229A649A6C1206FCD4074B9D
:101CF00040F237625A64A0229A649A6C12F0800211
:101D0000FBD1034B1A70704700C00F4000800C409D
:101D100052F80020F8B500BFF8BC08BC9E467047DA
:101D20005FF800F0AD6201005FF800F00F7D010088
:101D30005FF800F0796D01005FF800F0791D030095
:101D40005FF800F0297C01005FF800F09378010053
:101D50005FF800F0FD5F01005FF800F0B95F01007F
:101D600045000000F1040000D927000005450000EF
:101D7000055F0000696E000095730000ED730000C0
:101D8000A57900001D7A0000591A010081F10100B7
:0C1D9000E549020091B4020039DC0200B9
:101D9C0018034400750061006C00200053006500BE
:101DAC007200690061006C00180354006500650046
:101DBC006E00730079006400750069006E006F009E
:101DCC000403090409028D00040100C032080B0051
:101DDC0002020201000904000001020201000524B4
:101DEC00001001052401010104240206052406004B
:101DFC00010705820310001009040100020A00000B
:101E0C00000705030240000007058302400000089C
:101E1C000B0202020201000904020001020201008D
:101E2C0005240010010524010101042402060524E7
:101E3C000602030705840310004009040300020A8C
:101E4C000000000705050240000007058502400060
:101E5C000009028D00040100C032080B00020202CE
:101E6C000100090400000102020100052400100118
:101E7C0005240101010424020605240600010705BE
:101E8C00820310000509040100020A000000070586
:101E9C00030200020007058302000200080B020285
:101EAC0002020100090402000102020100052400E3
:101EBC001001052401010104240206052406020375
:101ECC000705840310000509040300020A00000042
:101EDC0007050502000200070585020002000A063C
:0C1EEC000002EF020140010001010000B3
:101EF80000000000000000000000000000000000DA
:101F080000000000000000000000000000000000C9
:101F180010B5054C237833B9044B13B10448AFF31B
:101F280000800123237010BD089D002000000000E0
:101F380024920300084B10B51BB108490848AFF3B9
:101F480000800848036803B910BD074B002BFBD07D
:101F5800BDE81040184700BF000000000C9D00209D
:101F680024920300089D00200000000006F05ABAE1
:101F780004F08ABF0B6803604B68436013B15A686A
:101F880001325A60704738B5046805467CB1636809
:101F9800013B63605BB9236820469B689847A36848
:101FA800013BA3601BB923682046DB689847284695
:101FB80038BD2DE9F0470D4680461820164699464B
:101FC80017F0E7FB05F1100104461030FFF7D2FFC8
:101FD8002B78E968237000236660A360E36029B169
:101FE8004B4622464046FFF7E4FFE060AE682746CE
:101FF8004FF0000ADEB1182017F0CBFB054606F1BA
:1020080010011030FFF7B6FF3378C5F80CA0F1685F
:102018002B70C5F808A0BD606F6029B14B462A46F1
:102028004046FFF7C6FFE860B6682F46E2E720465D
:10203800BDE8F08773B5051D04460E461022002141
:10204800284615F031FF0023E5602561B16863611A
:10205800A1B102AB2A46204643F8044DFFF7A9FF79
:102068000346A0609A680AB11346FBE7E360C368B9
:102078000BB11846FBE7736920616361204602B023
:1020880070BDF8B5051D04460F46164600211022FE
:10209800284615F009FF0023E5603146636104F125
:1020A8001C0025612783FFF7C5FF2046F8BD38B51A
:1020B800002304460D460360436003618B6833B117
:1020C800022208309847EB686361AB6823610023FC
:1020D8002046A36138BD0000054B10B503600446D7
:1020E800C3681BB1011D032208469847204610BD4E
:1020F8005800002010B50446FFF7EEFF28212046BF
:1021080017F04FFB204610BD38B50C4B04460D4662
:1021180003600023C3608B6833B102220430984700
:10212800EB682361AB68E36004F05AFE0023C4E95E
:10213800060184F82030204638BD00BF5800002032
:1021480090F8203010B553B9C36800F118010BB9E5
:1021580019F02FFC03690430BDE81040184701202E
:1021680010BD704710B50446382117F01AFB2046F9
:1021780010BD000010B504460846034918F0B0F831
:1021880008B104F1100010BDF001002017F005BBE4
:1021980003689968186802F08DB9036910301B68E4
:1021A80018470000014B0360704700BF6002002021
:1021B8000B68036013B15A6801325A607047000017
:1021C800F0B58DB0144651F8043BC76803A80293D4
:1021D800FFF7EEFF0494002438200094019417F0D0
:1021E800D8FA0123064605460A94436083600C200A
:1021F8001D4B46F8103B029B02940593039B0394E6
:102208000693049B079317F0C4FA059B08A9089046
:102218000360069B05944360079B069483603046E1
:10222800124B0B93124B0A93FFF76EFF0A9B1BB1DD
:1022380008A903220846984706A8FFF7A4FE2B68BA
:10224800019528461B690B4998470CA941F8300DA0
:10225800384600F06CFD01A8FFF795FE03A8FFF7CC
:1022680092FE0DB0F0BD00BF9C020020A10200004C
:1022780089030000F001002070B50446032A21D824
:10228800DFE802F0020407170F4B00E00B68236039
:1022980018E00E680C2017F07CFA0546314651F814
:1022A800043B40F8043BFFF783FFB3682560AB604D
:1022B80008E0046834B1201DFFF765FE0C212046B4
:1022C80017F06FFA002070BD1803002038B50023FE
:1022D80004460D4683608B682BB102229847EB6851
:1022E800E360AB68A360204638BD000070B51D46AA
:1022F800334B16460446036051F8043B40F8043F4C
:102308000430FFF755FF314604F1100051F8043B43
:10231800E360FFF74DFF0023E361AB6843B102229E
:10232800294604F114009847EB682362AB68E3611F
:102338000023E362AB694BB1022205F1100104F1FD
:1023480024009847EB692363AB69E3620023E363E6
:10235800AB6A4BB1022205F1200104F13400984721
:10236800EB6A2364AB6AE3630023E364AB6B4BB1B2
:10237800022205F1300104F144009847EB6B236514
:10238800AB6BE36405F1400104F15400FFF79EFFD5
:1023980005F1500104F16400FFF798FF0023E3679B
:1023A800AB6E53B1022205F1600104F17400984745
:1023B800EB6EC4F88030AB6EE367204670BD00BF9B
:1023C80074020020024A026000224260704700BF87
:1023D800840300204068831E58425841704700001B
:1023E80040F252720F4B1A6040F695020E4B1A607B
:1023F80040F6D7120D4B1A6040F61A320C4B1A6091
:1024080040F65C420B4B1A6040F673020A4B1A60A6
:1024180040F61412094B1A604FF4D662084B1A6042
:10242800704700BF249D00202C9D0020309D002077
:10243800389D0020409D0020289D00203C9D0020C4
:10244800349D0020F8B51E46002304460D468360DF
:1024580017468B682BB102229847EB68E360AB689C
:10246800A3600023A361AB694BB1022205F11001FF
:1024780004F110009847EB69E361AB69A361278415
:10248800314604F1240024F07BFE0023012220467B
:1024980084F83C3084F83D2084F83E302364F8BD4D
:1024A80080F83E30009B80F83C1080F83D200364A3
:1024B800704720307047704710B50446402117F028
:1024C80070F9204610BD17F068B9000010B5044631
:1024D8000846034917F004FF08B104F10C0010BDC9
:1024E800F00100200368F0B5064653F82100A0B1BA
:1024F80004681788A388BB420FD0236863B19D88FE
:1025080020467268B5FBF2F402FB1452914201D1E5
:102518001C46EFE70020F0BD1846F0BDB0F1804F33
:1025280038B501D319F018FA8400204617F031F9AC
:1025380005462246002115F0B7FC284638BD8368B9
:1025480010B5044613B1032201469847204610BD32
:1025580038B5164B04460D4603600023C3608B68EC
:1025680033B1022204309847EB682361AB68E3601B
:102578000023E361AB694BB1022205F1100104F1BC
:1025880014009847EB692362AB69E36104F13C03EB
:102598004FF07E522046636201236263A3620023E8
:1025A800E3622363A363E36338BD00BF44040020F0
:1025B80070B5134B0446C56A03604DB1284650F800
:1025C8000C6BFFF7E0FC284617F0E7F83546F4E710
:1025D800A26A2946606A920015F066FC606A04F1F6
:1025E8003C032563E562984201D017F0D6F804F160
:1025F8001400FFF7A4FF201DFFF7A1FF204670BDC0
:102608004404002010B50446FFF7D2FF40212046BD
:1026180017F0C7F8204610BD2DE9FF411E460123DB
:1026280004460F46009300F11001C36890464268C3
:1026380002A819F055F99DF80830002B3CD0039FEB
:10264800012F04D12546002345F8183F03E03846FA
:10265800FFF764FF05460020A646A3684EF8080F5A
:10266800EBB19988D3F800C0B1FBF7F207FB12125F
:1026780055F8221061B9A1681960A36045F822E0F5
:10268800196811B910466346EAE745F82030F9E7BA
:102698000968196055F8222013600246F2E72346BC
:1026A80053F8180B984201D017F077F8B8FBF7F3F6
:1026B80084E8A00007FB13872368BD0053F8272090
:1026C8002AB11268326053F827301E6010E0A26801
:1026D8003260A66042B1326890886268B0FBF2F15D
:1026E80002FB110243F82260234653F8082B53518A
:1026F800E36830460133E36004B0BDE8F081006868
:1027080010B103681B691847704770B506460C4638
:102718006CB1E1683046FFF7F8FFA56804F11400D2
:10272800FFF731FC204617F038F82C46F0E770BD6B
:102738002DE9F04F0026804689B01F4648F8046B03
:10274800044646604020DDF848A017F022F8012230
:1027580081461F4B3146B7F800B003AF42600546CB
:102768008260102249F80C3B384615F09DFBDAF8D8
:102778000810079602AE05970697A9B108AB3A4626
:10278800304643F81C6DFFF714FC034604909A6822
:102798000AB11346FBE70593C3680BB11846FBE77C
:1027A800DAF8143006900793324659464846FFF740
:1027B80068FC04993046FFF7A8FF65600549404664
:1027C800FFF79DFF2060204609B0BDE8F08F00BFED
:1027D80054040020F0010020836A2DE9F04300F141
:1027E80024078DB0804616460CACB1FBF3F024F8F4
:1027F800221D224600FB13113846FFF773FE10B165
:102808000368002B54D1F56806F10409A94509D0DD
:102818002869BDF80E1001F0B5F8284617F027FE14
:102828000546F3E7234606AA4FF00001009604A8E0
:102838000025FFF77DFFBDF80E301020ADF81830E9
:10284800049B04950793059B0595089316F0A1FF33
:10285800079B0446BDF81860021D05608360079554
:10286800089B0895D8F82850C36086803846B6FB80
:10287800F5F305FB13652946FFF734FE48B10368F5
:102888003BB104F10C00FFF77EFB204616F085FFF4
:1028980005E02346324629463846FFF7BDFE08A81C
:1028A800FFF771FB05A8FFF76EFB0DB0BDE8F083DD
:1028B80008AB0CA9002206A806931C2341F8203D6A
:1028C80024F06AF8094A049BA2F11C0106900893B7
:1028D80024F0F1F8049B0021069A06A80793D15426
:1028E80004F076FA06A824F073F88CE78404002034
:1028F80070B506460C466CB1E1683046FFF7F8FF44
:10290800A56804F11400FFF73EFB204616F045FFCA
:102918002C46F0E770BD10B50446016B2830FFF770
:10292800F4FE616904F10C00FFF7E2FF10BD836952
:1029380011F0180F14BF03F0060303F0180313B5C2
:102948001943036804465B6981619847A369019349
:10295800E3680BB919F02DF8236901A9201D9847E0
:1029680002B010BD0368F0B5064653F82100A0B1C7
:102978000468176863689F420FD0236863B15D6875
:1029880020467268B5FBF2F402FB1452914201D161
:102998001C46EFE70020F0BD1846F0BDB0F1804FAF
:1029A80008B501D318F0D8FF8000BDE8084016F03C
:1029B800F0BE036810B504469B689847A368013BBE
:1029C800A3602BB923682046DB68BDE81040184790
:1029D80010BD38B50B6805464C68036040688442F2
:1029E8000BD014B163680133636028B14368013BBD
:1029F80043600BB9FFF7DDFF6C60284638BD51F81E
:102A0800043B10B5044640F8043BFFF7D1FB2046D1
:102A180010BD000070B50546032A20D8DFE802F093
:102A2800020407150F4B00E00B682B6017E00C68D9
:102A38000C2016F0AEFE0646214651F8043B40F83D
:102A4800043BFFF7DCFF2E6009E004683CB104F1A9
:102A58000800FFF798FA0C21204616F0A2FE002085
:102A680070BD00BF2805002070B50546032A20D890
:102A7800DFE802F0020407150F4B00E00B682B603B
:102A880017E00C680C2016F084FE0646214651F823
:102A9800043B40F8043BFFF7B2FF2E6009E00468EE
:102AA8003CB104F10800FFF76EFA0C21204616F03D
:102AB80078FE002070BD00BF3005002070B50546C7
:102AC800032A20D8DFE802F0020407150F4B00E0C4
:102AD8000B682B6017E00C680C2016F05AFE0646AF
:102AE800214651F8043B40F8043BFFF788FF2E606D
:102AF80009E004683CB104F10800FFF744FA0C212E
:102B0800204616F04EFE002070BD00BF880400204D
:102B180070B50446856855B1284650F8046B0430F2
:102B2800FFF731FA284616F038FE3546F3E76268B3
:102B380029462068920015F0B7F92346E56053F856
:102B4800180BA560984201D016F027FE204670BDEC
:102B580007B5019282680AB918F02BFFC36801AA69
:102B6800984703B05DF804FB13B50023044691E8C9
:102B780005004B600B602368206002A8009363681F
:102B8800626040F8043DFFF7FEF9204602B010BD30
:102B980010B543680A460C68B4FBF3F103FB114116
:102BA800FFF7E0FE08B1006800B9002010BD2DE96C
:102BB800F047044688090F46451C0330082838BFEB
:102BC80008206060FFF7EAFE666880462060761B92
:102BD800760800EB860909EB8505CA46554506D9EE
:102BE8004FF4007016F0D5FD4AF8040BF6E7C4F868
:102BF800149007F03F0758F8262002F50073E260AA
:102C080023612B1F636255F8043CA26003F5007131
:102C1800E36103EBC7032162A361BDE8F087026AA1
:102C28008369083A93422DE9F04704460F460AD0D3
:102C38003BB10A681A6000225A6049687A60596094
:102C48003A60083370E0426A05684368511BA3EB99
:102C5800A101012950D84169561AB610013606F16A
:102C68000108B3EB480F15D9C8EB030304325B081E
:102C780005EB8305A94204D9521A93082AD028469D
:102C880005E0521AB000930824D0801A284431F085
:102C9800EEF91FE0002B14BF99464FF001090233EB
:102CA80099444846C8EB0905FFF778FE626A6169EE
:102CB8006D080432824600EB8505521A930802D04B
:102CC800284631F0D4F9206816F067FDC4F800A052
:102CD800C4F80490656106F180462B68013EE36004
:102CE80003F50073236105EB8603636255F826300C
:102CF800E36103F500732362656A4FF4007016F010
:102D080048FD6860A3693BB13A681A6000225A60BE
:102D180079687A6059603A60636A1A1D62625B6812
:102D280003F50072E3612262A361BDE8F08708B58C
:102D38000830FFF774FF08BD73B50446006B0368DD
:102D48001B689847054600284CD0E169E36A666A23
:102D58005B1AA06922699B10591E236A9B1BDB1012
:102D680003EB8113811A03EBE103002B3AD01368BC
:102D78000093002301935168536001911360A0F1FF
:102D880008039A4205D0101DFFF7FDF823690833A0
:102D98000DE00438FFF7F7F8606916F0FEFCE36908
:102DA8001A1DE2615B6803F500726361A261206B22
:102DB800236103685B6898470098FFF7C1F970B909
:102DC800206B03681B6898470028F9D004F10800B5
:102DD8006946FFF724FF206B03685B68984701A8E2
:102DE800FFF7D1F8284602B070BD2DE9FF411F4614
:102DF800012304460D46009300F11001C368904674
:102E0800426802A818F06CFD9DF80830002B40D0ED
:102E1800039D012D04D12646002346F8183F07E0FC
:102E28002846FFF7BBFD0021AA00064615F03CF82E
:102E38000020A646A3684EF8080FEBB15968D3F8EE
:102E480000C0B1FBF5F205FB121256F8221061B969
:102E5800A1681960A36046F822E0196811B9104604
:102E68006346EAE746F82030F9E70968196056F83A
:102E7800222013600246F2E7234653F8180B9842C3
:102E880001D016F08AFC65602660B8FBF5F305FBF7
:102E980013852368AE0053F825202AB112683A60DA
:102EA80053F825301F6010E0A2683A60A76042B16D
:102EB8003A6850686268B0FBF2F102FB110243F80D
:102EC8002270234653F8082B9351E36838460133A0
:102ED800E36004B0BDE8F0812DE9F8434B6888460B
:102EE8001768044640469146B7FBF3F503FB157592
:102EF8002946FFF737FD20B1036813B1236000238B
:102F080012E00C2016F045FC0646002349463046E0
:102F180040F8043BFFF72EF833463A462946404628
:102F2800FFF763FF0123206023712046BDE8F88383
:102F38002DE9F0478CB006460D46014601A891469A
:102F48001F46FFF717F80BAB4FF07E520DF1140830
:102F580005930123099206930023079308930A9384
:102F68000B930198296803689B6998470199024661
:102F780082460B6803A89B6A984703A94846FFF74F
:102F8800F3FD04A8FEF7FFFFD9F8004001A934B10A
:102F980030460324FFF71DFDC5F800A062E0404657
:102FA800FFF7F6FD00285DD1019803681B6A984772
:102FB800B8B10CAB01AA414603A843F8308DFFF71E
:102FC8008BFF306801AA296803689C680123A04721
:102FD80048B9306803681B6A98470228044602D13A
:102FE80022E001243EE0BB685BB101A903A8FEF71B
:102FF800C1FF2A6803A93846FFF7AAFD04A8FEF70F
:10300800C2FF0198314603685B69984728600198B8
:1030180003681B6A9847022804460AD10198296860
:103028000368DB68984720B931463046FFF7D1FC82
:1030380018E00198296803689B699847BB6828606D
:103048005BB101A903A8FEF795FF2A6803A93846D2
:10305800FFF77EFD04A8FEF796FF01A93046FFF7AB
:10306800B8FC7EE74046FFF753FD02A8FEF78BFF4A
:1030780020460CB0BDE8F0872DE9F0438DB0054639
:103088000E46014601A891469846FEF773FF0BAB22
:103098004FF07E5205AF0593012309920693002352
:1030A800079308930A930B9301A93846FFF770FD1D
:1030B800D8B9019803681B6A9847C0B16B4601AA42
:1030C800394603A80097FFF707FF286801AA316867
:1030D80003689C680123A04758B9286803681B6ADD
:1030E80098470228044604D125E0002458E001242A
:1030F80056E0D8F808305BB101A903A8FEF73AFFFB
:10310800326803A94046FFF723FD04A8FEF73BFFFA
:103118000198294603685B699847306001980368FD
:103128001B6A9847022804460AD101983168036847
:10313800DB68984720B929462846FFF74AFC2FE064
:10314800019903A832680B68DB6A984703A94846C7
:10315800FFF70AFD04A8FEF716FFD9F800302BB1D7
:1031680001A92846FFF735FC032419E001983168C6
:1031780003689B699847D8F8083030605BB101A9AB
:1031880003A8FEF7F7FE326803A94046FFF7E0FC04
:1031980004A8FEF7F8FE01A92846FFF71AFC83E702
:1031A8003846FFF7B5FC02A8FEF7EDFE20460DB045
:1031B800BDE8F083F0B58DB0042A07460C460146F9
:1031C80002A815460CBF10260826FEF7D3FE39685C
:1031D80004A822460B68DB6A98470498E8B1294698
:1031E800FFF7A5FB0298214603689B6998470023CF
:1031F800019006AA069301A9079302A80A9308ABAF
:10320800FFF73AFF08A8FFF79AF9069810B1314678
:10321800FFF78DFB07A8FEF7B6FE05A8FEF7B3FE7D
:1032280003A8FEF7B0FE0DB0F0BD2DE9F0478AB057
:1032380098461B68044602A80D46019391469DF8DE
:1032480048609DF84C70FEF795FE0199002303290C
:103258000493059341D09FB9286802AA03689F6820
:103268000123B847002838D0029F29463B683846D2
:10327800D3F818A05B69984701463846D0470190B3
:10328800B9F1000F08D0002304AA01A902A80893E5
:1032980006ABFFF7F1FE07E006AB04AA01A902A8F6
:1032A800CDF82090FFF744FE074606A8FFF747F938
:1032B800022F12D9032F10D1049870B103689B68AC
:1032C800984700B16EB9049803685B68984700B1E5
:1032D8003EB1049803689B689847002323606360A5
:1032E8000DE002A92846FFF774FB019B059AC8F870
:1032F8000030049B6260236000230593049305A8B3
:10330800FEF741FE03A8FEF73EFE20460AB0BDE8E0
:10331800F08730B58BB00D4651F8043B144605A82C
:103328000493FEF745FF286800F072FBA0420CBF2B
:1033380004250225002C4FF0010204A906A80CBFA1
:10334800012302230192039303AB0092FFF76DFF61
:10335800069B5BB104A908A8FEF70CFE08A82A463C
:103368000399FFF727FF09A8FEF70DFE07A8FEF748
:103378000AFE05A8FEF707FE0BB030BD37B5046896
:103388006846214651F8045BFFF739FB606800F096
:103398003FFB694602462846FFF7BBFF01A8FEF738
:1033A800F2FD022003B030BD37B5046868462146F7
:1033B80051F8045BFFF723FB606800F029FB00F07D
:1033C80029FB694602462846FFF7A3FF01A8FEF736
:1033D800DAFD022003B030BD2DE9F043D0F80090AB
:1033E80091B001240027494610AE05A80DF1400808
:1033F80051F8043F0D1D46F8303D2946FEF7D8FE2A
:10340800224602AB314606A8019400940297FFF7C2
:103418000CFFD9F80430294609A848F8203DFEF7E2
:10342800C7FED9F8040000F0F9FA0CAB03900AAA19
:1034380003A940460A970B970E97FFF779FD0546B3
:103448000CA8FFF77CF8032D06D8AC4014F00B0F3E
:103458000CBF0224042400E0022431460CA8FEF725
:1034680089FD224602990CA8FFF7A4FE0DA8FEF7D5
:103478008AFD0BA8FEF787FD09A8FEF784FD07A8BB
:10348800FEF781FD05A8FEF77EFD022011B0BDE81C
:10349800F08338B504460D46AC4204D0201D0834EC
:1034A800FEF771FDF8E738BDF0B590E80050876881
:1034B8000C46C66805460FC985E80F0084E8005029
:1034C800A760E660F0BD2DE9F04F054600248DB0F9
:1034D8000F4605F1080604604460214602A80294DC
:1034E80003940494059406940794089409940A9400
:1034F8000B94FFF75CFBAC602146EC6030462C6116
:103508006C61AC61EC612C626C62AC62EC62FFF7DE
:103518004EFB029B8BB104A905F11000FFF7C4FF15
:1035280008A905F12000FFF7BFFFAB68029A0293D4
:10353800AA60EB68039A0393EA60DDF81C90049E86
:10354800069B09F10404DDF82080DDF824B0DDF8DD
:103558002CA0A24508D954F8040B019300F500717A
:10356800FFF797FF019BF4E7CA4506D01946304696
:10357800FFF78FFF4146584601E041463046FFF7C6
:1035880088FF029B63B10B9B079C1E1DA64204D9B2
:1035980054F8040B16F001F9F8E7029816F0FDF854
:1035A80028462F630DB0BDE8F08F00002DE9F04FDD
:1035B8008FB0002406468A46049005A8FFF71FFA34
:1035C800382002940125039416F0E3F8049B804602
:1035D800DFF8A8B107460793059B45600893069B4B
:1035E80085600C2048F810BB0993069405940C9448
:1035F80016F0CFF8079B0AA90A900360089BDFF82A
:1036080080914360099B089483604046554B06F1BE
:10361800080809940D93544B0C93FEF775FD0AA8FE
:10362800FEF78DFF09A8FEF7AEFC494603A80397ED
:10363800FFF765F802A902904046FFF7F0FA03A8E1
:10364800FEF7A1FC06A8FEF79EFC514605A80496C5
:10365800FFF7D5F938200294039416F09AF8049AE3
:103668000346456007460792059A85600C20089234
:10367800069A43F810BB09920093019306940594A7
:103688000C9416F086F8079A0AA9009B0260089A1B
:103698000A904260099A089482601846334A09944D
:1036A8000D92334A0C92FEF72FFD0AA8FEF747FF4A
:1036B80009A8FEF768FC494603A80397FFF71FF817
:1036C80002A902904046FFF7AAFA03A8FEF75BFC9E
:1036D80006A8FEF758FC514605A80496FFF78FF98F
:1036E80038200294039416F054F8049B064645606B
:1036F8000793059B8560054608930C20069B45F8B3
:1037080010BB0993069405940C9416F042F8079B95
:103718000AA90A900360089B08944360099B0994CE
:1037280083602846134B0D93134B0C93FEF7ECFC68
:103738000AA8FEF704FF09A8FEF725FC494603A8D6
:103748000396FEF7DCFF02A902904046FFF767FAEE
:1037580003A8FEF718FC06A8FEF715FC0FB0BDE895
:10376800F08F00BF8D140000250B0000B914000075
:10377800790B0000E9140000CD0B00009C0200202A
:10378800F00100200022026042607047006A704722
:1037980019B1CB1E58425841704701207047CB1EC3
:1037A8005842584170470B68C06A834214BF0320CF
:1037B8000020704700290CBF03200020704700201C
:1037C800704701298CBF00200120704701207047F5
:1037D8000B68C26A934205D0406B83420CBF01203C
:1037E8000320704700207047B1FA81F04009704704
:1037F80001207047C81E18BF012070470B68426D32
:10380800934208D0C26D934207D0406E83420CBFEA
:10381800022003207047002070470120704729B913
:10382800036D002B0CBF0120022070470020704759
:1038380002207047436C07B53BB1036D02A93C30C9
:1038480041F8043DC368984700E0184603B05DF8A6
:1038580004FB000000F1080373B5044603600D463D
:1038680081B1084631F084FC0F2805EB0006019071
:103878000BD9002201A9204623F08EF8019B206075
:10388800A36002E0074818F06DF832462946206820
:1038980023F00CF9019B2268002120466360D15473
:1038A80002B070BD680700207FB506496846FFF77B
:1038B800D1FF684603F08CFA684623F089F807B010
:1038C8005DF804FB920700207FB506496846FFF7BC
:1038D800C1FF684603F07CFA684623F079F807B020
:1038E8005DF804FBA7070020036810B504469B6831
:1038F8009847A368013BA3602BB923682046DB687F
:10390800BDE81040184710BD69B1012904D1006D08
:10391800B0FA80F040097047022906D1006D431EB5
:1039280058425841704701207047002070470000F6
:1039380038B5064B0446154640F8043B23F020FCF6
:10394800002325622046A38338BD00BFA8090020B4
:10395800F0B50C688DB00546666B0024129F06947E
:103968000A940124039408AC8DE88800029404ABFF
:10397800B0472046FEF7E3FD04A8FEF7E0FD284621
:103988000DB0F0BD81837047002202604260826002
:10399800C260704710B586B00446684623F0F0FB55
:1039A800694600222046FFF7C3FF684623F010F857
:1039B8000023064A04F134006362A3622260E362D2
:1039C8002363FFF7E1FF204606B010BDB4080020CE
:1039D80010B586B00446684623F0D2FB694600223B
:1039E8002046FFF7A5FF684622F0F2FF0023074AAA
:1039F80004F13C006362A3622260E36223636363B1
:103A0800A363FFF7C1FF204606B010BD40090020A0
:103A1800006D7047B0FA80F040097047036D022BC3
:103A280004D0002B0CBF01200220704703207047F0
:103A380010B504461AB92C31FEF79CFA02E00023AF
:103A480003604360204610BD10B504460AB92C3106
:103A580002E0012A03D13431FEF78CFA02E0002398
:103A680003604360204610BD10B504460AB95431BE
:103A780006E0012A01D15C3102E0022A03D1643157
:103A8800FEF778FA02E0002303604360204610BD89
:103A9800B2FA82F25209D2008B1811445B6B3831AA
:103AA80010B5044640F8043BFEF782FB204610BDE3
:103AB800003218BF0122D2008B1811445B6B3831D9
:103AC80010B5044640F8043BFEF772FB204610BDD3
:103AD800003218BF0122D2008B181144DB6B403131
:103AE80010B5044640F8043BFEF762FB204610BDC3
:103AF800B2FA82F25209D2008B181144DB6B4031C2
:103B080010B5044640F8043BFEF752FB204610BDB2
:103B180038B505460C68006884420BD014B1636858
:103B28000133636028B14368013B43600BB9FFF779
:103B3800DBFE2C60284638BD08B53AB1032A0DD102
:103B480051F8043B403040F8043C04E051F8043B91
:103B5800383040F8043CFFF7DBFF08BDBDE80840FB
:103B6800FFF7B2BE08B53AB1012A0DD151F8043BAE
:103B7800483040F8043C04E051F8043B403040F839
:103B8800043CFFF7C5FF08BDBDE80840FFF79CBE31
:103B9800036807B50093002342680360436002A8E6
:103BA80040F8042DFEF7EFF903B05DF804FBF8B513
:103BB8001F46036805460E461B681446984758B1C9
:103BC8000FB116B108E0032E06D105F12C012046ED
:103BD800FEF7FFFE0120F8BD2046FFF7D9FF0020C1
:103BE800F8BD2DE9F0419846036804460F461B6866
:103BF80016469847054628B93046FFF7C9FF2846B4
:103C0800BDE8F081B8F1000F01D00FB903E017B992
:103C180004F1340101E004F12C013046FEF7D9FE2D
:103C28000120BDE8F081F8B51C46036805460F463B
:103C38001B681646984708B32B6D022B1ED02CB173
:103C4800012F0FD006D3022F0FD01AE04FB1012F4A
:103C58000ED18BB905F154013046FEF7BAFE0120AA
:103C6800F8BD13B905F15C01F6E705F16401F3E766
:103C7800022F01D1012BEDD02046F8BD3046FFF7C9
:103C880087FF0020F8BD2DE9F04701F1040A8146BD
:103C98000E46174688685446012350B13A680446D0
:103CA80003699A4239BF82680123C268002310461B
:103CB800F3E73BB1F3689C420BD0204616F0EAFBD1
:103CC800054600E025462A693B689A4201D300234D
:103CD8001EE0A24508D03A6823699A422CBF4FF0EB
:103CE80000084FF0010801E04FF00108182015F016
:103CF80050FD054639461030FEF73CF9534622463A
:103D08002946404616F0C8FB7369013373610123E5
:103D1800C9F80050484689F80430BDE8F08707B56F
:103D280000F12C026846FFF7AEFF03B05DF804FB14
:103D380037B504460D4600F12C026846FFF7A3FF8D
:103D480004F1340229466846FFF79DFF03B030BDF1
:103D580037B504460D4600F154026846FFF793FF55
:103D680004F15C0229466846FFF78DFF04F16402FE
:103D780029466846FFF787FF03B030BDF8B504460B
:103D8800084615460E4631F0F3F904F108030746D4
:103D9800236000236360237269680144204622F08F
:103DA80050FF3A463146204623F008F92946204676
:103DB80023F0FAF82046F8BD37B5019305468B681D
:103DC8000BB917F0F6FDCC6801ABA047284603B045
:103DD80030BD38B5002304460D4683608B682BB18F
:103DE80002229847EB68E360AB68A360204638BDC1
:103DF800F0B587B004461E4617466846002523F0EE
:103E0800BFF9002269462046FFF792FD684622F076
:103E1800DFFD20460A4B39466562A56240F82C3B17
:103E2800FFF7D7FF2046656484F84C602565656513
:103E3800A565E56525666566A56607B0F0BD00BFA2
:103E4800F406002070B50C6888B00646A38B5BB3F7
:103E580003AD10220021284614F026F80023069509
:103E68002046079302A9236805951B699847059C76
:103E7800AC4213D004F110016846FEF77BF8009BB2
:103E880001A89E4203D1FEF77EF8002407E0FEF762
:103E98007AF8204616F0EBFA0446E9E70424049978
:103EA80002A8FEF732FC00E00424204608B070BDEA
:103EB80013B5044600F12C016846FEF75BF8694625
:103EC8002046FFF7BFFF044601A8FEF75CF820462E
:103ED80002B010BD1FB5044600F12C016846FEF77C
:103EE80049F869462046FFF7ADFF80B904F134016F
:103EF80002A8FEF73FF8204602A9FFF7A3FF002813
:103F080003A80CBF00240424FEF73DF800E00424B5
:103F180001A8FEF738F8204604B010BD10B586B0E9
:103F2800044600F154016846FEF724F86946204625
:103F3800FFF788FFF8B904F15C0102A8FEF71AF848
:103F480002A92046FFF77EFF80B904F1640104A8A6
:103F5800FEF710F8204604A9FFF774FF002805A80B
:103F68000CBF00240424FEF70EF800E0042403A884
:103F7800FEF709F800E0042401A8FEF704F820463B
:103F880006B010BD08B50B6803600BB15A680AB9D2
:103F980014F051FA01325A6008BD00002DE9F04FC3
:103FA80099B080460D469A46229F12ACDDF8909053
:103FB8009DF894B0002A40F08580CB6AE3B10431C3
:103FC80006A823F0DDF806AA51490CA8FFF7D6FE8B
:103FD80050490CA823F002F80146204622F0EBFDD8
:103FE800204600F01DFB204622F0F2FC0CA822F02F
:103FF800EFFC06A822F0ECFC394605F12C00FEF790
:10400800E8FC05F1280113A80026FFF7BBFF6B6A3F
:1040180013A812960493139B13960593FDF7B3FF09
:10402800BBF1000F17D0396806A8239A0B68D3F89C
:1040380034B004AB0E9600930CAB1496039602941E
:104048000196D84707A8FDF79EFF2046FEF777FAA6
:104058000CA8FEF774FADAF80830ABB12B6804A99B
:104068000CA85E6AFDF786FF00230CAA514620467D
:10407800FFF7A2FE002221462846B04713A8FDF705
:1040880082FF0DA8FDF77FFFD9F80830B3B13D686E
:1040980039460CA82B685E6AFDF76CFF239B0CAAB7
:1040A80049462046FFF788FE239A21462846B0470E
:1040B80013A8FDF768FF0DA8FDF765FF05A8FDF734
:1040C80062FF1CE0043106A823F05AF806AA10493A
:1040D8000CA8FFF753FE10490CA822F07FFF0146F9
:1040E800204622F068FD204600F09AFA204622F089
:1040F8006FFC0CA822F06CFC06A822F069FC39467B
:104108004046FDF737FF404619B0BDE8F08F00BFC5
:10411800EB070020FF070020150800202DE9F04FCD
:10412800022A9BB080460D4617469A46249E14AC38
:10413800DDF898909DF89CB01DD1043108A823F0B3
:104148001FF808AA0EA86649FFF718FE65490EA8C9
:1041580022F044FF0146204622F02DFD204600F0C3
:104168005FFA204622F034FC0EA822F031FC08A8A1
:1041780022F02EFCACE012BBCB6AE3B1043108A8F4
:1041880022F0FEFF08AA56490EA8FFF7F7FD564988
:104198000EA822F023FF0146204622F00CFD2046FF
:1041A80000F03EFA204622F013FC0EA822F010FC84
:1041B80008A822F00DFC314605F12C0023E0012A65
:1041C80023D14B6BE3B1043108A822F0D9FF08AA28
:1041D80043490EA8FFF7D2FD44490EA822F0FEFE7F
:1041E8000146204622F0E7FC204600F019FA204656
:1041F80022F0EEFB0EA822F0EBFB08A822F0E8FB69
:10420800314605F13400FEF7E4FB05F1280115A855
:10421800FFF7B8FE6B6A159A15A806930023079254
:10422800159314930593FDF7AEFE059BBBF1000FA4
:1042380017D0316808A80A68D2F834B010931693DA
:10424800039306AB259A00930EAB02940197D847C7
:1042580009A8FDF798FE2046FEF771F90EA8FEF7AB
:104268006EF9DAF80830B3B12B6806A90EA8D3F8AE
:1042780024B0FDF77FFE3B460EAA51462046FFF7C5
:104288009BFD3A4621462846D84715A8FDF77BFEF0
:104298000FA8FDF778FED9F80830B3B13568314674
:1042A8000EA82B685F6AFDF765FE259B0EAA494696
:1042B8002046FFF781FD259A21462846B84715A8CC
:1042C800FDF761FE0FA8FDF75EFE07A8FDF75BFE90
:1042D80031464046FDF74EFE40461BB0BDE8F08F24
:1042E8002308002035080020FF0700204808002088
:1042F8002DE9F04F99B007460C469A46229D16467E
:10430800DDF890809DF8949012BB4B6DE3B10431B9
:1043180006A822F035FF06AA61490CA8FFF72EFD72
:1043280060490CA822F05AFE014612A822F043FC6C
:1043380012A800F075F912A822F04AFB0CA822F086
:1043480047FB06A822F044FB294604F1540046E046
:10435800012A22D1CB6DE3B1043106A822F010FF67
:1043680006AA4F490CA8FFF709FD4F490CA822F0EF
:1043780035FE014612A822F01EFC12A800F050F9E2
:1043880012A822F025FB0CA822F022FB06A822F096
:104398001FFB294604F15C0021E04B6EE3B10431B8
:1043A80006A822F0EDFE06AA3D490CA8FFF7E6FC98
:1043B8003E490CA822F012FE014612A822F0FBFB8F
:1043C80012A800F02DF912A822F002FB0CA822F086
:1043D800FFFA06A822F0FCFA294604F16400FEF769
:1043E800F8FAB9F1000F2CD004F1280113A8FFF74F
:1043F800C9FD636A002413A804930DF14809139BAF
:10440800129405931394FDF7BEFD296806A8239A14
:104418000B68D3F834B004AB0E9400930CAB14942F
:104428000394CDF808900196D84707A8FDF7ABFD8F
:104438004846FEF784F80CA8FEF781F805A8FDF7B2
:10444800A2FDDAF808304BB1194912A8FFF702FAB1
:1044580012A802F0BDFC12A822F0BAFAD8F8083067
:10446800B3B12C6829460CA823685E6AFDF782FD63
:10447800239B0CAA414612A8FFF79EFC239A12A977
:104488002046B04713A8FDF77EFD0DA8FDF77BFD7C
:1044980029463846FDF76EFD384619B0BDE8F08F5D
:1044A8005E080020FF07002048080020730800204D
:1044B80089080020036D8B4270B5044686B00E460D
:1044C80020D000F1280103A8FFF75CFD636A039A76
:1044D80004930023059203930293636B01960BB92F
:1044E80017F067FAA36B01AA04A904F12C009847F6
:1044F800054605A8FDF747FD03A8FDF744FD266519
:10450800284600E0022006B070BD03791BB90123DC
:1045180003711846704700207047002303717047E5
:1045280001207047704770471AB1012A03D1016012
:1045380001E0024B03600020704700BFF40A00202E
:10454800704710B50446282115F02BF9204610BDF8
:1045580015F023B910B504460846034915F0C0FE06
:1045680008B104F10C0010BDF001002000F10803AF
:1045780073B5044603600D4681B1084630F0F8FD76
:104588000F2805EB000601900BD9002201A920464F
:1045980022F002FA019B2060A36002E0074817F0AE
:1045A800E1F932462946206822F080FA019B226808
:1045B800002120466360D15402B070BD6807002016
:1045C80038B5446805467CB16368013B63605BB9F4
:1045D800236820469B689847A368013BA3601BB9E2
:1045E80023682046DB689847284638BD8368013B26
:1045F800836013B90368DB681847704710B5044631
:104608001430FDF79CFF206908B1FFF7EFFF10BDDC
:10461800024A026000220271704700BF8C0A002023
:1046280002F0CEBB10B504460249FFF79FFF2046B3
:1046380010BD00BF8C12002010B5044622F0A0FD6A
:10464800204610BD30B5B3B00D460446102168466B
:1046580016F0BEFA2946684623F085F801A92046D7
:1046680016F0A4F8684616F005FB204633B030BDB6
:1046780010B50446FFF77AFF204610BD10B5044672
:1046880005290ED8DFE801F00309050D070B0849D5
:1046980008E0084906E0084904E0084902E008493A
:1046A80000E008492046FFF761FF204610BD00BF23
:1046B800940A0020970A0020A20A0020B30A0020CA
:1046C800C10A0020D80A002030B50023194D85B052
:1046D80028202B606B6015F05CF8012304466946BE
:1046E80043608360144B40F80C3B144B0393144B0A
:1046F8000293FDF7DCFC6846FDF721FF23686C6038
:1047080020461B690F4998470446286050B16D68D8
:10471800206015B1AB680133AB60606808B1FFF782
:1047280065FF6560084A0949024815F0FFFA05B0B7
:1047380030BD00BF449D00205C0A002037260000E1
:1047480039260000F001002034970020D12600000F
:10475800006870474068704700F1080373B5044665
:1047680003600D4681B1084630F002FD0F2805EBC5
:10477800000601900BD9002201A9204622F00CF96D
:10478800019B2060A36002E0074817F0EBF832466F
:104798002946206822F08AF9019B226800212046D8
:1047A8006360D15402B070BD680700204318405CB4
:1047B8005A7840EA02207047421810B59378547826
:1047C8001B04405C43EA04230343D07843EA0060B7
:1047D80010BD4318405C5B7843EA0020704710B571
:1047E80004466030FDF7ABFE04F15000FDF7A7FE6C
:1047F80004F14000FDF7A3FE04F13000FDF79FFE31
:1048080004F12000FDF79BFE04F11000FDF797FE70
:104818002046FDF794FE204610BD0000084B10B559
:10482800044640F8143BFFF7DAFF04F11000FDF7E7
:10483800AAFB04F10800FDF7A6FB204610BD00BF47
:104848007402002010B50446FFF7E8FF84212046D3
:1048580014F0A7FF204610BD2DE9F0410D4686B0A3
:10486800052107462846FFF7B4FF2C7AC0F30D024E
:104878006E7AE879AB7AE97AC0F3C00895F80CE06B
:10488800E50904F07F04012C07D910F0070001D1D5
:10489800E40002E0022808BFA400490304A841EA92
:1048A8004313C6F30011760043EA4E5306F01E0682
:1048B8000B4379681E430B685B689847FB6B8DF860
:1048C80009808DF80A508DF80B4003960BB917F044
:1048D80070F803AB0DF1090204A907F13400019344
:1048E8000DF10B0300930DF10A033C6CA04705A8DA
:1048F800FDF749FB06B0BDE8F08100002DE9F04165
:104908009CB0984600230546229C0E460293174603
:10491800A3683BB10222214668469847E36803939F
:10492800A368029300230693A36943B1022204F10A
:10493800100104A89847E3690793A3690693002325
:104948000A93A36A43B1022204F1200108A89847F8
:10495800E36A0B93A36A0A9300230E93A36B43B1F4
:10496800022204F130010CA89847E36B0F93A36B64
:104978000E9304F1400110A8FDF7A8FC04F15001C2
:1049880014A8FDF7A3FC00231A93A36E43B10222D7
:1049980004F1600118A89847E36E1B93A36E1A935D
:1049A800424639466B462846FDF7A0FC6846FFF7A5
:1049B80016FF2846084B40F8EC3B00F0B7FC3146A0
:1049C80005F5807051F8043BC5F8FC30FDF7F0FBA5
:1049D80028461CB0BDE8F0816C0B002013B501918E
:1049E800816809B916F0E5FFC46801A9A04702B0BB
:1049F80010BD07B582688DF807100AB916F0D9FFFF
:104A0800C3680DF10701984703B05DF804FB10B5C2
:104A18004979082917D005D801290DD00BD30229C7
:104A28000CD010BD132918D0822919D012291DD1F4
:104A3800D0F8CC3016E00021543001E00121643078
:104A4800FFF7D7FF10BDC36F0BB916F0B2FFD0F850
:104A580080307430BDE810401847D0F8C83001E005
:104A6800D0F8B43013B1BDE81040184710BD10B5E8
:104A78000446006808B114F090FE204610BD0000FE
:104A8800084B10B50446036000F58070FDF77BFA0B
:104A980004F1F000FFF7EBFF2046FFF7BFFE2046CA
:104AA80010BD00BF6C0B002010B50446FFF7E8FFEF
:104AB8004FF48271204614F074FE204610BDF0B504
:104AC800D0F8FC6085B04C68002233680F461D683A
:104AD8008B6801921C1B0292039204D0204614F0AA
:104AE80058FE034600E023461C447968019303946A
:104AF800BC680293641A04D0184622462FF0B7FA0D
:104B080003461C4401A930460294A847044601A85C
:104B1800FFF7ADFF204605B0F0BD38B500F1EC0554
:104B28000446CBB228460A0A432100F02EFC294647
:104B38002046BDE83840FFF7C2BFF7B5466802AC6B
:104B4800054601A833689F6851F8043B44F8083DBE
:104B5800FDF72EFB21463046B847044601A8FDF76D
:104B680012FA21462846FFF7D8FF03B0F0BD1FB55B
:104B78000446684600F0DAFB10226846042100F07B
:104B8800E9FB69462046FFF79AFF044601A8FFF7AC
:104B98006EFF204604B010BD1FB50446684600F0FD
:104BA800C5FB1A226846042100F0D4FB694620465A
:104BB800FFF785FF044601A8FFF759FF204604B018
:104BC80010BD1FB50446684600F0B0FB21226846B8
:104BD800114600F0CBFB69462046FFF770FF0446FC
:104BE80001A8FFF744FF204604B010BD1FB50446D6
:104BF800684600F09BFB0A226846F12100F0B6FBEC
:104C080069462046FFF75BFF044601A8FFF72FFF20
:104C1800204604B010BD1FB50446684600F086FB68
:104C280024226846212100F0A1FB69462046FFF7AF
:104C380046FF044601A8FFF71AFF204604B010BD3E
:104C480030B585B00D460446684600F06FFB6846EF
:104C58005022082100F07EFB2A466846042100F015
:104C6800E8FB69462046FFF72AFF044601A8FFF73C
:104C7800FEFE204605B030BD1FB50446684600F06C
:104C880055FB30226846042100F064FB6946204643
:104C9800FFF715FF044601A8FFF7E9FE204604B018
:104CA80010BDF0B587B0174606460C4602A81D464B
:104CB80000F03CFB002F9DF8300005F00F0514BFF5
:104CC8006FF07F02002200F07F00230AE4B2E421A3
:104CD800104343F0C00345F010020094C0B20190A5
:104CE80002A800F083FB02A93046FFF7E8FE04465D
:104CF80003A8FFF7BCFE204607B0F0BD13B51C465D
:104D0800009203232246FFF7CCFF02B010BDF0B596
:104D180014461F4687B00D4604F01F04064602A835
:104D280044EA871400F002FBF8222B0A02A8E4B236
:104D3800E421EDB243F0C0030194009500F056FB66
:104D480002A93046FFF7BBFE044603A8FFF78FFE13
:104D5800204607B0F0BD02F001030022FFF7D7BFDD
:104D6800F0B587B005460C461F4602A8164600F067
:104D7800DDFA9DF830305321002B14BF6FF05F002F
:104D88006FF07F00002F14BF08230023012E14BFEB
:104D9800024640F0010202A81A43E3B2D2B20092DE
:104DA800220A00F007FB02A92846FFF788FE0446FE
:104DB80003A8FFF75CFE204607B0F0BD2DE9FF41D0
:104DC800466804AC054603A833681746D3F808803C
:104DD80051F8043B44F8083DFDF7EAF9214630460E
:104DE800C047044603A8FDF7CEF83A1C4FF001036C
:104DF800214618BF012228460093FFF7B1FF04B0EF
:104E0800BDE8F08138B50B4604464968104652683B
:104E18001D680A4403F108018D4214BF99680F21E7
:104E28008A420DD900F1080105688D4214BF8168D6
:104E38000F218A4204D81A46002122F089F803E09B
:104E48000146184622F0B0F80146204621F0B3FE8C
:104E5800204638BD10B58CB004466846FFF7FAFF07
:104E680006A8FFF7DFFB06AA69462046FFF7CAFF38
:104E780006A821F0ADFD684621F0AAFD20460CB039
:104E880010BD30B58DB0154604466846FFF7DAFB0D
:104E9800297806A8FFF7D6FB06AA69462046FFF739
:104EA800B1FF06A821F094FD684621F091FD204647
:104EB8000DB030BD70B50D798EB006460C46632D29
:104EC8003DD023D8612D2DD02FD8432D67D1052172
:104ED8002046FFF77EFC7168024602A80B68E47959
:104EE8001B689847029B03A909A80893FDF760F976
:104EF800221C08A9304618BF0122FDF761F909A84C
:104F0800FDF741F803A8FDF73EF848E0812D25D0CC
:104F180002D8642D15D042E0EF2D24D0F32D3ED1D8
:104F2800204923E0FFF773FD39E0D0F8AC30002BBF
:104F380035D04A79222A32D1887998472FE01A4900
:104F480014E0D0F8C45055B34B79142B27D106215F
:104F58002046FFF73EFC217AA84720E0D0F8983099
:104F6800EBB198471BE0FFF777FC18E008A8FFF7BC
:104F7800F3FBE379A1790DF1070202A88DF8073058
:104F8800FFF77FFF02AB08AA294606F14400FFF7A6
:104F980025FD02A821F01CFD08A821F019FD0EB07E
:104FA80070BD00BF8C0B0020950B00202DE9F04749
:104FB8000C469CB0064602212046FFF7F7FB8028E6
:104FC800054600F087803CD840284ED031D81028BC
:104FD80050D01A2840F0EB8076490AA8FFF7BCFBAE
:104FE80004212046FFF7E8FB082107462046FFF783
:104FF800E3FB0446394616A8FFF72CFF214610A804
:10500800FFF728FF10AA16A904A8FFF7FBFE10A8AF
:1050180021F0DEFC16A821F0DBFC04AB0AAA294625
:1050280006F14400FFF7DAFC04A821F0D1FC0AA835
:1050380037E0602842D0702843D0512840F0B7802C
:1050480032E0A12800F0888007D8882850D0A0280E
:105058007FD0842840F0AB804DE0A32800F08B80FF
:105068007DD3A42800F09180A1E021463046FFF7C7
:1050780021FF9CE0504916A8FFF76EFB042120464B
:10508800FFF79AFB014610A8FFF7E4FE10AB16AA3B
:10509800294606F14400FFF7A1FC10A821F098FC6E
:1050A80016A821F095FC82E0D6F89450002D7ED009
:1050B80004212046FFF780FBA84778E0D6F8BC50CB
:1050C80001E0D6F8C050002D71D004212046FFF72A
:1050D80080FB57E0D6F8D450002D68D00021204638
:1050E800FFF764FB421F611D207992B2A8475EE07A
:1050F800D6F8D05035E0D6F8B050002D57D004215E
:105108002046FFF753FB062106462046FFF74EFBD5
:10511800082107462046FFF749FB0A21804620461A
:10512800FFF744FB0C2181462046FFF73FFB0E2189
:1051380082462046FFF73AFB637C42463946039392
:10514800237C0190304602934B46CDF800A0A84737
:105158002DE0D6F8D85004E0D6F8DC5001E0D6F8B7
:10516800E05025B300212046FFF720FB011F201D3A
:1051780089B2A8471BE0D6F8E450C5B104212046FF
:10518800FFF714FBA179A84711E0D6F8E85075B1EC
:1051980005212046FFF70AFB002106462046FFF7B7
:1051A80005FBC31FE21D31469BB22079A8471CB0FE
:1051B800BDE8F087AB0B00209D0B002030B50546FD
:1051C80085B0D0F8FC00FDF705F90023A0B1D5F8AB
:1051D800FC0001A902930393019303685B68984755
:1051E8000199029B04468B4202D02846FFF7DEFE57
:1051F80001A8FFF73CFC204605B030BD30B593B0A0
:10520800154604466846FFF733FA294606A821F0F2
:10521800B7FF06A90CA8FFF70FFA0CAA69462046A3
:10522800FFF7F0FD0CA821F0D3FB06A821F0D0FB76
:10523800684621F0CDFB204613B030BD30B58DB0A7
:105248000546FFF719FD044630B101466846FFF7E9
:1052580015FA6A462E494BE0642001F0C0FD284645
:10526800FFF7D9FC044630B101466846FFF706FA55
:105278006A4628493CE02846FFF779FC044630B1E5
:1052880001466846FFF7FAF96A46234930E028469E
:10529800FFF782FC044630B101466846FFF7EEF995
:1052A8006A461E4924E02846FFF7A0FC044630B1B0
:1052B80001466846FFF7E2F96A46194918E02846A8
:1052C800FFF77FFC044630B101466846FFF7D6F980
:1052D8006A4614490CE04FF001112846FFF7B0FC6C
:1052E800044688B101466846FFF7C8F96A460E4980
:1052F80006A8FFF783FF06A8FFF792F906A821F092
:1053080067FB684621F064FB20460DB030BD00BF46
:10531800B90B0020140C0020720C0020D60C0020C1
:105328003A0D0020A10D0020000E002070B50026C7
:10533800044646608660C660402014F02AFA054696
:105348006060402240353146E56012F0ADFDA56051
:10535800204670BD436801801970090A4368597076
:1053680043689A70120A4368DA70704770B50E463F
:10537800144607214022FFF7EDFF43681E7143687A
:105388005C71744043689C7170BDF8B50E46174651
:10539800082140221C46FFF7DDFF43681E71436861
:1053A8001E7143685F7143689C717C404368744018
:1053B800DC71F8BD2DE9F0410E461746092140225F
:1053C80098469DF81840FFF7C5FF436888EA04012E
:1053D8001E71436879405F717140436883F80680A5
:1053E8004368DC7143681972BDE8F0812DE9F84320
:1053F8000E4617460A21402298469DF820909DF8AF
:105408002440FFF7A7FF436889EA04011E71436837
:1054180088EA01015F7179404368714083F806802A
:10542800436883F8079043681C7243685972BDE863
:10543800F883436830B55A544B1C4468150ADBB2EC
:10544800E5548B1C4468150CDBB20331120EE5548D
:10545800C9B243685A5430BD0022026042607047A6
:10546800704770477047000010B504460846034966
:1054780014F036FF08B104F10C0010BDF001002053
:1054880010B504460846034914F02AFF08B104F190
:105498000C0010BDF001002010B504460846034971
:1054A80014F01EFF08B104F10C0010BDF00100203B
:1054B80010B50446502114F074F9204610BD10B5FB
:1054C8000446782114F06DF9204610BD10B5044645
:1054D800582114F066F9204610BD14F05EB914F096
:1054E8005CB914F05AB90000012A034606D002D369
:1054F800022A05D008E0054A026005E0016003E0E1
:1055080010B103C983E803000020704794160020F7
:10551800012A034606D002D3022A05D008E0054A2C
:10552800026005E0016003E010B103C983E80300ED
:10553800002070470C11002000F1080373B50446E1
:1055480003600D4681B108462FF012FE0F2805EBC7
:10555800000601900BD9002201A9204621F01CFA6F
:10556800019B2060A36002E0074816F0FBF9324671
:105578002946206821F09FFA019B226800212046D5
:105588006360D15402B070BD680700202DE9F04770
:10559800002491460D46061F01EB830AA046554597
:1055A80010D009EB0407084945F8047B56F8040FA6
:1055B8002FF099F807F8008030682FF0D9FD0130F6
:1055C8000444ECE7BDE8F0878812002010B5064CCB
:1055D80023783BB90423054A05490648FFF7D6FF57
:1055E80001232370002010BD389F002082990020DD
:1055F8003C9F00208C15002010B5064C23783BB941
:105608002323054A05490648FFF7C0FF01232370F5
:10561800002010BDA89E00201D990020AC9E0020EF
:105628009C15002010B5064C23783BB90523054A84
:1056380005490648FFF7AAFF01232370002010BD83
:10564800909E002004990020949E00207011002054
:1056580010B5064C23783BB90A23054A0549064884
:10566800FFF794FF01232370002010BD649E0020E3
:10567800CC980020689E00202411002010B5064C0C
:1056880023783BB91323054A05490648FFF77EFFEF
:1056980001232370002010BD149E00206398002071
:1056A800189E002028160020212A38B5044603D168
:1056B8000023037043600BE0064D55F822508D42DD
:1056C80003D101234260037002E00132FFF7ECFFCF
:1056D800204638BD6C14002010B5064C23783BB921
:1056E8002123054A05490648FFF750FF0123237087
:1056F800002010BD8C9D002081970020909D0020E7
:10570800F014002013B50446FFF7E6FF68460022B0
:105718002168FFF7C9FF9DF8000018B1024B019AF4
:1057280053F8220002B010BD909D002010B5064C21
:1057380023783BB90F23054A05490648FFF726FF9A
:1057480001232370002010BD4C9D002038970020B5
:10575800509D00203014002038B5002304460D4623
:1057680083608B682BB102229847EB68E360AB68D3
:10577800A3600023A361AB694BB1022205F11001BC
:1057880004F110009847EB69E361AB69A361204617
:1057980038BD10B504461030FCF7D1FE2046FCF7A2
:1057A800CEFE204610BD000010B590B004466846F5
:1057B800FFF7D2FF694608A8FFF7CEFF08A92046E1
:1057C800FCF7C6FE08A8FFF7E4FF0E4B20464FF48F
:1057D8008472002140F8403B12F066FB04F1480354
:1057E80004F5A871002243F8082C083343F80C2C60
:1057F8008B42F8D16846FFF7CCFF034B2046236065
:1058080010B010BDA81000207C15002010B504466B
:105818000249FFF791FE204610BD00BFDB120020B1
:1058280070B5094B0646044600F5A47546F8403B9A
:10583800AE4204D0083D281DFCF7A5FBF8E720463A
:10584800FCF7B6FE204670BDA810002010B504462F
:10585800FFF7E6FF4FF4A471204613F0A2FF20469D
:1058680010BD70B5D6B0044600F1C801022602A8E2
:105878000125FCF77FFB04F1C00104A8FCF77AFBC3
:1058880004F1D00106A8FCF775FB04F1D80108A8BB
:10589800FCF770FB04F1E0010AA8FCF76BFB04F1CC
:1058A800E8010CA8FCF766FB04F1F0010EA8FCF770
:1058B80061FB04F1F80110A8FCF75CFB04F58071AA
:1058C80012A8FCF757FB04F58C7114A8FCF752FBDF
:1058D80004F5907116A8FCF74DFB04F5947118A80F
:1058E800FCF748FB04F598711AA8FCF743FB04F58C
:1058F8009C711CA8FCF73EFB04F5A0711EA8FCF7E0
:1059080039FB04F5847120A8FCF734FB04F5887191
:1059180022A8FCF72FFB04F1400124A8FCF72AFB7E
:1059280004F1480126A8FCF725FB04F1500128A83A
:10593800FCF720FB04F158012AA8FCF71BFB04F133
:1059480060012CA8FCF716FB04F168012EA8FCF7EF
:1059580011FB04F1700130A8FCF70CFB04F178018D
:1059680032A8FCF707FB04F1800134A8FCF702FB1E
:1059780004F1880136A8FCF7FDFA04F1900138A873
:10598800FCF7F8FA04F198013AA8FCF7F3FA04F1E5
:10599800A0013CA8FCF7EEFA04F1A8013EA8FCF728
:1059A800E9FA04F1B00140A8FCF7E4FA04F1B801FF
:1059B800002442A8FCF7DEFA2AAB249944A80094F4
:1059C8000122FDF7C5FF06AB449946A800940122C1
:1059D800FDF7BEFF2EAB469948A800960122FDF7B9
:1059E800B7FF14AB224648994AA80094FDF7B0FFC8
:1059F80030AB4A994CA800940122FDF7A9FF16ABD9
:105A08004C994EA800940122FDF7A2FF38AB2A4614
:105A18004E9950A80095FDF79BFF18AB2246509968
:105A280052A80094FDF794FF24AB2A46529954A833
:105A38000094FDF78DFF55A8FCF7A5FA53A8FCF7CD
:105A4800A2FA51A8FCF79FFA4FA8FCF79CFA4DA8B8
:105A5800FCF799FA4BA8FCF796FA49A8FCF793FAD1
:105A680047A8FCF790FA45A8FCF78DFA28AB224620
:105A7800269944A80094FDF76BFF08AB2A46449981
:105A880046A80094FDF764FF1AAB2A46469948A831
:105A98000094FDF75DFF32AB2A4648994AA8009664
:105AA800FDF756FF34AB22464A994CA80094FDF7FF
:105AB8004FFF1CAB2A464C994EA80094FDF748FFAF
:105AC80036AB2A464E9950A80094FDF741FF1EAB0D
:105AD8002A46509952A80094FDF73AFF26AB2A4669
:105AE800529954A80096FDF733FF55A8FCF74BFAD6
:105AF80053A8FCF748FA51A8FCF745FA4FA8FCF759
:105B080042FA4DA8FCF73FFA4BA8FCF73CFA49A823
:105B1800FCF739FA47A8FCF736FA45A8FCF733FA38
:105B28002CAB2246029950A80095FDF711FF04AB53
:105B38002246509952A80094FDF70AFF2EAB2A4638
:105B4800529954A80095FDF703FF55A8FCF71BFAD6
:105B580053A8FCF718FA51A8FCF715FA26AB3246F9
:105B6800249954A80095FDF7F3FE55A8FCF70BFA05
:105B78002CAB32462A9954A80096FDF7E9FE55A8A1
:105B8800FCF701FA32AB3246309954A80095FDF77C
:105B9800DFFE55A8FCF7F7F93AAB3246349954A81A
:105BA8000096FDF7D5FE55A8FCF7EDF938AB32465F
:105BB800369954A80096FDF7CBFE55A8FCF7E3F9F3
:105BC80042AB3246409954A80096FDF7C1FE55A84D
:105BD800FCF7D9F920AB3246289954A80094FDF770
:105BE800B7FE55A8FCF7CFF922AB2A463A9954A834
:105BF8000094FDF7ADFE55A8FCF7C5F93CAB22466D
:105C08003A9950A80094FDF7A3FE3EAB2A46509956
:105C180052A80094FDF79CFE0AAB2A46529954A854
:105C28000094FDF795FE55A8FCF7ADF953A8FCF7CD
:105C3800AAF951A8FCF7A7F912AB32463C9950A82B
:105C48000094FDF785FE42AB2A46509952A800946D
:105C5800FDF77EFE10AB2A46529954A80094FDF732
:105C680077FE55A8FCF78FF953A8FCF78CF951A8D3
:105C7800FCF789F90EAB32463E9950A80094FDF71F
:105C880067FE40AB2A46509952A80095FDF760FE82
:105C98000CAB2246529954A80094FDF759FE55A81A
:105CA800FCF771F953A8FCF76EF951A8FCF76BF9EA
:105CB80043A8FCF768F941A8FCF765F93FA8FCF789
:105CC80062F93DA8FCF75FF93BA8FCF75CF939A835
:105CD800FCF759F937A8FCF756F935A8FCF753F93A
:105CE80033A8FCF750F931A8FCF74DF92FA8FCF7B9
:105CF8004AF92DA8FCF747F92BA8FCF744F929A87D
:105D0800FCF741F927A8FCF73EF925A8FCF73BF971
:105D180023A8FCF738F921A8FCF735F91FA8FCF7E8
:105D280032F91DA8FCF72FF91BA8FCF72CF919A8C4
:105D3800FCF729F917A8FCF726F915A8FCF723F9A9
:105D480013A8FCF720F911A8FCF71DF90FA8FCF718
:105D58001AF90DA8FCF717F90BA8FCF714F909A80C
:105D6800FCF711F907A8FCF70EF905A8FCF70BF9E1
:105D780003A8FCF708F956B070BD000038B50C460A
:105D88000546FCF70FFA064B214628462B6051F8CA
:105D9800043B40F8043F0430FCF70AFA284638BDB3
:105DA8005411002038B5044608680D4668B1002330
:105DB800084A094913F058FF38B12346291D43F80A
:105DC800040B1846FCF7F4F902E000232360636033
:105DD800204638BDEC080020E0060020023A92B2C6
:105DE8000C2A96BF064B00229A5C4B6803F14001CF
:105DF80010B5044601EBC201FFF7D4FF204610BDE1
:105E08006011002007B5019282680AB915F0D1FD2A
:105E1800C36801AA984703B05DF804FB0B680360E8
:105E2800002310B543604C684B6044600B6010BDA4
:105E38000B680360002310B543604C684B604460F6
:105E48000B6010BD30B587B0154604466846FFF7AD
:105E5800EFFF694602A82D68FFF7A4FF246802A98E
:105E680004A80434FCF7CBFD2A4604A92046FFF712
:105E7800C9FF044605A8FCF786F803A8FCF783F8D1
:105E880001A8FCF780F8204607B030BDFFF7DABF5D
:105E98000B680360002310B543604C684B60446096
:105EA8000B6010BD0B680360002310B543604C689D
:105EB8004B6044600B6010BD0B1A5B1130B5002BB2
:105EC80015DD14680568AC422BD08568A54201D160
:105ED800083030BD0569AC4201D1103030BD85694C
:105EE800AC4201D1183030BD2030013BE7E70B1A36
:105EF800DB10022B09D0032B02D0012B10D109E0B3
:105F0800046813689C420CD00830046813689C42EB
:105F180007D00830046813689C4218BF084630BD93
:105F2800084630BD40684FF000030A4600F5A471EA
:105F380010B500F140042046FFF7BEFF001BC0105B
:105F480001380C289ABF024B185C012010BD00BF15
:105F58001411002038B50C68054614B1A368013344
:105F6800A360286808B1FEF741FB2C60284638BDBD
:105F78002DE9F0410023054686B0044645F8043B68
:105F880088464360502013F004FC01230746064668
:105F980043604146836068460D4B47F80C3BFFF76A
:105FA800CBFA69463846FDF7F5FC684620F010FD47
:105FB800666008492846FCF7A2FB206020B14062D1
:105FC80029462830FFF7C6FF204606B0BDE8F08115
:105FD800C0100020F001002008B5034629B108468A
:105FE800194640F8042BFFF7B5FF08BD2DE9F0412D
:105FF8000023054686B0044645F8043B88464360BE
:10600800582013F0C6FB0123074606464360414665
:10601800836068460D4B47F80C3BFFF78DFA6946DD
:106028003846FDF7D5FC684620F0D2FC6660084982
:106038002846FCF764FB206020B1406229462830DE
:10604800FFF788FF204606B0BDE8F081F810002071
:10605800F0010020F0B50023054687B0044645F856
:10606800043B4360502013F094FB01230746064687
:106078004360836068460E4B0E4947F80C3BFFF7B8
:106088005BFA69463846FDF785FC684620F0A0FCB7
:10609800666009492846FCF732FB206020B140625F
:1060A80029462830FFF756FF204607B0F0BD00BF4D
:1060B800C01000208C120020F00100202DE9F043D0
:1060C800A1B0044688460192202A00F2AD80DFE89C
:1060D80002F03D603D6060603D603D60603D603D58
:1060E8006060201B2224151726192811132A2C2E2C
:1060F80030323400694908E0694906E0694904E03A
:10610800694902E0694900E069491AA8FFF730FFC8
:10611800B8E0684912E0684910E068490EE068494B
:106128000CE068490AE0684908E0684906E06849FF
:1061380004E0684902E0684900E068491AA8FFF7E6
:1061480055FF1AA92046FFF7ADFE9FE001A80027DA
:10615800FFF7D8FA014614A8FFF7EEF97820DDF822
:1061680004900897099713F014FB01230546064687
:1061780014A9436083601AA8594B45F80C3B20F0DA
:106188001AFD584BCDF838801193CDF83C90564BFA
:1061980021E001A80127FFF7B5FA014614A8FFF787
:1061A800CBF900237820DDF804900893099313F0C5
:1061B800F0FA4B4B054647600646876014A945F838
:1061C8000C3B1AA820F0F7FC484BCDF83880119307
:1061D800474BCDF83C900EAA1AA9109328463B4687
:1061E80020ADFDF705FE0EA8FCF7A9F91AA820F0C6
:1061F800EFFB45F85C6D3F492846FCF780FA0246FC
:10620800089010B100F1240100E001462846FFF78C
:10621800E3FE08A92046FFF73BFE2846FBF7B3FE3E
:1062280014A820F0D5FB34E0334902A8FFF784F91D
:1062380001A8FFF767FA014608A8FFF77DF908AA41
:1062480002A90EA8FEF7DEFD2C4914A8FFF774F981
:1062580014AA0EA91AA8FEF7D5FD1AA800F0B8FDD1
:106268001AA820F0B5FB14A820F0B2FB0EA820F065
:10627800AFFB08A820F0ACFB02A820F0A9FB1AA8E5
:10628800FFF7E8FE1AA92046FFF7C8FD1BA8FBF791
:106298007AFE204621B0BDE8F08300BF7A130020C3
:1062A8007D13002080130020851300208B1300200D
:1062B80091130020971300209C130020A1130020A5
:1062C800A6130020AC130020B2130020B513002041
:1062D800B8130020BB130020BE130020C1130020F8
:1062E800DC1000209D3F0000F9350000553F0000FC
:1062F80021360000F0010020FF12002006130020C4
:1063080038B5044640B100F11005A54204D0083D57
:10631800281DFBF738FEF8E7204638BD10B50446BF
:10632800006808B1FEF762F9204610BD0D4B10B5A4
:106338000446C3604830FFF7E3FF04F14400FBF76D
:1063480022FE04F13C00FBF71EFE04F13400FFF7C7
:10635800E5FF054B04F11000E360BDE8104020F0B4
:1063680037BB00BF40090020A8090020114B10B519
:106378000446C3607430FBF706FE04F16C00FBF7BB
:1063880002FE04F16400FBF7FEFD04F14800FCF78F
:10639800D6F804F13800FCF7D2F804F13400FFF71E
:1063A800BDFF054B04F11000E360BDE8104020F08C
:1063B8000FBB00BFF4060020A80900200B4B10B546
:1063C8000446C3604030FFF79BFF04F13C00FBF735
:1063D800DAFD04F13400FFF7A1FF054B04F11000CA
:1063E800E360BDE8104020F0F3BA00BFB408002015
:1063F800A809002008B5FFF7E9F8FFF7FDF8FFF74F
:1064080011F9FFF725F9FFF739F9FFF765F9FFF7F4
:106418008DF908BD0020704770474FF0FF30704776
:106428007047826C30B562B1137803F0080303F04B
:10643800FF00FBB1D3695069181A1BD56FF00040F3
:1064480018E0C06CB0B190F831301B0707D5D0E91F
:106458000445D0E90023A01A65EB030101E0002000
:10646800002100236FF000428B4208BF824201D214
:10647800104630BD30BD00001AB1012A03D10160B9
:1064880001E0024B03600020704700BFBC270020DA
:106498001AB1012A03D1016001E0024B0360002018
:1064A800704700BF8C2200201AB1012A03D1016075
:1064B80001E0024B03600020704700BF94210020D8
:1064C800012A05D002D3022A04D006E0044B03E0D7
:1064D800016002E008B10B6803600020704700BF4C
:1064E80034200020012A05D002D3022A04D006E075
:1064F800044B03E0016002E008B10B680360002070
:10650800704700BF78230020012A05D002D3022A51
:1065180004D006E0044B03E0016002E008B10B6818
:1065280003600020704700BFE4220020012A05D044
:1065380002D3022A04D006E0044B03E0016002E023
:1065480008B10B6803600020704700BF04240020D6
:10655800012A05D002D3022A04D006E0044B03E046
:10656800016002E008B10B6803600020704700BFBB
:1065780094220020012A05D002D3022A04D006E082
:10658800044B03E0016002E008B10B6803600020DF
:10659800704700BF181B002070477047704770474E
:1065A8007047704770477047704713B50346406897
:1065B800026814689A6ADB6A9B1A9B108DE80C00C3
:1065C80002AB13E90600A04702B010BD044B10B59A
:1065D800044640F8083B10F0FDF8204610BD00BF07
:1065E800A01E002013F0D9B813F0D7B813F0D5B80F
:1065F80013F0D3B813F0D1B813F0CFB813F0CDB867
:1066080013F0CBB80346806C08B10EF04BBED86CC3
:1066180008B10DF088BB4FF0FF30704708B502484D
:106628000CF0C0FC002008BDD099002010B504462D
:106638000846034913F054FE08B104F10C0010BDDC
:10664800F001002010B504460846034913F048FE3F
:1066580008B104F10C0010BDF001002010B504468B
:106668000846034913F03CFE08B104F10C0010BDC4
:10667800F001002010B504460846034913F030FE27
:1066880008B104F10C0010BDF001002010B504465B
:106698000846034913F024FE08B104F10C0010BDAC
:1066A800F001002010B504460846034913F018FE0F
:1066B80008B104F10C0010BDF001002010B504462B
:1066C8000846034913F00CFE08B104F1100010BD90
:1066D800F001002010B504460846034913F000FEF7
:1066E80008B104F10C0010BDF0010020064B10B5F4
:1066F8000446C360643020F06BF904F11400BDE86F
:10670800104002F067BE00BFE421002010B5044627
:10671800802113F046F8204610BD10B504464FF40A
:10672800AA7113F03EF8204610BD10B50446182192
:1067380013F037F8204610BD10B50446402113F079
:1067480030F8204610BD10B504464FF4887113F098
:1067580028F8204610BD10B50446402113F021F852
:10676800204610BD10B50446482113F01AF82046FB
:1067780010BD10B50446502113F013F8204610BD83
:10678800C068FCF7D9BA00000978044B044A0548E8
:10679800002914BF114619462DF030BDEB25002005
:1067A800E8250020EF250020012A034606D002D361
:1067B800022A05D008E0054A026005E0016003E00E
:1067C80010B103C983E8030000207047D4210020DA
:1067D80038B50446032A16D8DFE802F00204071188
:1067E8000A4B00E00B6823600DE00D680C2012F0E6
:1067F800D0FF034695E8070083E80700F3E70C217C
:10680800006812F0CEFF002038BD00BFB42700207A
:10681800094B1B7803F0FF006BB1084B187810F098
:10682800010008D0064B074A1B681068181A0E2882
:1068380094BF00200120704788F40020C4F5002090
:106848003CF4002020F3012010B588B02B4C2C49D3
:1068580002A802F071FC6368039A9A4248D029485A
:106868002DF07CFD264904A802F066FC9DF817006F
:106878009DF816309DF815209DF8141000902248B8
:106888002DF0BCFC1E4906A802F066FC07991F48BB
:106898000B0EC1F3072205910093C1F30743C9B258
:1068A8002DF0ACFC164906A802F066FC07991848BA
:1068B8000B0EC1F3072205910093C1F30743C9B238
:1068C8002DF09CFC0E4906A802F066FC079B626846
:1068D800059393420FD09DF817009DF8163000904D
:1068E8009DF815209DF814100A482DF087FC02E049
:1068F80009482DF033FD08B010BD00BFD0A400201A
:1069080060E70020022600201D26002039260020EE
:1069180055260020712600208D2600200368014698
:10692800D869036810B59C698A79CB798988A047AA
:10693800022010BD03681A689988D069026810B5EA
:10694800D4699A68A047022010BD000000F108032E
:1069580073B5044603600D4681B108462EF008FC65
:106968000F2805EB000601900BD9002201A920464B
:1069780020F012F8019B2060A36002E0074814F0A1
:10698800F1FF32462946206820F090F8019B2268E2
:10699800002120466360D15402B070BD6807002012
:1069A80070B50546032A17D8DFE802F0020407127B
:1069B8000A4B00E00B682B600EE00E68102012F006
:1069C800E8FE044696E80F002C6084E80F0003E018
:1069D8001021006812F0E5FE002070BD6C1E00203A
:1069E80008B112F0DABE7047C3680C301B6818474C
:1069F800C3680C301B68184738B5044608460D466E
:106A08002EF0B6FB23680246294620465B68984765
:106A18000546204612F0DCFE284438BD13B502AB0B
:106A280003E90600C37C0099002B2ED072B6C37C04
:106A3800DA0705D5324A4369146823408362136034
:106A4800C37C9B0705D52F4A836914682340C3621A
:106A58001360C37C5C0705D52B4AC36914682340BF
:106A680003631360C37C1A0705D5284A036A1468B0
:106A7800234043631360C37CDB0605D5244A436A7D
:106A8800146823408363136062B683688B422AD0FC
:106A9800204B81609A69204BC2F30114C2F38262D1
:106AA80053F824300132B3FBF2F211B1B2FBF1F327
:106AB80000E013467BB1B2FBF3F2914238BF0133D9
:106AC800B3F5817F02D2022B04D901E040F2011311
:106AD800023B00E000235A0843EA0223120402F4AE
:106AE8007F021343C360036800221A6103225A62BB
:106AF800C2681A64019A1A6601221A6102B010BDAE
:106B080080E100E084E100E088E100E08CE100E061
:106B180090E100E000C00F40E81F002037B502AB4D
:106B2800054603E90600017A002942D190F82800B9
:106B380011F04AFB204C05F12C03204693E806008F
:106B4800FFF76CFF019B0BB913F0C2FB009A9B0087
:106B5800204611460CF032FBE37C03B3DB0702D579
:106B6800A26A164B1A60E37C980703D5124BDA6ABF
:106B7800134B1A60E37C590703D50F4B1A6B114B63
:106B88001A60E37C1A0703D50B4B5A6B0E4B1A603D
:106B9800E37CDB0603D5084B9A6B0C4B1A6001218A
:106BA80095F8280011F010FB002195F8280011F045
:106BB8000BFB002003B030BDD099002000E100E0BD
:106BC80004E100E008E100E00CE100E010E100E091
:106BD800A0F10400FFF7A2BF07B50346806B28B1F8
:106BE80001220DF107010EF0A2FA09E0D86B10B9E5
:106BF8004FF0FF3008E001220DF107010CF0D0FF43
:106C08000128F5D19DF8070003B05DF804FB08B52D
:106C18001030FFF7E1FF08BDD0B4846B44B1012BFD
:106C280008BF002A09D220461146D0BC0EF06ABB24
:106C3800C06B10B1D0BC0DF08BB80020D0BC704731
