:0200000460009A
:100000004643464200000156000000000103030081
:1000100000000000000000000000000000000000E0
:1000200000000000000000000000000000000000D0
:1000300000000000000000000000000000000000C0
:1000400000000000010408000000000000000000A3
:100050000000800000000000000000000000000020
:100060000000000000000000000000000000000090
:100070000000000000000000000000000000000080
:10008000EB04180A063204260000000000000000FD
:10009000050404240000000000000000000000002F
:1000A0000000000000000000000000000000000050
:1000B0000604000000000000000000000000000036
:1000C0000000000000000000000000000000000030
:1000D00020041808000000000000000000000000DC
:1000E0000000000000000000000000000000000010
:1000F0000000000000000000000000000000000000
:10010000D8041808000000000000000000000000F3
:100110000204180804200000000000000000000095
:1001200000000000000000000000000000000000CF
:10013000600400000000000000000000000000005B
:1001400000000000000000000000000000000000AF
:10015000000000000000000000000000000000009F
:10016000000000000000000000000000000000008F
:10017000000000000000000000000000000000007F
:10018000000000000000000000000000000000006F
:10019000000000000000000000000000000000005F
:1001A000000000000000000000000000000000004F
:1001B000000000000000000000000000000000003F
:1001C000000100000010000001000000000000001D
:1001D000000001000000000000000000000000001E
:1001E000000000000000000000000000000000000F
:1001F00000000000000000000000000000000000FF
:10020000FFFFFFFFFFFFFFFFFFFFFFFFFFFFFFFFFE
:10021000FFFFFFFFFFFFFFFFFFFFFFFFFFFFFFFFEE
:10100000D10020432914006000000000000000000F
:10101000201000600010006000DC0660000000008E
:101020000000006000E8060000000000FFFFFFFF76
:10103000FFFFFFFFFFFFFFFFFFFFFFFFFFFFFFFFC0
:10104000FFFFFFFFFFFFFFFFFFFFFFFFFFFFFFFFB0
:10105000FFFFFFFFFFFFFFFFFFFFFFFFFFFFFFFFA0
:10106000FFFFFFFFFFFFFFFFFFFFFFFFFFFFFFFF90
:10140000884207D0904205D251F8043B40F8043B93
:101410008242F9D8704700BF884204D2002340F8C6
:10142000043B8142FBD87047664B4FF42A01664A61
:1014300066482DE9F0475A641864654A99639546F1
:10144000BFF34F8FBFF36F8F00F030F9614B08206F
:10145000614A6249C3F854016148FFF7D1FF614A0C
:1014600061496248FFF7CCFF61496248FFF7D4FF4A
:10147000614C62494FF470000023614A086044F8EF
:1014800023200133B02BFAD15E4B80215E4A03F852
:10149000011B9342FBD14F4D4FF080385B494FF019
:1014A000FF325B4B0026DFF8A4A1DFF8A4911C609B
:1014B000C5F80481C5F800A1C5F8F480C5F8F0901E
:1014C0000B68544F43F4E0230B60FB693D4923F064
:1014D0007F0343F04003FB617B6A23F07F0343F00B
:1014E00040037B628A66CA660A674A6700F0E4F8CE
:1014F000494A4A4B6320A2630321E363484A494BAC
:10150000106000F160401E6042F8041C00F6A170FB
:101510004549464AC3F8082D0B68454A43F0807395
:101520000B601368434943F00103136003680B60C9
:1015300000F012FBC5F804813F48C5F800A1C5F8CA
:10154000F480C5F8F09000F077FCF96E3B4A41F466
:1015500040513B4BF9661660C2F80861C2F8186149
:10156000C2F82861C2F838619A6BD20708D442F6F3
:101570001562344959651A659A6B42F001029A6303
:101580002F4A314C936843F00113936000F006F941
:1015900000F060F800F064FC00F010FB00F088F848
:1015A0002368132BFCD900F097FB2368B3F5967FD3
:1015B000FBD300F07FF800F047FC00F039FC30BFAF
:1015C000FDE700BF00C00A40FFFFFFAA07002000A0
:1015D0000000022000800D40E0D0050020200060C7
:1015E00000000000CCC9002041110660000000206E
:1015F00060230220CCC90020000C022088ED00E00E
:10160000BDD2010000E400E0A0E400E024ED00E031
:1016100008ED00E000C00F408DE90100F9E901008C
:1016200014E000E018E000E0FCED00E00000202005
:10163000001000E0542301200046C323004008406E
:1016400000400D400000C0565C2301201B101820F4
:101650000C0D1113114B1249D86E0A4640F440305C
:1016600030B4D86640F23765D86EA02440F440709C
:10167000D8664D648C64936C1B06FCD4094B40F215
:101680003760A0211A4658649964936C13F0800364
:10169000FBD1054A137030BC704700BF00C00F403B
:1016A00000400C4000800C4050230120704700BFD8
:1016B000704700BF704700BFF0B5244A0020244B9C
:1016C0004FF0100C234C1126DFF8C8E012272060E1
:1016D0000125C2F800C0C3F800E01660DFF8B8E0EA
:1016E0001D4EC3F800E01D4917601E6041F0150152
:1016F0001B4F1C4E17601E601B4F1C4E17601E6058
:101700001B4F11601B4E1C491F6016601B4F196058
:101710001B4E1C4917601E601B4F11601B4E1C495D
:101720001F60166019602560BFF34F8FBFF36F8F86
:10173000C3F8B001BFF34F8FBFF36F8F52F8883CEF
:1017400043F4403342F8883CF0BD00BF9CED00E01C
:10175000A0ED00E094ED00E00900100060230220FD
:1017600013002000210002071400002025000813A8
:10177000090000101600202027000B13170000405E
:1017800033001013180000602F000B0719000070C1
:101790002F000B133F00001025000803F0B58D4B00
:1017A00018228D4E01208D4948F20C7E8C4D4FF051
:1017B000FF378C4C83B0C3F85C12C3F8605200252D
:1017C000C3F86412C3F868424FF40054C3F86C6263
:1017D0008549C3F87062C3F87462C3F87862834EB7
:1017E000DA661A675A679A67DA67C3F88020C3F81F
:1017F0008420C3F8882040F20562C1F82C03C1F8A8
:101800003003C1F83403C1F83803C1F83C03C1F810
:1018100050032946B36976481840764B034376480F
:10182000B361D6F8843043F00C03C6F88430022646
:10183000036833430360036803EA0E0E6F4B4EEAFE
:101840000303DFF8F0E103606D4B4760DEF80870DA
:101850003B406C4F43F000538360C36823F0780330
:10186000C360036A1F40684B3B43664F0362036AD1
:101870001F40654B3B43654F43628762C762DEF89A
:10188000B830634F23F03F0343F00103C0F8B83092
:10189000DEF8BC30DFF884E123F03F0343F00103BE
:1018A000C0F8BC30056104660767C0F88020446654
:1018B0004767C0F884200468564B24F00204564A57
:1018C0000460C0F818E0C66143F8041B9342FBD1E2
:1018D000494B1A68194642F001021A600B68464AE1
:1018E00013F00103FAD14D4E022540F2F56440F2A7
:1018F000664040F299414A4F966142F20146D561F5
:1019000040F23545C2F8004242F20124C2F810020A
:101910000120C2F820121146C2F8307207F15A476E
:10192000C2F8346207F51377C2F840523D4E3E4D7F
:10193000C2F85072C2F85462C2F86052C2F86442EF
:10194000C2F8A030C2F8A430C2F8B0004B692A4AED
:10195000DD07FBD5012300244FF48030114653618D
:10196000C2F8A040C2F8A400C2F8B0304B69224AC5
:10197000DC07FBD5012300244FF4003011465361EE
:10198000C2F8A040C2F8A400C2F8B0304B691A4AAD
:10199000D807FBD501230024244811465361C2F81F
:1019A000A040C2F8A400C2F8B0304B69124ADB076D
:1019B000FBD5D2F8003145F60D5121209BB2506184
:1019C0008B4239D01A4B00221A605A609A60DA6052
:1019D00003B0F0BD00801F40F9700100F9B00100B4
:1019E000F9100100F900010000841F4000C00F4001
:1019F000FFFCFF1F000300A000402A401200FFFF71
:101A0000FF37F70000FFF07C40000080FF000F83ED
:101A10006300020000422A4000432A40F05AF05A74
:101A20009F041830063201263806180A0400030005
:101A3000C00E022000802A4000244FF480200123A1
:101A40001146C2F8A040C2F8A400C2F8B0304B69F9
:101A50003B4ADF07FBD501234FF400040020114669
:101A60005361C2F8A040C2F8A400C2F8B0304B697C
:101A7000334ADE07FBD501234FF400044FF48030D6
:101A800011465361C2F8A040C2F8A400C2F8B030B9
:101A90004B692B4ADD07FBD501234FF400044FF4BB
:101AA000003011465361C2F8A040C2F8A400C2F849
:101AB000B0304B69224ADC07FBD501234FF4000408
:101AC000204811465361C2F8A040C2F8A400C2F8F1
:101AD000B0304B691A4AD807FBD5D2F8003145F629
:101AE0000D5121209BB250618B4210D0164B082221
:101AF0004FF400041A7015490020154A0123009084
:101B0000521A1448224400F08FF903B0F0BD4FF48C
:101B100000044FF4802101231046C2F8A040C2F80F
:101B2000A410C2F8B03043690549DB07FBD501209A
:101B3000054B10224FF0807448611A70DBE700BF3C
:101B400000402A40040003006023012000000070D0
:101B500000000070C00E0220F0B4174A40274FF476
:101B600080314FF480564FF400554FF4404443F217
:101B70004200136913F0020F06D094615161906125
:101B8000136913F0020FF8D113F4005F01D155610E
:101B9000EFE713F4805F01D15661EAE7002BE8DA42
:101BA00013F4803F01D09161E3E75B0601D45761F4
:101BB000DFE7F0BC704700BF00800D40394A0320CA
:101BC0003949F3EE095A13689FED386A23F001038F
:101BD000DFED376AF0B4136000241061D1F8E03013
:101BE000344FD8B2C3F30B211B0D334E07EE100A4E
:101BF00005EE101A07EE903A304BB8EEC55A304D4C
:101C0000B8EEC77A3060F8EEE77A29602D4937EEF2
:101C1000466A2D4E77EEC57A2C4877EE666A2C4DD3
:101C200037EE657A26EE276AC7ED007A66EEA76A78
:101C3000176867EE277A83ED007AC6EE075A86EEBC
:101C4000876AC7EE876A35EE857AFCEEC77A36EE8C
:101C5000057A17EE903ABCEEC77A47EA035376EE60
:101C6000857A136017EE103AD2F81071FCEEE77A1D
:101C700001EA0341394317EE903AC2F81011C3F359
:101C80000B03D2F810110B43C2F81031136843F064
:101C9000020313603470C0F840510E4B0122F0BCB7
:101CA0001A60704780810D4000441F400000AA4226
:101CB0000000B4426C23012064230120682301202A
:101CC000702301200000FF0F40E400E0000C022020
:101CD000C1D4010008E100E0304B40F6617270B5FC
:101CE000C3F8202140F2044500F0B2F82C492D48F9
:101CF000D1F880202C4C42F003022C4BC1F88020FC
:101D0000C0F86051226813401BB9D0F8A8319A0777
:101D10001AD0244B4FF00041234A51631A46D3F89E
:101D2000401141F00201C3F84011D2F840319B0745
:101D3000FBD44FF400301E491B4B4FF000420860AB
:101D400019209A6300F088F81A4D0022164B4FF0C4
:101D50008041144C0A26996328461A601146C4F83B
:101D6000A8614FF4407200F06BF84FF4810640F226
:101D700043114FF48000104B104A2E602864C4F8C1
:101D80005851C4F84811C3F804220D4A4FF40031E9
:101D900001231160C4F8403170BD00BF00800D40C8
:101DA00000C00F4000002E4000900D40001C1E009F
:101DB0008CE200E000200220000C02206DD6010021
:101DC0000CE100E008B50E4B1B6E9B0700D4FBBE78
:101DD00072B60C4B00200C4AC3F8400103F160437B
:101DE0000A49A3F55F2311649D46BFF34F8F084A4C
:101DF00003F5E0430749126818461960936898474D
:101E000000441F4000002E4000C00A400300200094
:101E10001C002000000012EBF8B500BFF8BC08BCA5
:101E20009E467047000000005FF800F055EE01008C
:101E30005FF800F0ADEA01005FF800F039CB010077
:101E40005FF800F0EDDB04005FF800F0C9D004009B
:101E50005FF800F045DE01005FF800F0FDCD010005
:101E60005FF800F005D0010045000000B905000052
:101E7000414A0000A9800000B5950000859C000043
:101E8000C9A80000B5AD0000A9B600008DBC0000D7
:101E9000E9BC000089C30000F1C30000097B010018
:101EA00095C90100F1C90100616C020051EF020007
:101EB00021740300D9B1030095F90300692D0400D2
:101EC00018034400750061006C0020005300650099
:101ED0007200690061006C00180354006500650021
:101EE0006E00730079006400750069006E006F0079
:101EF0000403090409028D00040100C032080B002C
:101F0000020202010009040000010202010005248E
:101F10000010010524010101042402060524060025
:101F2000010705820310001009040100020A0000E5
:101F30000007050302400000070583024000000877
:101F40000B02020202010009040200010202010068
:101F500005240010010524010101042402060524C2
:101F60000602030705840310004009040300020A67
:101F7000000000070505024000000705850240003B
:101F80000000000009028D00040100C032080B00AF
:101F900002020201000904000001020201000524FE
:101FA0000010010524010101042402060524060095
:101FB000010705820310000509040100020A000060
:101FC0000007050302000200070583020002000863
:101FD0000B020202020100090402000102020100D8
:101FE0000524001001052401010104240206052432
:101FF0000602030705840310000509040300020A12
:102000000000000705050200020007058502000226
:10201000000000000A060002EF0201400100010179
:1020200000000000000000000000000000000000B0
:1020300000000000000000000000000000000000A0
:1020400010B5054C237833B9044B13B10448AFF3F2
:1020500000800123237010BDCCC9002000000000C7
:10206000E4BE0500084B10B51BB108490848AFF3A2
:1020700000800848036803B910BD074B002BFBD054
:10208000BDE81040184700BF00000000D0C9002084
:10209000E4BE0500CCC900200000000008B540F6F1
:1020A000B83117480AF0DAFD4FF4E13114480AF06C
:1020B000ABFD012112480AF089FDA0B900211048AA
:1020C00001220AF069FE01210D480AF07FFD30B1BE
:1020D00006210C481EF01CFA09480AF093FDBDE8E1
:1020E000084009F0DDBB102107481EF011FA0A2153
:1020F00003480AF05FFD02480AF084FDDEE700BFF6
:10210000D8D10020140000200000002009F0B6BB48
:10211000704700BF10B103685B681847704700BF85
:102120002DE9F0470C4680461820154699461EF0CA
:10213000D5FC2269824663690261436113B1596823
:102140000131596000232278E168CAF804508AF806
:102150000020CAF80830CAF80C3031B14B4652465C
:102160004046FFF7DDFFCAF80C00A5684DB35646A0
:10217000002718201EF0B2FC29690446D5F814E0A7
:1021800002464B4640462161C4F814E0BEF1000F00
:1021900004D0DEF804100131CEF804102978E7608D
:1021A000D5F80CE02170A7607146B4606660BEF19E
:1021B000000F02D0FFF7B4FFE060AD682646002DA7
:1021C000D7D15046BDE8F08770B5044600231546C8
:1021D000043004F120026360A36082B02183E060D8
:1021E0002061236263615360A262E262A968236393
:1021F000B9B104F11C0602AB304643F8046DFFF799
:102200008FFF6062024600E01A469368002BFBD104
:10221000A26200E01846C368002BFBD16B69E06244
:102220002363204602B070BD38B500230446036026
:10223000436003618B683BB10D460222083098472A
:10224000EA68AB686261236100232046A36138BD60
:10225000054AC36810B5044602601BB1011D032284
:1022600008469847204610BD74000020074AC368FE
:1022700010B5044602601BB1011D032208469847B1
:10228000204628211EF032FC204610BD740000209C
:1022900038B50C4A002304460260C3608B683BB12A
:1022A0000D46022204309847EA68AB682261E36079
:1022B0000AF0E2FA0023C4E9060184F8203020463F
:1022C00038BD00BF7400002090F8203033B9C368D7
:1022D00000F1180123B10369043018470120704749
:1022E00010B526F06BFE00BF704700BF10B5044666
:1022F00038211EF0FBFB204610BD00BF0B460549F0
:1023000010B5044618461FF0FFF908B104F110009B
:1023100010BD00BF0C0200201EF0E4BB03689968EA
:10232000186802F031BF00BF38B50446032A0FD841
:10233000DFE802F02521100205684DB16C681CB180
:102340006368013B6360F3B128460C211EF0CEFBAD
:10235000002038BD0D680C201EF0C0FB95E80C0075
:1023600080E80C0013B15A6801325A60AB682060F3
:102370008360002038BD0B680360002038BD094B26
:102380000360002038BD236820469B689847A368F7
:10239000013BA360002BD7D123682046DB68984718
:1023A000D2E700BF34030020036900F11001084A9E
:1023B0001B68934208D1074AC369026133B100F137
:1023C000140103220846184708461847704700BF03
:1023D000310200007400002070B504463B4E0868CE
:1023E0001D464B6826606060A36013B159680131D7
:1023F000596092E80A00E160236113B15A68013222
:102400005A600023E361AB6843B10222294604F11C
:1024100014009847EA68AB682262E3610023E36234
:10242000AB694BB1022205F1100104F12400984779
:10243000EA69AB692263E3620023E363AB6A4BB1F1
:10244000022205F1200104F134009847EA6AAB6AE0
:102450002264E3630023E364AB6B4BB1022205F11A
:10246000300104F144009847EA6BAB6B2265E364EA
:102470000023E365AB6C4BB1022205F1400104F18E
:1024800054009847EA6CAB6C2266E3650023E36670
:10249000AB6D4BB1022205F1500104F16400984785
:1024A000EA6DAB6D2267E3660023E367AB6E53B161
:1024B000022205F1600104F174009847EA6EAB6EE8
:1024C000C4F88020E367204670BD00BF9002002062
:1024D000014B0360704700BF7C0200202DE9F043F0
:1024E0004E6887B09046C768D1F8009016B17368FF
:1024F0000133736000243820009401941EF0EEFA3A
:1025000005460123274A0C2004942C466B60AB60DF
:1025100044F8102B1EF0E2FA0346C0F8009002A91E
:10252000214A20465E60C3F8088002931F4B059243
:102530000493FFF7ADFE049B1BB102A903220846DA
:1025400098472B681A4A1B690195934225D119496E
:1025500008461FF0D9F8002808BF002406A938460D
:1025600041F8184D01F090F8019C1CB16368013BE3
:10257000636013B107B0BDE8F083236820469B6811
:102580009847A368013BA360002BF3D12368204642
:10259000DB68984707B0BDE8F083284605499847AF
:1025A0000446DBE7B8020020FD020000090300003A
:1025B000DD0200000C0200200249002280E8060033
:1025C000704700BFA00300204068A0F10200B0FAED
:1025D00080F04009704700BFF0B5114840F25276D4
:1025E000104D40F6D714104A40F61A310F4B40F602
:1025F000950E2E6040F65C47196040F67305146036
:102600004FF4D6620A4EC0F800E040F61410094CB0
:1026100009490A4B3760256008601A60F0BD00BFA9
:10262000F0C90020E8C90020F4C90020FCC900203E
:1026300004CA0020ECC9002000CA0020F8C900200C
:10264000F0B5002683B004460D4686601E468B68B2
:1026500017462BB102229847EA68AB68E260A36094
:102660000023A361AB694BB1022205F1100104F113
:1026700010009847EA69AB69E261A36104F12C009C
:102680007568278460623668EE4203D016B9154833
:1026900026F0F4FB0F2D019511D8012D1ED0BDB9E8
:1026A000606A00230122A5624355204684F83C302D
:1026B00084F83E30236484F83D2003B0F0BD00224E
:1026C00001A904F124003AF0D9FD019B6062E362A4
:1026D0002A4631461CF0A6F9019DE1E7337884F8DB
:1026E0002C30DEE7A803002010B4019C80F83C10D9
:1026F000046480F83D2080F83E305DF8044B70475C
:1027000020307047704700BF044A8369C26023B11C
:1027100000F110010322084618477047D405002035
:10272000704700BF01F00E0022B9081AB0FA80F01D
:1027300040097047003018BF0120704701207047E2
:10274000012070471C31032280E80600704700BF5B
:102750000320704710B5044640211EF0C7F92046FB
:1027600010BD00BF10B504464C211EF0BFF9204635
:1027700010BD00BF1EF0B6B91EF0B4B90B46054936
:1027800010B5044618461EF0BFFF08B104F10C0056
:1027900010BD00BF0C0200200B46054910B50446D1
:1027A00018461EF0B1FF08B104F10C0010BD00BFC7
:1027B0000C02002070B50446032A07D8DFE802F0B7
:1027C00018140802006810211EF090F9002070BD56
:1027D0000E6810201EF082F9054696E80F0025606D
:1027E00085E80F00002070BD0B680360002070BDFD
:1027F000014B0360002070BD540600200368F0B454
:1028000053F8214074B126681788B388BB4210D0B2
:1028100032688AB193884568B3FBF5F405FB14343C
:10282000A14202D00020F0BC7047BB42344616469D
:10283000EED12046F0BC70471046F0BC704700BF98
:10284000B0F1804F38B50AD2840020461EF046F918
:102850000546224600214DF0D9F9284638BD26F01C
:10286000EDFA00BF38B50446032A0FD8DFE802F0BE
:102870002521100205684DB1AC681CB16368013BAD
:102880006360F3B1284610211EF030F9002038BDF6
:102890000D6810201EF022F995E80E0080E80E0069
:1028A00013B15A6801325A60EB682060C36000209F
:1028B00038BD0B680360002038BD094B0360002061
:1028C00038BD236820469B689847A368013BA360F6
:1028D000002BD7D123682046DB689847D2E700BF9A
:1028E000D0060020036830B50C6885B093E8070077
:1028F0000291039212B1516801315160DA68C369E3
:1029000001920094FBB1046A6B46143001AA02A93B
:10291000A047039C05461CB16368013B636013B18B
:10292000284605B030BD236820469B689847A368B9
:10293000013BA360002BF3D123682046DB68984756
:10294000284605B030BD26F039FB00BF2DE9F04F19
:102950000F680025D3F800B091B054688146FB6839
:10296000116855601560009314B1636801336360AA
:102970004C2001911EF0B2F80123454A0646054657
:102980004FF0000A43601020AB600DF1300846F8AC
:102990000C2BCDF828A01EF0A1F800990246BB68C8
:1029A00001600199C0F80CB0416008A984604046FC
:1029B0000892022297E800480393364F364BCDF831
:1029C00008E00B970A93CDF838A0FFF74BFF0A9B5E
:1029D0005A460B9F304641460E930F9700F0FCFA83
:1029E0000E9B1BB103224146404698472B4B02A841
:1029F0000DF1180BEB6004F089F8824602A804F090
:102A000087F8514607460246404604F07BF806F137
:102A10001C0098E8060000F0CFFA7A1C5146584690
:102A200004F070F806F128009BE8060000F0C4FAF4
:102A3000BA1C514604A804F065F804AB06F1340052
:102A400093E8060000F0B8FA0A9B1BB108A903221C
:102A5000084698472B68284611491B69984789E81A
:102A600021001CB16368013B63601BB1484611B093
:102A7000BDE8F08F236820469B689847A368013B18
:102A8000A360002BF2D123682046DB689847EDE76E
:102A900040060020C508000045080000040600208C
:102AA0000C02002038B5164A002304460D46026089
:102AB000C3608B6833B1022204309847EA68AB6880
:102AC0002261E3600023E361AB694BB1022205F1AF
:102AD000100104F114009847EA69AB692262E361CE
:102AE000002304F13C004FF07E5101226062204639
:102AF0006163A262E3622363A363E36338BD00BF43
:102B0000F405002082B02DE9F04188B00F4605465B
:102B1000904603910EAE002101AA46F8043F04AC92
:102B20008160CDF8008096E8030082E803009DE80C
:102B30000F0084E80F0010201DF0D0FF094A0A4B57
:102B40000646CDF8108007972860EA60AB6094E8ED
:102B50000F0086E80F00284608B0BDE8F04102B03B
:102B6000704700BF2D09000095070000F8B5856883
:102B700007462DB920E0284635461DF0B3FFDEB1EB
:102B8000EC682E68002CF6D06368013B6360002B74
:102B9000F1D1236820469B689847A368013BA36056
:102BA000002BE8D123682046DB6898472846354645
:102BB0001DF098FF002EE3D17A680021386892005A
:102BC0004DF024F83B46002253F8180BFA60984267
:102BD000BA6001D01DF086FF3846F8BD0A4B10B52B
:102BE000044640F8243BFFF7C1FFE36923B104F139
:102BF0001401032208469847E3681BB1211D0322F4
:102C000008469847204610BDF40500200C4B10B52F
:102C1000044640F8243BFFF7A9FFE36923B104F120
:102C20001401032208469847E3681BB1211D0322C3
:102C300008469847204640211DF058FF204610BD09
:102C4000F40500202DE9F043054685B0C068012455
:102C50000E4690461F466A68034605F1100100942F
:102C600002A826F09BF89DF808308BB92C68B200BA
:102C700054F82630002B4AD01B683B6054F82630AD
:102C80001F60EB6838460133EB6005B0BDE8F083A8
:102C9000039E012E4FD0304605F11809FFF7D0FDF5
:102CA0000446AB680022AA600BB3964605F1080CF7
:102CB00006E00968196054F8222013600346B0B199
:102CC0009A881868B2FBF6F106FB112254F822101C
:102CD0000029EED1A9681960AB6044F822C01968D8
:102CE00039B344F82E30964603460028E8D12868C8
:102CF000484501D01DF0F6FEB8FBF6F385E850001C
:102D000006FB138654F82630B200002BB4D1AB6812
:102D10003B60AF6043B139686B688888B0FBF3F102
:102D200003FB110344F823702B4653F8081B8B5008
:102D3000A7E79646C2E72C46002344F8183FA14671
:102D4000AFE700BF49B3F8B507460C4604E020469C
:102D500034461DF0C7FEFEB1E1683846FFF7F2FFCA
:102D60006569A668002DF2D06B68013B6B60002B93
:102D7000EDD12B6828469B689847AB68013BAB6058
:102D8000002BE4D12B682846DB6898472046344660
:102D90001DF0A8FE002EDFD1F8BD70472DE9F047E9
:102DA0008AB0846A0D4600F124090AAB80461746B2
:102DB000484623F8221D1A46B1FBF4F104FB1151D9
:102DC000FFF71CFD002800F0B6800368002B00F020
:102DD000B2801C230AA904AE0DF1180A41F81C3D6B
:102DE00000223046CDF810A0544C3AF047FA039B2D
:102DF000864604904FF0000C06930FCCCEF80000EE
:102E0000CEF80410CEF80820CEF80C3007CCCEF85F
:102E100010003046CEF81410CEF81820039B049A08
:102E2000059302F803C009F011FD0498504501D044
:102E30001DF058FEFC6807F1040AA24509D020697C
:102E4000294602F0EDF820461EF0D8FD82450446E2
:102E5000F5D140201DF042FE0121044605AA0023C1
:102E600037486160A246A160B968079208924AF8A3
:102E70000C0B536005930993A9B10AAB304643F894
:102E80001C6DFFF74DF90690024600E01A46936864
:102E9000002BFBD1079200E01846C368002BFBD142
:102EA0007B6908900993324650462946FFF78CF912
:102EB00030460699FFF746FF2368224920461B69E2
:102EC0009847824610201DF009FED8F82870064663
:102ED0000023021D48463360C6F808A0B580F460A0
:102EE000B5FBF7F307FB13573946FFF787FCC8B16B
:102EF0000368BBB16368013B63602BB130461DF0D2
:102F0000F1FD0AB0BDE8F087236820469B6898472A
:102F1000A368013BA360002BF0D123682046DB6847
:102F20009847EBE733462A4639464846FFF78AFE7C
:102F30000AB0BDE8F08704AE7CE700BFB006002011
:102F4000240600200C02002049B3F8B507460C46C1
:102F500004E0204634461DF0C5FDFEB1E168384668
:102F6000FFF7F2FF6569A668002DF2D06B68013BA0
:102F70006B60002BEDD12B6828469B689847AB68A7
:102F8000013BAB60002BE4D12B682846DB689847F7
:102F9000204634461DF0A6FD002EDFD1F8BD704757
:102FA00010B50446016B2830FFF7CCFE616904F1CF
:102FB0000C00FFF7C9FF10BD30B482B003460025F6
:102FC0008DE806009DE803009D6083E80500184633
:102FD00002B030BC704700BF70B5002304460948FA
:102FE0001646E36020608B683BB10D460222201D2F
:102FF0009847EA68AB682261E36001236661204676
:10300000A36170BDD4050020836911F0180F14BFAF
:1030100003F0060303F018031943036810B50446D0
:1030200082B05B6981619847A269E36801922BB124
:10303000236901A9201D984702B010BD25F0BEFFED
:10304000836940F6FF7110B413F0020418BF0C46F8
:1030500013F0040218BF0A4613F00803446218BFB5
:103060000B4602635DF8044BC36370470368F0B41A
:1030700053F8214074B1266817687268BA4210D0BC
:1030800033688BB15A684568B2FBF5F405FB14242C
:10309000A14202D00020F0BC7047BA4234461E461E
:1030A000EED12046F0BC70471846F0BC704700BF18
:1030B00038B50446032A0FD8DFE802F0231F1002B8
:1030C00005684DB1AC681CB16368013B6360E3B156
:1030D00028460C211DF00AFD002038BD0D680C208B
:1030E0001DF0FCFC95E80E0080E80E0013B15A6854
:1030F00001325A602060002038BD0B680360002058
:1031000038BD094B0360002038BD236820469B680A
:103110009847A368013BA360002BD9D123682046C0
:10312000DB689847D4E700BFE407002038B50446C1
:10313000032A0FD8DFE802F0231F100205684DB103
:10314000AC681CB16368013B6360E3B128460C21A5
:103150001DF0CCFC002038BD0D680C201DF0BEFC1D
:1031600095E80E0080E80E0013B15A6801325A60EB
:103170002060002038BD0B680360002038BD094B7B
:103180000360002038BD236820469B689847A368E9
:10319000013BA360002BD9D123682046DB68984708
:1031A000D4E700BF3C07002038B50446032A0FD8F7
:1031B000DFE802F0231F100205684DB1AC681CB1B6
:1031C0006368013B6360E3B128460C211DF08EFC6F
:1031D000002038BD0D680C201DF080FC95E80E0025
:1031E00080E80E0013B15A6801325A602060002056
:1031F00038BD0B680360002038BD094B0360002018
:1032000038BD236820469B689847A368013BA360AC
:10321000002BD9D123682046DB689847D4E700BF4C
:10322000DC070020F8B5856807462DB920E0284660
:1032300035461DF057FCDEB1AC682E68002CF6D088
:103240006368013B6360002BF1D1236820469B68D3
:103250009847A368013BA360002BE8D12368204670
:10326000DB689847284635461DF03CFC002EE3D12C
:103270007A680021386892004CF0C8FC3B46002276
:1032800053F8180BFA609842BA6001D01DF02AFC7E
:103290003846F8BD10B543680A460C68B4FBF3F134
:1032A00003FB1141FFF7E2FE10B1006800B110BD51
:1032B000002010BD2DE9F0478D0906460F46E81C99
:1032C0000135082838BF0820706080001DF006FC1A
:1032D0007368814630605B1B4FEA530800EB880A35
:1032E0000AEB8505AA4508D254464FF400701DF03C
:1032F000F5FB44F8040BA542F7D855F8043C07F059
:103300003F0759F82820043D03EBC70703F5007178
:1033100002F50070F260B2603061C6F814A0B761C7
:10332000F36131627562BDE8F08700BF2DE9F04FAF
:10333000002491B08046049106A82146C8F80040B8
:10334000C8F8044006940794089409940A940B94CE
:103350000C940D940E940F94FFF7ACFFC8F808403E
:103360002146C8F80C4008F10800C8F81040C8F819
:103370001440C8F81840C8F81C40C8F82040C8F8E5
:103380002440C8F82840C8F82C40FFF793FF069F58
:10339000002F00F0D48008AB08F11004D8F818E032
:1033A00008F1200CD8F81C60D8F81090D8F814A0B8
:1033B000CDF808E04D4603960FCB84E80F0010AB24
:1033C000D8F82440CDF824A0CDF828E0D8F820A0E3
:1033D000D8F82CE00B962646CDF82090CDF804E0E6
:1033E00013E90F000D94D8F82840CDF830A00E94C2
:1033F000CDF83CE08CE80F00D8F80C20D8F8081085
:10340000079B0691C8F808700792C8F80C30039B18
:103410001F1D019B9F4226D2AB46DDF80490059606
:1034200057F8046B06F5007501E0B54217D07468D3
:103430000836002CF9D06368013B6360002BF4D19F
:10344000236820469B689847A368013BA360002B34
:10345000EBD123682046DB689847B542E7D1B945F0
:10346000DED85D46059E019B039A93425BD0029B8A
:10347000AB421BD0029F01E0BD4217D06C680835FB
:10348000002CF9D06368013B6360002BF4D1236802
:1034900020469B689847A368013BA360002BEBD1B3
:1034A00023682046DB689847BD42E7D1564517D0D0
:1034B00074680836002CF9D06368013B6360002B08
:1034C000F4D1236820469B689847A368013BA3601A
:1034D000002BEBD123682046DB6898475645E7D19F
:1034E000069868B10F9D0B9C0435AC4206D254F887
:1034F000040B1DF0F7FAA542F9D806981DF0F2FA70
:10350000049B4046C8F8303011B0BDE8F08F236806
:1035100020469B689847A368013BA3601BB92368BA
:103520002046DB6898475545DAD06C680835002C92
:10353000F9D06368013B6360002BF4D1E7E70A9B95
:10354000DDF830A002930B9B0D9E03930F9B089D0B
:1035500001935CE72DE9F047456A044606680F468B
:103560004268AB1BA2EBA303012B19D94FF40070E7
:103570001DF0B4FA6860A3693BB1002238685A6054
:10358000796818607A6059603A60636A1A1D6262ED
:103590005B6803F50072E361A3612262BDE8F08716
:1035A0004169C1EB05084FEAA80808F1010808F1D4
:1035B0000109B2EB490F2ED8002A3BD05500023545
:1035C000B5F1804F46D2A800C9EB05061DF086FA7A
:1035D000626A616976080432824600EB8606521AF6
:1035E000930829D120681DF07DFAC4F800A0656019
:1035F0006FF0404366613268434402F50071E26057
:1036000006EB83052161656256F8233003F50072ED
:10361000E3612262AAE7C9EB0202520806EB8206C6
:103620002A1DB1420CD9521A9308E1D030464CF011
:1036300089FADDE70325C6E730464CF083FAD1E787
:10364000521A4FEA88039008D2D0981A30444CF0AE
:1036500079FACDE725F0F2FB38B5046A8369083CB6
:10366000A3420DD0054643B10A46002114685960B3
:1036700050681C605160586011600833AB6138BD00
:10368000FFF768FF38BD00BF08B50830FFF7E4FF5B
:1036900008BD00BF2DE9F04FD1F8048089B00C4679
:1036A0000746D1F800A0B8F1000F04D0D8F80430D4
:1036B0000133C8F8043000253820DFF8489202951D
:1036C00003951DF00BFA0646012306950C2035469E
:1036D0007360B36045F8109B1DF000FA0346844AFE
:1036E0002846C3F8088004A90493079283E880045D
:1036F000804B0693FEF7CCFD069B1BB104A9032269
:103700000846984733680396DFF8FCA11B695345C8
:1037100040F0E480784908461DF0F6FF002808BF15
:10372000002508AE07F1080846F8185D4046314606
:10373000FFF792FF039D2DB16B68013B6B60002B7F
:1037400000F09A8094E8060012B153680133536088
:10375000002538208DE80600029503951DF0BEF97E
:103760008346012306950C205D46CBF80430CBF848
:10377000083045F8109B1DF0B1F900990346019AF5
:10378000DFF888E12846596004A91F609A60049315
:103790005A4BCDF81CE00693FEF77AFD069B1BB151
:1037A00004A9032208469847DBF80030CDF80CB096
:1037B0001B69534540F097804F4908461DF0A4FF10
:1037C000002808BF0025314640460295FFF744FF18
:1037D000039D25B16B68013B6B60002B6BD094E8B7
:1037E0000408BBF1000F04D0DBF804300133CBF840
:1037F0000430002438200092029403941DF06EF9E6
:103800000546012306940C202C466B60AB6044F8FF
:10381000109B1DF063F9009A0346DFF8F4E02046A0
:1038200004A95A60364A1F60C3F808B00493CDF863
:103830001CE00692FEF72CFD069B1BB104A9032297
:10384000084698472B6803951B69534541D12A497F
:1038500008461DF059FF002808BF002431464046A5
:103860000294FFF7F9FE039C1CB16368013B63609F
:103870008BB109B0BDE8F08F2B6828469B6898474C
:10388000AB68013BAB60002B7FF45CAF2B68284634
:10389000DB68984756E7236820469B689847A368EB
:1038A000013BA360002BE4D123682046DB689847E6
:1038B00009B0BDE8F08F2B6828469B689847AB6835
:1038C000013BAB60002B8AD12B682846DB68984708
:1038D00085E72846084998470446BFE73046064929
:1038E000984705461DE758460349984705466AE745
:1038F000F5240000891100000C0200209110000046
:103900000D110000B8020020DD0200004D2500006E
:10391000A925000070B50446006B82B003681B68DF
:103920009847054680B1E26AE169236A511A626AE2
:10393000A66989109A1A20694B1ED210311A02EB1F
:10394000831303EBE10313B9284602B070BD0023D3
:10395000083E0168B04201934268009143600192C1
:103960000360466835D026B17368013B7360002B55
:103970004DD008302061206B03685B689847009841
:10398000FEF7A2FCA8B1019C002CDDD06368013BCE
:103990006360002BD8D1236820469B689847A368B2
:1039A000013BA360002BCFD123682046DB689847FA
:1039B000CAE7206B03681B6898470028F9D004F118
:1039C00008006946FFF748FE206B03685B6898476C
:1039D000D9E77EB17368013B73605BB933683046E9
:1039E0009B689847B368013BB3601BB933683046A6
:1039F000DB68984760691DF075F8E3691A1DE2619C
:103A00005B6803F5007263612361A261B3E7336809
:103A100030469B689847B368013BB3600BB120699F
:103A2000A7E733683046DB689847F8E72DE9F043AD
:103A3000054685B0C06801240E4690461F466A6858
:103A4000034605F11001009402A825F0A7F99DF89E
:103A500008308BB92C68B20054F82630002B53D0B4
:103A60001B683B6054F826301F60EB683846013312
:103A7000EB6005B0BDE8F083039E012E58D0B6F18F
:103A8000804F5BD24FEA860948461DF027F84A4628
:103A900005F11809002104464CF0B8F8AB68002283
:103AA000AA600BB3964605F1080C06E00968196098
:103AB00054F8222013600346B0B193E80500B2FB2E
:103AC000F6F106FB112254F822100029EED1A96864
:103AD0001960AB6044F822C0196839B344F82E303D
:103AE000964603460028E8D12868484501D01CF0D6
:103AF000F9FFB8FBF6F385E8500006FB138654F88F
:103B00002630B200002BABD1AB683B60AF6043B155
:103B100039686B684868B0FBF3F103FB110344F8A4
:103B200023702B4653F8081B8B509EE79646C2E73E
:103B30002C46002344F8183FA146AFE725F07EF954
:103B40002DE9F0414B680F46166805460846904639
:103B5000B6FBF3F403FB14642146FFF787FA38B190
:103B600003682BB100222B6028462A71BDE8F08142
:103B70000C201CF0B3FF002198E80C0080E80E0038
:103B800013B15A6801325A6003463246214638461C
:103B9000FFF74CFF0123286028462B71BDE8F08118
:103BA0002DE9F04791468EB01D4606460C4690E83A
:103BB0000C000392049313B15A6801325A60002337
:103BC0004FF07E510DA801220DF11C0A0B910790B8
:103BD000089209930A930C930D9303A95046FFF79B
:103BE00059FB002840F09880039803681B6A9847A7
:103BF000002800F025816B4603AA514605A8CDF8A0
:103C000000A0FFF79DFF3068012303AA2168076821
:103C1000BF68B847002800F0D680AB68BBB1039AF4
:103C2000049B0592069313B15A6801325A602068CA
:103C30000EAAEB6805A942F8340D28469847069F5E
:103C40002FB17B68013B7B60002B00F09F800398C5
:103C5000314603685B699847039B20601A681846E1
:103C6000136A9847022800F0D180039905A82268BA
:103C70000B68DB6A98470599069A0023D9F8047007
:103C80000693059389E8060027B17B68013B7B60BA
:103C9000002B43D0D9F80030002B64D10398216861
:103CA00003689B699847AB6807462060ABB1039AED
:103CB000049B0592069313B15A6801325A600EAA0A
:103CC000EB6805A9284642F8307D9847069F27B142
:103CD0007B68013B7B60002B67D0DDF81080776844
:103CE000039BB84533603FF478AFB8F1000F04D0C0
:103CF000D8F804300133C8F8043027B17B68013BA1
:103D00007B60002B74D0C6F8048003A95046FFF7EF
:103D1000C1FA00283FF468AF00255CE03B683846F4
:103D20009B689847BB68013BBB601BB93B68384642
:103D3000DB689847069F002FACD07B68013B7B6017
:103D4000002BA7D13B6838469B689847BB68013B6E
:103D5000BB60002B9ED13B683846DB689847D9F89A
:103D60000030002B9AD0049D7468039BA5423360F9
:103D700076D015B16B6801336B6024B16368013B89
:103D80006360002B5ED07560032524E03B683846F5
:103D90009B689847BB68013BBB60002B7FF457AF23
:103DA0003B683846DB68984751E73B6838469B6874
:103DB0009847BB68013BBB60002B8ED13B683846FF
:103DC000DB68984789E7306803681B6A98470228D0
:103DD0007FF423AF02255046FFF724FA049C1CB160
:103DE0006368013B6360D3B128460EB0BDE8F0873D
:103DF0003B6838469B689847BB68013BBB60002B1B
:103E000081D13B683846DB6898477CE70398216896
:103E10000368DB68984700287FF427AFDAE7236858
:103E200020469B689847A368013BA360002BDBD129
:103E300023682046DB68984728460EB0BDE8F08727
:103E40000125C8E7236820469B689847A368013B83
:103E5000A360002B97D123682046DB68984792E740
:103E60000325B8E770B5042A8CB00C4616460CBF83
:103E70001025082590E80A000291039313B15A68AF
:103E800001325A600B6804A82246DB6A98470498FE
:103E900018B33146FFF7B8F80298214600240368AA
:103EA0009B69984708AB019006AA01A902A806944D
:103EB00007940A94FFF774FE0A9B1BB108A903221A
:103EC00008469847069810B12946FFF79DF8079CC9
:103ED0001CB16368013B63606BB1059C1CB16368F6
:103EE000013B636023B3039C1CB16368013B6360C7
:103EF0007BB10CB070BD236820469B689847A368CF
:103F0000013BA360002BE8D123682046DB6898477B
:103F1000E3E7236820469B689847A368013BA360BA
:103F2000002BE6D123682046DB6898470CB070BDB3
:103F3000236820469B689847A368013BA360002B39
:103F4000D1D123682046DB689847CCE72DE9F04FB4
:103F500006468FB01D46006873680C4617460390EE
:103F6000049313B15A6801325A6000234FF07E5E09
:103F70000DA9012299460DF11C0809930A930C938F
:103F80000D93CDF82CE007910892036821689B6996
:103F900098470399834605A80B685A469B6A984739
:103FA000059A069BD7F804A03A60CDF81490CDF896
:103FB00018907B60BAF1000F07D0DAF80430013BAB
:103FC000CAF80430002B00F09980D7F800A0BAF1AD
:103FD000000F40F0C98003A94046FFF75BF90028B5
:103FE00040F0D780039803681B6A9847002800F0C8
:103FF0003C816B4603AA414605A8CDF80080FFF737
:104000009FFD3068012303AA2168D0F800E0DEF8A4
:1040100008A0D047002800F0F080AB68E3B1039A15
:10402000049B0592069313B15A6801325A602068C6
:104030000EAAEB6805A942F8340D28469847DDF82A
:1040400018A0BAF1000F07D0DAF80430013BCAF823
:104050000430002B00F0AB800398314603685B69A5
:104060009847039B20601A681846136A98470228ED
:1040700000F0DF800398216803689B699847AB686C
:1040800086462060DBB1039A049B0592069313B128
:104090005A6801325A600EAAEB6805A9284642F810
:1040A00030ED9847DDF818A0BAF1000F07D0DAF824
:1040B0000430013BCAF80430002B00F08B80DDF89F
:1040C00010B0D6F804A00398D34530603FF45DAF3C
:1040D000BBF1000F04D0DBF804300133CBF804301F
:1040E000BAF1000F07D0DAF80430013BCAF8043007
:1040F000002B00F08C80C6F804B046E7DAF80030F8
:1041000050469B689847DAF80830013BCAF80830F7
:1041100023B9DAF800305046DB689847DDF818A07C
:10412000BAF1000F3FF451AFDAF80430013BCAF89E
:104130000430002B7FF449AFDAF8003050469B681A
:104140009847DAF80830013BCAF80830002B7FF4B2
:104150003CAFDAF800305046DB689847D7F800A04B
:10416000BAF1000F3FF437AF049D7768039BBD425F
:1041700033600AD015B16B6801336B6027B17B687F
:10418000013B7B60002B73D075604FF0030AC4F8CD
:1041900000B04046FFF746F8049C24B16368013B39
:1041A0006360002B50D050460FB0BDE8F08FDAF8B6
:1041B000003050469B689847DAF80830013BCAF84F
:1041C0000830002B7FF448AFDAF800305046DB6847
:1041D000984741E7DAF8003050469B689847DAF88C
:1041E0000830013BCAF80830002B7FF468AFDAF8DA
:1041F00000305046DB68984761E7306803681B6A07
:10420000984702287FF409AF4FF0020AC1E7DAF8B5
:10421000003050469B689847DAF80830013BCAF8EE
:10422000083023B9DAF800305046DB689847039825
:1042300061E7039821680368DB68984700287FF4EA
:1042400019AF4FF0020AA4E7236820469B689847FD
:10425000A368013BA360002BA5D123682046DB683F
:10426000984750460FB0BDE8F08F4FF0010A90E735
:104270003B6838469B689847BB68013BBB60002B96
:1042800082D13B683846DB6898477DE72DE9F04FDF
:104290000E468DB019681F460546904603919DF85D
:1042A00058909DF85C4096E809000490059313B17E
:1042B0005A6801325A60002303290693079300F0DD
:1042C000A5800DF1100A002C4FD0B8F1000F3FD19E
:1042D00008AB504606AA03A9CDF82880FFF736FEA2
:1042E0000A9B04461BB108A9032208469847022CE2
:1042F00057D9032C55D10698002852D003689B68E3
:104300009847002843D0B9F1000F40D0059B74684E
:10431000049AA34232600BD013B15A6801325A603A
:1043200024B16268013A6260002A72D01C46736050
:104330000399069A079B396085E80C0024B16368ED
:10434000013B6360002B31D028460DB0BDE8F08FF3
:10435000002408AB504606AA03A90A94FFF720FCE4
:104360000A9B0446002BBED1C1E703685246D3F82E
:1043700008B00123D847002837D12C606C60079C17
:104380001CB16368013B63600BB3059CD6E70698DC
:1043900003685B6898478145B8D3069803689B68B3
:1043A00098470023079C2B606B60E9E72368204651
:1043B0009B689847A368013BA360002BC4D1236886
:1043C0002046DB68984728460DB0BDE8F08F23688B
:1043D00020469B689847A368013BA360002BD4D17B
:1043E00023682046DB689847CFE7049C3146236862
:1043F00020465A69D3F818B0904701462046D8475E
:104400000390B8F1000F3FF463AFA1E72B606B603E
:10441000BBE722682046019392689047A268019BFF
:10442000013AA2600AB1059C81E722682046019307
:10443000D2689047059C019B79E700BF30B591E8B1
:1044400009008BB014460490059313B159680131EB
:10445000596000F0E3FE0122A0420CBF04250225B2
:10446000002C03AB04A90CBF14460224019206A839
:1044700000920394FFF70AFF069B93B1049A059BF1
:104480000892099313B15A6801325A602A46039977
:1044900008A8FFF7E7FC099C1CB16368013B636057
:1044A0006BB1079C1CB16368013B636023B3059C3F
:1044B0001CB16368013B63607BB10BB030BD236806
:1044C00020469B689847A368013BA360002BE8D176
:1044D00023682046DB689847E3E7236820469B680B
:1044E0009847A368013BA360002BE6D123682046D0
:1044F000DB6898470BB030BD236820469B6898471F
:10450000A368013BA360002BD1D123682046DB6860
:104510009847CCE7026810B5506882B09368146879
:104520008DE8090013B15A6801325A6000F076FE36
:10453000694602462046FFF781FF019C1CB1636873
:10454000013B636013B1022002B010BD2368204616
:104550009B689847A368013BA360002BF3D12368B5
:104560002046DB689847022002B010BD026810B5F3
:10457000506882B0936814688DE8090013B15A68D6
:1045800001325A6000F04AFE00F04AFE69460246D7
:104590002046FFF753FF019C1CB16368013B636039
:1045A00013B1022002B010BD236820469B689847D3
:1045B000A368013BA360002BF3D123682046DB688E
:1045C0009847022002B010BD30B5046891B062680F
:1045D000A3680492059313B15A6801325A6001200E
:1045E000002502AB04A901900246009006A802959E
:1045F000FFF74CFE6068A3680890099313B15A68EE
:1046000001325A60002400F00FFE0CAB03900AAA9E
:1046100003A908A80A940B940E94FFF797FC0E9B2D
:1046200004461BB10CA9032208469847032C37D82F
:10463000012303FA04F414F00B0F0CBF022204222E
:104640000499059B0C910D9313B159680131596080
:104650000CA80299FFF706FC0D9C1CB16368013B96
:104660006360FBB10B9C24B16368013B6360002B6A
:1046700052D0099C24B16368013B6360002B3DD09C
:10468000079C24B16368013B6360002B28D0059C24
:104690001CB16368013B636093B1022011B030BD6F
:1046A0000222CDE7236820469B689847A368013B18
:1046B000A360002BD6D123682046DB689847D1E75A
:1046C000236820469B689847A368013BA360002BA2
:1046D000E3D123682046DB689847022011B030BD43
:1046E000236820469B689847A368013BA360002B82
:1046F000CDD123682046DB689847C8E72368204669
:104700009B689847A368013BA360002BB8D123683E
:104710002046DB689847B3E7236820469B689847A4
:10472000A368013BA360002BA3D123682046DB686C
:1047300098479EE70022026042607047006A704717
:10474000032918BF00290CBF01200020704700BFBB
:1047500042B9CA6A0B6B80E80C0033B15A68013267
:104760005A6070470023036043607047A1F1030063
:10477000B0FA80F0400970470B68C06A834214BFEA
:1047800003200020704700BF00290CBF0320002039
:10479000704700BF00207047003201F1340118BF9C
:1047A000012201EBC20351F832205B6880E80C0063
:1047B00013B15A6801325A60704700BFB2FA82F2F0
:1047C0003431520901EBC20351F832205B6880E8B2
:1047D0000C0013B15A6801325A60704701298CBF2E
:1047E00000200120704700BF42B9CA6A0B6B80E805
:1047F0000C0043B15A6801325A607047012A03D055
:1048000000230360436070474A6B8B6B80E80C00A9
:10481000002BF8D05A6801325A6070470120704767
:104820000B68C26A934205D0406B83420CBF0120E3
:104830000320704700207047B1FA81F040097047AB
:1048400001207047003201F13C0118BF012201EB49
:10485000C20351F832205B6880E80C0013B15A683B
:1048600001325A60704700BFB2FA82F23C315209FD
:1048700001EBC20351F832205B6880E80C0013B1F1
:104880005A6801325A607047C81E18BF012070472D
:1048900042B94A6D8B6D80E80C0053B15A68013201
:1048A0005A607047012A05D0022A0DD00023036008
:1048B00043607047CA6D0B6E80E80C00002BF8D087
:1048C0005A6801325A6070474A6E8B6E80E80C005D
:1048D000002BE3D1EDE700BF0B68426D934208D097
:1048E000C26D934207D0406E83420CBF022003206A
:1048F0007047002070470120704700BF29B9036D41
:10490000002B0CBF0120022070470020704700BF21
:1049100002207047436C5BB1026D3C30C36800B548
:1049200083B002A941F8042D984703B05DF804FB59
:104930001846704770B5054682B00E4619B912B1D7
:10494000114824F09BFA941B0F2C01940AD82B6871
:10495000012C184614D06CB9019A00216A60995450
:1049600002B070BD002201A9284638F087FC019BE7
:104970002860AB60224631461AF054F82B68EBE70A
:1049800032781A702B68E7E7A803002029B10129C3
:1049900005D0022908D00020704701207047006D23
:1049A000B0FA80F040097047006DA0F10100B0FA44
:1049B00080F04009704700BF10B586B0084A02ACCD
:1049C0006846A2F111010094FFF7B4FF684607F0B2
:1049D0003DFF0098A04201D01CF084F806B010BD45
:1049E000A90A002010B586B0084A02AC6846A2F1B8
:1049F00014010094FFF79EFF684607F027FF009818
:104A0000A04201D01CF06EF806B010BDC00A002014
:104A100070B50446C2B1012A11D1866C91E8280014
:104A2000B54243640FD015B16B6801336B6026B19A
:104A30007368013B7360002B2AD0A56470BDBDE88C
:104A40007040FFF7B9BF70BD91E82800066CC363E2
:104A5000B542F8D015B16B6801336B601EB1736855
:104A6000013B73600BB1256470BD3368184A9B68C5
:104A7000934223D1B368013BB360002BF3D1336879
:104A80001449DA688A421CD15B6830469847EAE7E5
:104A900033680F4A9B6893420DD1B368013BB36002
:104AA000002BCAD133680B49DA688A420CD15B68A3
:104AB00030469847C1E730469847EEE7304698477A
:104AC000D8E730469047CEE730469047B5E700BF7D
:104AD000F1000000F500000070B50446C2B1032AE1
:104AE00011D1066C91E82800B542C3630FD015B10F
:104AF0006B6801336B6026B17368013B7360002BF8
:104B00002AD0256470BDBDE87040FFF755BF70BD69
:104B100091E82800866B4363B542F8D015B16B6805
:104B200001336B601EB17368013B73600BB1A56309
:104B300070BD3368184A9B68934223D1B368013B28
:104B4000B360002BF3D133681449DA688A421CD170
:104B50005B6830469847EAE733680F4A9B689342A0
:104B60000DD1B368013BB360002BCAD133680B4948
:104B7000DA688A420CD15B6830469847C1E7304614
:104B80009847EEE730469847D8E730469047CEE75B
:104B900030469047B5E700BFF1000000F500000087
:104BA000F0B514460268374F83B0126806460D46CA
:104BB000BA4242D1032918BF00290CBF01200020AE
:104BC000E0B1A5B99BB1356BF36A66682360B54265
:104BD0004DD015B16B6801336B6026B17368013B32
:104BE0007360002B2DD00120656003B0F0BDA5F1EE
:104BF0000305B5FA85F56D099D42E4D80023656883
:104C0000236063601DB16B68013B6B6013B10020D2
:104C100003B0F0BD2B681C4A9B68934224D1AB685B
:104C2000013BAB60002BF2D12B681849DA688A424D
:104C300022D15B6828469847E9E701939047019B9A
:104C4000BEE73368104A9B68934212D1B368013BB8
:104C5000B360002BC7D133680C49DA688A420ED1A1
:104C60005B6830469847BEE728469847D7E701205B
:104C7000CEE730469847E9E728469047C7E73046F1
:104C80009047B0E721270000F1000000F500000088
:104C9000F0B5154602684C4F83B0126804460E46C4
:104CA000BA4247D101298CBF0020012000282CD016
:104CB000ABB1002E42D034346E6818CCB4422B60B5
:104CC0000AD014B163680133636026B17368013B95
:104CD0007360002B36D06C60012003B0F0BD002E55
:104CE0002ED02C346E6818CCB4422B60F4D014B1A2
:104CF00063680133636026B17368013B7360002B06
:104D000033D001206C6003B0F0BD6C68286068602F
:104D10006CB16368013B63604BB923682B4A9B68A5
:104D2000934244D1A368013BA360002B30D0002004
:104D300003B0F0BD01939047019BB7E72C34BBE76C
:104D40003434CFE73368214A9B6893422CD1B3684F
:104D5000013BB360002BBED133681D49DA688A423B
:104D600028D15B6830469847B5E73368174A9B6897
:104D7000934216D1B368013BB360002BC1D13368B5
:104D80001349DA688A4218D15B6830469847B8E719
:104D900023680F49DA688A4212D15B682046984737
:104DA000C5E730469847E5E730469847CFE72046C5
:104DB0009847B7E7304690478DE730469047A0E7E1
:104DC00020469047B3E700BFBD270000F100000078
:104DD000F5000000F0B514460268474F83B0126832
:104DE00005460E46BA4236D1C81E18BF0120E0B1B2
:104DF0002A6D022A19D023B3012E65D035D3022E95
:104E00001CD16B6E6668AD6E2360B5420AD015B1D9
:104E10006B6801336B6026B17368013B7360002BD4
:104E20003DD06560012003B0F0BD002365682360BC
:104E300063601DB16B68013B6B60EBB1002003B098
:104E4000F0BD66B9002A3DD15C35666828CDB54213
:104E50002360DCD1E6E701939047019BC7E7012E71
:104E600039D0022EEAD1012AE8D16B6D6668AD6DAA
:104E70002360B542CBD1D5E72B68204A9B6893428B
:104E800030D1AB68013BAB60002BD7D12B681C49FC
:104E9000DA688A422CD15B6828469847CEE73368A7
:104EA000164A9B6893421AD1B368013BB360002B4A
:104EB000B7D133681249DA688A4216D15B68304646
:104EC0009847AEE76435C0E7EB6D66682D6E2360EA
:104ED000B5429CD1A6E7002AC7D01846AFE73046B6
:104EE0009847E1E728469847CBE73046904798E750
:104EF00028469047A2E700BF69280000F1000000A3
:104F0000F5000000F0B50E688DB000240127766B27
:104F100008AD0093129B0694019304AB0A940446D7
:104F200003970295B0470A9B1BB1032229462846E6
:104F30009847069B1BB104A90322084698472046C0
:104F40000DB0F0BD2DE9F04B89468CB01C46002118
:104F500080469B68D9F800009346069104AD466BE5
:104F6000159F3BB10222214628469847E268A36874
:104F700007920693149A0020012308AC0092494638
:104F80000A905A46039340462B4601970294B04735
:104F90000A9B1BB10322214620469847069B1BB162
:104FA000032229462846984740460CB0BDE8F08BBE
:104FB0002DE9F04F8DB0884606460021179C934698
:104FC000D8F800009A46D4F8089008AD476B0691CF
:104FD0000A91B9F1000F07D0022221462846C8479E
:104FE000E168A2680B910A92169B012002955A462D
:104FF0000193414604AB0390CDF800A03046B8477A
:105000000A9B1BB10322294628469847069B1BB1E1
:1050100004A903220846984730460DB0BDE8F08F3A
:105020008183704770B586B00B684A68044602AD4C
:1050300019461A446846009504F10C06FFF77AFCFD
:10504000009B20460F49019A40F8041B19461A4458
:105050006660FFF76FFC00980023A842A3832362D9
:1050600001D01BF03FFD0023074920466362A36285
:10507000E362236363632160A363E363236406B095
:1050800070BD00BF680C0020380A002070B586B0E3
:105090000B684A68044602AD19461A4468460095F2
:1050A00004F10C06FFF746FC009B20461049019ACC
:1050B00040F8041B19461A446660FFF73BFC009851
:1050C0000023A842A383236201D01BF00BFD002321
:1050D000084920466362A362E36223636363A363B8
:1050E000E363216023646364A36406B070BD00BF02
:1050F000680C0020000C0020F0B587B0D1F804E067
:1051000015460A68044602AE1146684672441F46B8
:105110000096FFF70FFC2046194A009B04F10C0192
:1051200040F8042B019A616019461A44FFF702FC0B
:1051300000980023B042A383236201D01BF0D2FC6D
:105140000023104A6362A36263632260AB6843B1C9
:105150000222294604F12C009847EA68AB68A26352
:1051600063630023204684F84C70636423656365A1
:10517000A365E36523666366A36607B0F0BD00BF61
:10518000680C0020BC090020036D8B4201D1022075
:105190007047836AF0B50E4685B00446002B35D0C3
:1051A0005A68002A32D0406A0132616B01965A6017
:1051B0000290039300292BD0A36B01AA02A904F14A
:1051C0002C009847039F05461FB17B68013B7B601D
:1051D0001BB12846266505B0F0BD3B680D4A9B68AB
:1051E00093420DD1BB68013BBB60002BF1D13B6802
:1051F0000949DA688A4206D15B6838469847E8E789
:1052000038469847EEE738469047E2E71AF066F9E5
:1052100023F0D4FEF1000000F5000000006D70479F
:10522000B0FA80F040097047036D022B04D0002BC8
:105230000CBF01200220704703207047F8B50446D8
:10524000084616460F464CF0CBFB0023054604F1FA
:10525000080263602046237271682260294438F096
:105260002FF962686FF000439B1A9D420BD82A46C3
:105270003946204638F0C0FA204696E8060038F055
:10528000BBFA2046F8BD014823F010FE000B0020B9
:105290002DE9F04FA3B080460C462C9D9DF8BCA094
:1052A000002A40F0D0809946CB6A002B40D0496854
:1052B0000DF1180BA26804A8CDF810B00A44FFF74E
:1052C00039FB04AA0AA89649FFF7B8FF0B9A6FF0BA
:1052D00000439B1A142B40F2F9810AA81522914928
:1052E0001EAF38F089FA86461C9706465EF8083BE2
:1052F000734500F0CC811C9383681E937268002371
:105300001CA81D92C6F800E07360337201F05EFACB
:105310001C98B84201D01BF0E5FB0A980CAB9842F0
:1053200001D01BF0DFFB0498584501D01BF0DAFBDD
:10533000276B95E84800BE42E3620BD016B1736854
:10534000013373602FB17B68013B7B60002B00F061
:10535000BB802663A36A002B00F0B6815A68002A3E
:1053600000F0B281616A01325A600B930A91BAF17E
:10537000000F40F03181D9F8083033B321680A9A20
:105380000B9B4E6A1692179313B15A6801325A60FA
:10539000002749461CA804AB16AAD9F80CA004970C
:1053A000D04720463A461CA9B0471D9C2CB16368E3
:1053B000013B6360002B00F0FB80179C2CB16368FD
:1053C000013B6360002B00F0DF802E9B9B68002B6D
:1053D00026D02C686B682268566A1694179313B10E
:1053E0005A6801325A602D9B1CA816AA2E99109358
:1053F0002E9BDF6810ABB84720462D9A1CA9B047FA
:105400001D9C2CB16368013B6360002B00F0A780FA
:10541000179C2CB16368013B6360002B00F08A800D
:105420000B9C24B16368013B6360002B62D095E85C
:105430000C0088E80C0013B15A6801325A604046EB
:1054400023B0BDE8F08F49680DF14809A26810A8A3
:10545000CDF840900A44FFF76DFA10AA16A830491B
:10546000FFF7ECFE179A6FF000439B1A0C2B40F2EB
:105470002D8116A80D222C491EAF38F0BDF9064625
:105480001C97044656F8083BB34200F00C811C936D
:1054900083681E93626800231CA81D9226606360C7
:1054A000237201F093F91C98B84201D01BF01AFB4B
:1054B000169818AB984201D01BF014FB1098484581
:1054C000B5D01BF00FFBB2E73B68184A9B689342CC
:1054D00040F0CE80BB68013BBB60002B7FF439AF4E
:1054E0003B681349DA688A4240F09D805B68384621
:1054F00098472EE723680D4A9B68934240F0B58099
:10550000A368013BA360002B91D123680849DA68A6
:105510008A4240F0D0805B682046984787E700BF0A
:10552000180B00202C0B0020440B0020F100000081
:10553000F50000002368674A9B68934240F09E8014
:10554000A368013BA360002B7FF46AAF2368624924
:10555000DA688A426DD15B682046984760E7236825
:105560005C4A9B68934240F08680A368013BA3603D
:10557000002B7FF44DAF23685749DA688A4255D132
:105580005B682046984743E72368524A9B689342EA
:1055900077D1A368013BA360002B7FF416AF23688B
:1055A0004D49DA688A424AD15B68204698470CE741
:1055B0002368484A9B68934266D1A368013BA36075
:1055C000002B7FF4FAAE23684349DA688A4233D16C
:1055D0005B6820469847F0E6296800200DF1280E08
:1055E0001CAF0A6816AB566B18901E900390019082
:1055F00010A82D9A0297CDF800E0B047119E1EB179
:105600007368013B7360EBB11E9B1BB103223946EB
:1056100038469847189B002B3FF4ADAE16A90322DD
:1056200008469847A7E63846904792E620469047B6
:10563000EEE620469047F3E620469047BDE620463A
:105640009047C2E63368234A9B68934236D1B368D9
:10565000013BB360002BD7D133681F49DA688A4217
:105660002FD15B6830469847CEE72046984747E7FA
:10567000384698472EE72046984776E720469847D1
:105680005EE72046984784E72046984795E7BC4662
:10569000DEF80000DEF80410DEF80820DEF80C303A
:1056A000ACE80F002AE6BE4630687168B268F3685D
:1056B000AEE80F00EEE620469047B8E63046984741
:1056C000C5E7304690479FE719F008FF034823F0ED
:1056D000EDFB00BFF1000000F5000000000B002012
:1056E0002DE9F04F022AB3B00C4605903C9D9DF881
:1056F000FC9000F0788116469846002A7DD0012A59
:1057000000F0C081A36A002B00F0B3825A68002A1F
:1057100000F0AF82616A01325A601B931A91B9F1AD
:10572000000F40F03481D8F8083033B321681A9A5A
:105730001B9BD1F824902692279313B15A6801320B
:105740005A6041462CA814AB26AA1496D8F80CA08F
:10575000D047204632462CA9C8472D9C2CB16368FF
:10576000013B6360002B00F0FC80279C2CB1636838
:10577000013B6360002B00F0DE803E9B9B68002BAA
:1057800027D02C686B682268566A2694279313B139
:105790005A6801325A603D9B2CA826AA20933E9B52
:1057A0001946D3F80C8020ABC04720463D9A2CA95F
:1057B000B0472D9C2CB16368013B6360002B00F067
:1057C000A480279C2CB16368013B6360002B00F030
:1057D00086801B9C24B16368013B6360002B69D009
:1057E000059895E80C000260436013B15A680132D5
:1057F0005A60059833B0BDE8F08FCB6A002B45D0D6
:1058000049680DF1580AA26814A8CDF850A00A44BE
:10581000FFF790F814AA1AA89549FFF70FFD1B9AF5
:105820006FF000439B1A142B40F225821AA8152210
:1058300090490DF1B80B37F0DFFF8446CDF8B0B0DA
:1058400086465CF8083B634500F0DC812C93836856
:105850002E93DEF8042000232CA82D92CEF800C051
:10586000CEF804308EF8083000F0B0FF2C98584580
:1058700001D01BF037F91A981CAB984201D01BF0ED
:1058800031F91498504501D01BF02CF9226B95E8A2
:105890000A009342E1623FF435AF13B15968013118
:1058A00059602AB1516801395160002900F04581E1
:1058B000236327E72368704A9B68934240F06D8119
:1058C000A368013BA360002B8AD123686B49DA6887
:1058D0008A4240F08E815B682046984780E72368C3
:1058E000654A9B68934240F05B81A368013BA360DB
:1058F000002B7FF46EAF23686049DA688A4240F07B
:105900007B815B682046984763E723685A4A9B6817
:10591000934240F04881A368013BA360002B7FF4D1
:1059200050AF23685549DA688A4240F068815B6865
:105930002046984745E723684F4A9B68934240F0CA
:105940003581A368013BA360002B7FF416AF236869
:105950004A49DA688A4240F063815B68204698478A
:105960000BE72368444A9B68934240F02281A36876
:10597000013BA360002B7FF4F8AE23683F49DA684F
:105980008A4240F04A815B6820469847EDE62968E4
:1059900000200DF1680E0DF1B0090A6826ABD2F8AF
:1059A00034A028902E90039020A83D9A0196CDF81F
:1059B0000890CDF800E0D047219B2BB15A68013AFE
:1059C0005A60002A00F0D0802E9B1BB1032249466A
:1059D00048469847289B002B3FF4A5AE26A90322F2
:1059E000084698479FE649680DF12808A26808A86C
:1059F000CDF820800A44FEF79DFF08AA0EA81C4996
:105A0000FFF71CFC0F9A6FF000439B1A112B40F21A
:105A100032810EA812221A490DF1B80B37F0ECFEB4
:105A20000646CDF8B0B0044656F8083BB34200F045
:105A3000FE802C9383682E93626800232CA82D92FD
:105A400026606360237200F0C1FE2C98584501D097
:105A50001BF048F80E9810AB984201D01BF042F8AA
:105A6000089840453FF4BCAE1BF03CF8B8E600BFD8
:105A7000540B00202C0B0020F1000000F50000006A
:105A8000680B00204B6B002B44D0496822ABA26806
:105A900020A820930A44FEF74DFF20AA26A87749A4
:105AA000FFF7CCFB279A6FF000439B1A142B40F2B0
:105AB000E28026A8152272490DF1B80B37F09CFE42
:105AC0008246CDF8B0B086465AF8083B534500F000
:105AD000C0802C9383682E93DEF8042000232CA82A
:105AE0002D92CEF800A0CEF804308EF8083000F0E9
:105AF0006DFE2C98584501D01AF0F4FF269828AB7B
:105B0000984201D01AF0EEFF209822AB984201D0C3
:105B10001AF0E8FFA26B95E80A00934261633FF434
:105B2000F1AD13B159680131596022B151680139A1
:105B30005160002940D0A363E4E5116851488968A9
:105B400081424FD191680139916000297FF4B0AE54
:105B500011684D48D1F80CA00693824563D149687D
:105B600010468847069BA3E61A68464992688A420F
:105B70000ED19A68013A9A60002A7FF425AF1A681C
:105B80004148D168814261D15268184690471BE76D
:105B9000184606939047069BEBE7204698478FE60A
:105BA00020469847A1E620469847B4E62046984705
:105BB000C7E620469847DAE611683248896881428C
:105BC0003DD19168013991600029B4D111682E4806
:105BD000D1F80CA00693824547D149681046884702
:105BE000069BA8E70793104606928847079B069AEC
:105BF000A8E720469047F3E520469047E9E5204690
:105C00009047DEE55F46DCF80000DCF80410DCF8C5
:105C10000820DCF80C300FC71BE620469047A4E5AF
:105C200020469047A9E51046D047069B40E6DE4651
:105C300030687168B268F368AEE80F00FCE607935D
:105C4000104606928847079B069ABAE71846884787
:105C5000BAE6DC46DAF80000DAF80410DAF80820D0
:105C6000DAF80C30ACE80F0036E71046D047069B58
:105C700061E719F033FC054823F018F9540B0020B4
:105C80007C0B0020F1000000F5000000000B00205C
:105C90002DE9F04FB3B0994606460C469DF8FC300E
:105CA00090463C9D0593002A40F0B2804B6D002B3E
:105CB00045D049680DF1280AA26808A8CDF820A0AF
:105CC0000A44FEF737FE08AA0EA84E49FFF7B6FAB7
:105CD0000F9A6FF000439B1A142B40F299820EA882
:105CE000152249490DF1B80B37F086FD8446CDF8F1
:105CF000B0B086465CF8083B634500F041822C93C7
:105D000083682E93DEF8042000232CA82D92CEF871
:105D100000C0CEF804308EF8083000F057FD2C9803
:105D2000584501D01AF0DEFE0E9810AB984201D013
:105D30001AF0D8FE0898504501D01AF0D3FEA26D93
:105D400095E80A00934261650BD013B1596801319F
:105D500059602AB1516801395160002900F0D081A1
:105D6000A365059B002B40F0B680D9F808307BB1C5
:105D7000264A2EAC2CA8A2F11F012C94FEF7DAFDC6
:105D80002CA806F063FD2C98A04201D01AF0AAFEC0
:105D90003E9B9B68002B28D02C686B682268D2F849
:105DA00024802694279313B15A6801325A603D9B90
:105DB0002CA826AA20933E9B1946D3F80C9020AB22
:105DC000C84720463D9A2CA9C0472D9C2CB163683A
:105DD000013B6360002B00F0EC80279C2CB16368D2
:105DE000013B6360002B00F0CE8095E80C0086E854
:105DF0000C0013B15A6801325A60304633B0BDE826
:105E0000F08F00BF940B00202C0B0020E30B002030
:105E1000012A00F0E4804B6E002B45D049680DF15B
:105E2000880AA26820A8CDF880A00A44FEF782FD67
:105E300020AA26A8A349FFF701FA279A6FF000438A
:105E40009B1A142B40F2E48126A815229E490DF1DD
:105E5000B80B37F0D1FC8446CDF8B0B086465CF87C
:105E6000083B634500F0A4812C9383682E93DEF8F1
:105E7000042000232CA82D92CEF800C0CEF80430C8
:105E80008EF8083000F0A2FC2C98584501D01AF08A
:105E900029FE269828AB984201D01AF023FE2098BC
:105EA000504501D01AF01EFEA26E95E80A009342FA
:105EB00061663FF456AF13B15968013159602AB198
:105EC000516801395160002900F0E480A366059B08
:105ED000002B3FF44AAFA36A002B00F09C815A6864
:105EE000002A00F09881D4F824E0013229680020CB
:105EF0000DF1B00A0C685A60CDF868E00DF1680E3B
:105F00001B9326AB646B3D9A28902E90039020A89B
:105F1000CDF80480CDF808A0CDF800E0A047219C82
:105F20002CB16368013B6360002B00F0D5802E9B91
:105F30001BB10322514650469847289B1BB126A906
:105F40000322084698471B9C002C3FF40EAF636861
:105F5000013B6360002B7FF408AF23685B4A9B68BA
:105F6000934240F01F81A368013BA360002B7FF4A4
:105F7000FCAE23685649DA688A4240F036815B6895
:105F800020469847F1E62368504A9B68934240F0C8
:105F9000D180A368013BA360002B7FF426AF236868
:105FA0004B49DA688A4240F0E5805B6820469847B2
:105FB0001BE72368454A9B68934240F0B880A3687A
:105FC000013BA360002B7FF408AF23684049DA68E7
:105FD0008A4240F0D2805B6820469847FDE6CB6D50
:105FE000002B44D0496816ABA26814A814930A4445
:105FF000FEF7A0FC14AA1AA83249FFF71FF91B9A52
:106000006FF000439B1A142B40F202811AA815224C
:1060100030490DF1B80B37F0EFFB8246CDF8B0B048
:1060200086465AF8083B534500F0E2802C9383687B
:106030002E93DEF8042000232CA82D92CEF800A089
:10604000CEF804308EF8083000F0C0FB2C9858458C
:1060500001D01AF047FD1A981CAB984201D01AF0F3
:1060600041FD149816AB984201D01AF03BFD226E08
:1060700095E80A009342E1653FF473AE13B15968A5
:106080000131596022B1516801395160002954D061
:10609000236666E611680D48896881427BD1916864
:1060A0000139916000297FF411AF11680848D1F8D7
:1060B0000CA00693824540F08A80496810468847C4
:1060C000069B03E7940B0020AC0B0020F1000000BE
:1060D000F50000007C0B00202368504A9B68934227
:1060E00063D1A368013BA360002B7FF420AF23683A
:1060F0004B49DA688A4275D15B682046984716E7B3
:1061000011684648896881422DD1916801399160B2
:1061100000297FF425AE11684148D1F80CA0069300
:10612000824550D1496810468847069B18E62046AC
:10613000984744E7204698472BE711683748896815
:10614000814248D19168013991600029A0D111683C
:106150003348D1F80CA00693824555D149681046C2
:106160008847069B94E70793104606928847079B4B
:10617000069ACAE72046904737E6204690472CE625
:106180005F46DCF80000DCF80410DCF80820DCF8DE
:106190000C300FC7B6E50793104606928847079B59
:1061A000069A7CE720469847DDE62046984798E720
:1061B0005F46DCF80000DCF80410DCF80820DCF8AE
:1061C0000C300FC753E61046D047069BC8E5104673
:1061D000D047069B7AE60793104606928847079BAE
:1061E000069AAFE720469047A1E620469047BCE5D7
:1061F000DC46DAF80000DAF80410DAF80820DAF8F9
:106200000C30ACE80F0014E71046D047069B3FE780
:10621000044822F04BFE19F061F900BFF1000000C4
:10622000F5000000000B00200B689A8B2DE9F0436D
:1062300087B022B90424204607B0BDE8F0831C686B
:1062400001AF0022064604971846039769467A6014
:106250000592019223699847039DBD422DD0DFF836
:10626000B480DFF8B49005E028461BF0C7FBB842C5
:10627000054622D06C692A6914B1636801336360F2
:10628000964223D0002CEFD06368013B6360002B63
:10629000EAD123689B6843450CD1A368013BA36006
:1062A000002BE1D12368DA684A4529D15B68204692
:1062B0009847D9E720469847EFE7042468460299B3
:1062C000FCF740FD204607B0BDE8F0831CB16368D1
:1062D000013B63600BB10024F0E723680D4A9B6823
:1062E000934210D1A368013BA360002BF3D1236834
:1062F0000949DA688A4209D15B6820469847EAE78B
:1063000020469047B0E720469847EBE72046904765
:10631000E1E700BFF1000000F500000030B5C26AFF
:1063200083B0036B8DE80C0013B15A6801325A60D8
:106330006946FFF779FF019C05461CB16368013B84
:10634000636013B1284603B030BD23680B4A9B68D5
:1063500093420DD1A368013BA360002BF2D12368C7
:106360000749DA688A4206D15B6820469847E9E720
:1063700020469847EEE720469047E3E7F10000000B
:10638000F500000030B5C26A85B0036B04468DE8A5
:106390000C0013B15A6801325A6069462046FFF773
:1063A00043FFE0B10425019C1CB16368013B6360BD
:1063B00013B1284605B030BD2368244A9B68934238
:1063C00038D1A368013BA360002BF2D12368204998
:1063D000DA688A4237D15B6820469847E9E7626B02
:1063E000A36B0292039313B15A6801325A6020469C
:1063F00002A9FFF719FF039C00280CBF0025042504
:10640000002CD0D06368013B6360002BCBD12368A4
:106410000E4A9B68934213D1A368013BA360002BF3
:10642000C1D123680A49DA688A4206D15B682046EE
:106430009847B8E720469847C3E720469047B2E719
:1064400020469847E8E720469047B2E7F100000071
:10645000F500000030B5426D87B0836D04468DE8CD
:106460000C0013B15A6801325A6069462046FFF7A2
:10647000DBFEE0B10425019C1CB16368013B636055
:1064800013B1284607B030BD23683C4A9B6893424D
:1064900061D1A368013BA360002BF2D12368384986
:1064A000DA688A4260D15B6820469847E9E7E26D86
:1064B000236E0292039313B15A6801325A6002A903
:1064C0002046FFF7B1FED8B10425039C002CD2D0A2
:1064D0006368013B6360002BCDD12368274A9B682A
:1064E00093423ED1A368013BA360002BC3D1236834
:1064F0002349DA688A4231D15B6820469847BAE777
:10650000626EA36E0492059313B15A6801325A6009
:10651000204604A9FFF788FE059C00280CBF002533
:106520000425002CD1D06368013B6360002BCCD1E3
:106530002368124A9B68934219D1A368013BA36068
:10654000002BC2D123680E49DA688A4212D15B68F7
:1065500020469847B9E7204698479AE72046904753
:1065600089E720469847BDE72046904789E72046BF
:106570009847E2E720469047A7E700BFF1000000F8
:10658000F50000002DE9F0478C680E46074690465E
:1065900001F10409A4B1156800E01C462169A94273
:1065A0008CBFA368E368002BF7D1A94209D88D42BC
:1065B000204611D80023386038463B71BDE8F0878B
:1065C0004C46F368A34207D020461BF031FAD8F8B6
:1065D000005001698D42EDD9A14523D0D8F80020A3
:1065E00023699A422CBF4FF0000A4FF0010A18208D
:1065F0001AF074FA054698E80C000261436113B181
:106600005A6801325A604B462246504629461BF0D2
:1066100011FA736901223D60384613443A7173617F
:10662000BDE8F0874FF0010AE1E700BF00B583B095
:1066300000F12C026846FFF7A5FF03B05DF804FBEC
:1066400030B583B004460D4600F12C026846FFF7D2
:1066500099FF04F1340229466846FFF793FF03B01F
:1066600030BD00BF30B583B004460D4600F1540282
:106670006846FFF787FF04F15C0229466846FFF78A
:1066800081FF04F1640229466846FFF77BFF03B0EF
:1066900030BD00BF03791BB9012303711846704751
:1066A0000020704700230371704700BF012070472E
:1066B000704700BF704700BF22B1012A00D10160BE
:1066C00000207047014B0360002070475C0D0020E4
:1066D000704700BFC36910B5044623B100F114012F
:1066E000032208469847206918B18368013B8360FC
:1066F00003B110BD0368BDE81040DB68184700BF58
:1067000010B5044628211AF0F1F9204610BD00BF4B
:106710001AF0E8B90B46054910B5044618461AF0B8
:10672000F3FF08B104F10C0010BD00BF0C02002003
:1067300070B5054682B00E4619B912B1114822F063
:106740009DFB941B0F2C01940AD82B68012C184632
:1067500014D06CB9019A00216A60995402B070BDDE
:10676000002201A9284636F089FD019B2860AB6014
:106770002246314618F056F92B68EBE732781A704A
:106780002B68E7E7A803002038B5446805461CB12C
:106790006368013B63600BB1284638BD236820461F
:1067A0009B689847A368013BA360002BF4D1236842
:1067B0002046DB689847284638BD00BF02490022C2
:1067C00001600271704700BF4C0D002006F02EB82A
:1067D00000F10803044A10B5044603601146FFF7B0
:1067E000A7FF204610BD00BFE41A002000F10803F7
:1067F0004A6810B50360044609680A44FFF798FF29
:10680000204610BD2DE9F04FBFB05B4D0446002778
:106810001CA801911DF0FCF86B68A8680CAA8DF803
:10682000E470394653F80CEC04F1080B0C93039315
:10683000524B009002EB0E001C93514E009B389778
:1068400006F1140A8DF8E5703A973B973C973D970F
:10685000DFF8308142F80E30029237F02FF914A899
:106860000E970F9710971197129713970C96CDF8D4
:1068700070A0CDF834801CF065F81023DFF8089183
:106880001CA80DA9159318AB179716938DF8607077
:10689000CDF8349037F012F9029A3EA99DF80430F1
:1068A0001046012201F8E13D39F06AFF129A676053
:1068B0002772C4F800B0002A55D0109808AB11997F
:1068C00082420693009398BF024606A8FFF730FF66
:1068D0000699009B2268994235D0934507983AD093
:1068E000089F60602160A068A760002A37D00692E8
:1068F00008900021079111700698984201D01AF073
:10690000F1F8D5F804B0AD68169818AB0C9698421B
:10691000CDF870A0CDF8349001D01AF0E3F814A8A7
:10692000CDF834801BF0C0F95BF80C3C3EAA1CA8E3
:10693000134443F8C85C114B1C931DF0BFF820466C
:106940003FB0BDE8F08F06A92046009336F0E0FC8A
:10695000069A009BCDE72160089A6060A2600693CA
:1069600008AB1A46C5E716A92046009DDDF80CB015
:1069700036F0CEFCC8E700BF285F0020AC7C0020CA
:10698000445F00202C860020C85E002038B500F14E
:10699000080304460D46036049B108464BF020F851
:1069A00029462A182046FFF7C3FE204638BD204658
:1069B0004FF0FF322946FFF7BBFE204638BD00BF2F
:1069C00010B50446052935D8DFE801F00D1620344E
:1069D0002A0300F108031C4A0360A2F11601FFF725
:1069E000A7FE204610BD00F10803184A0360911E5F
:1069F000FFF79EFE204610BD00F10803144A036015
:106A0000A2F10D01FFF794FE204610BD00F108032E
:106A1000104A0360A2F10A01FFF78AFE204610BD6A
:106A200000F108030C4A0360A2F11001FFF780FE99
:106A3000204610BD00F10803084A0360A2F11301CB
:106A4000FFF776FE204610BDAE0D0020660D00203B
:106A5000950D0020720D0020840D0020C30D002034
:106A6000F0B500231E4D85B028202B606B601AF016
:106A700035F81C4F01231C4A1C4E044643606946EE
:106A8000836040F80C7B03960292FBF7CDFB029BE0
:106A90001BB10322694668469847236820466C600C
:106AA0001B69134998470E4B0446286060B15D6826
:106AB000206015B1AB680133AB60606818B18368C2
:106AC000013B83603BB165600A4A0B4904481AF0F8
:106AD00079FA05B0F0BD0368DB689847F3E700BFBB
:106AE00008CA00201C0D00209946000095460000B1
:106AF0000C020020E4BB0020694700000022026075
:106B00004260704780E80600704700BF0068704729
:106B10004068704770B5054682B00E4619B912B18B
:106B2000114822F0ABF9941B0F2C01940AD82B6862
:106B3000012C184614D06CB9019A00216A6099544E
:106B400002B070BD002201A9284636F097FB019BD8
:106B50002860AB602246314617F064FF2B68EBE7F4
:106B600032781A702B68E7E7A803002038B5514B3C
:106B70000446D0F80051036025B16B68013B6B609F
:106B8000002B4BD0D4F8F00008B119F0ABFF4A4A03
:106B9000E36F226023B104F1740103220846984791
:106BA000E36E23B104F16401032208469847E36DC4
:106BB00023B104F15401032208469847E36C23B142
:106BC00004F14401032208469847E36B23B104F122
:106BD0003401032208469847E36A23B104F12401F3
:106BE000032208469847E36923B104F11401032204
:106BF00008469847256925B16B68013B6B60002BFF
:106C000032D0A5681DB16B68013B6B60CBB12046EB
:106C10004FF4827119F06AFF204638BD2B68274A6D
:106C20009B68934233D1AB68013BAB60002BA9D189
:106C30002B682349DA688A4235D15B682846984731
:106C4000A0E72B681D4A9B68934226D1AB68013BA5
