:0200000460009A
:100000004643464200000156000000000103030081
:1000100000000000000000000000000000000000E0
:1000200000000000000000000000000000000000D0
:1000300000000000000000000000000000000000C0
:1000400000000000010408000000000000000000A3
:100050000000800000000000000000000000000020
:100060000000000000000000000000000000000090
:100070000000000000000000000000000000000080
:10008000EB04180A063204260000000000000000FD
:10009000050404240000000000000000000000002F
:1000A0000000000000000000000000000000000050
:1000B0000604000000000000000000000000000036
:1000C0000000000000000000000000000000000030
:1000D00020041808000000000000000000000000DC
:1000E0000000000000000000000000000000000010
:1000F0000000000000000000000000000000000000
:10010000D8041808000000000000000000000000F3
:100110000204180804200000000000000000000095
:1001200000000000000000000000000000000000CF
:10013000600400000000000000000000000000005B
:1001400000000000000000000000000000000000AF
:10015000000000000000000000000000000000009F
:10016000000000000000000000000000000000008F
:10017000000000000000000000000000000000007F
:10018000000000000000000000000000000000006F
:10019000000000000000000000000000000000005F
:1001A000000000000000000000000000000000004F
:1001B000000000000000000000000000000000003F
:1001C000000100000010000001000000000000001D
:1001D000000001000000000000000000000000001E
:1001E000000000000000000000000000000000000F
:1001F00000000000000000000000000000000000FF
:10020000FFFFFFFFFFFFFFFFFFFFFFFFFFFFFFFFFE
:10021000FFFFFFFFFFFFFFFFFFFFFFFFFFFFFFFFEE
:10100000D10020432914006000000000000000000F
:10101000201000600010006000A0076000000000C9
:101020000000006000AC070000000000FFFFFFFFB1
:10103000FFFFFFFFFFFFFFFFFFFFFFFFFFFFFFFFC0
:10104000FFFFFFFFFFFFFFFFFFFFFFFFFFFFFFFFB0
:10105000FFFFFFFFFFFFFFFFFFFFFFFFFFFFFFFFA0
:10106000FFFFFFFFFFFFFFFFFFFFFFFFFFFFFFFF90
:10140000884207D0904205D251F8043B40F8043B93
:101410008242F9D8704700BF884204D2002340F8C6
:10142000043B8142FBD8704710B5504B504A5A6478
:10143000504A1A644FF42A029A634F4B9D46BFF3F9
:101440004F8FBFF36F8F00F039F908224B4BC3F871
:1014500054214B4A4B494C48FFF7D2FF4B4A4C4969
:101460004C48FFF7CDFF4C494C48FFF7D5FF4FF4F0
:1014700070024B4B1A60002304E04A494A4A42F882
:1014800023100133AF2BF8D9002303E08021474A12
:10149000995401339F2BF9D9454B434A1A6000F008
:1014A000F9F8444A136843F4E0231360424CE369BB
:1014B00023F07F0343F04003E361636A23F07F037B
:1014C00043F040036362294B4FF0FF329A66DA66BD
:1014D0001A675A6700F0F8F800F04AFC00F0B2FA18
:1014E00000F0D8F8354800F047FCE36E43F4405371
:1014F000E366334B00221A60C3F80821C3F81821B1
:10150000C3F82821C3F8382103F5A0239B6B13F0FF
:10151000010F09D12B4B2C4A5A6542F615621A6508
:101520009A6B42F001029A63264A936843F00113D2
:10153000936000F039F900F04BF800F001FC00F086
:10154000B5FA00F0BDF8214B1B68132BFBD900F056
:1015500049FB1E4B1B68B3F5967FFAD300F0B2F837
:1015600000F0F2FB00F0FCFB30BFFDE700C00A40DA
:10157000FFFFFFAB070020000080012000800D402E
:10158000C0730600201F006000000000F4C40020AB
:101590002DB30660000000206043012010EB002006
:1015A00088ED00E0197702000020012000E400E04F
:1015B00008ED00E024ED00E000C00F400046C3232A
:1015C0000040084000400D400000C056F4010120DA
:1015D000144BDA6E42F44032DA66DA6E42F440724C
:1015E000DA66A3F5603340F237625A64A0229A6447
:1015F00001220D4B1A700D4B9B6C13F0800FFAD12A
:101600000B4B40F237625A64A0229A640122064BC7
:101610001A70074B9B6C13F0800FFAD10022024B1B
:101620001A70704700C00F40E801012000400C40D4
:1016300000800C40094BC3F8A010000400F4702097
:10164000C3F8A4000122C3F8B020044B5B6913F077
:10165000010FFAD00122014B5A61704700402A4025
:101660000A4BC3F8A0000A4AC3F8A4200122C3F819
:10167000B020064B5B6913F0010FFAD0034BD3F88F
:10168000000121225A6180B2704700BF00402A4009
:1016900004000300064B4FF08032C3F804210549D3
:1016A000C3F80011C3F8F420034AC3F8F0207047D0
:1016B00000800D401B1018200C0D1113704700BF47
:1016C000704700BF704700BF10B4224C002020605C
:1016D000214A10231360214B214919601121116007
:1016E00020491960122111601F4919601F491160BA
:1016F0001F4919601F4911601F4919601F4941F0B6
:10170000150111601E49196001F181510D311160FF
:101710001C4919601C4911601C4919601C49116061
:101720001C4919601C4911601C4A1A60012323607E
:10173000BFF34F8FBFF36F8F194B1860BFF34F8FFD
:10174000BFF36F8F174A136843F4403313605DF89B
:10175000044B704794ED00E09CED00E0A0ED00E04C
:101760003F000010250008030900100013002000AE
:101770002100020714000020250008136043012007
:101780000900001027000B1317000040330010134E
:10179000180000602F000B07190000702F000B13BA
:1017A00050EF00E014ED00E010B582B08E4B8F4A90
:1017B000C3F85C228E49C3F86012C3F86422A2F514
:1017C0003042C3F8682202F5E042C3F86C22C3F845
:1017D0007022C3F87422C3F878221822DA661A67D6
:1017E0005A679A67DA67C3F88020C3F88420C3F881
:1017F000882003F580630122C3F82C23C3F830232B
:10180000C3F83423C3F83823C3F83C23C3F8502368
:10181000784B9A6978491140784A0A439A61D3F81B
:10182000842042F00C02C3F88420754A136843F008
:1018300002031360116821F4F14121F073010904DE
:10184000090C704B0B4313604FF0FF3353606E4C29
:10185000A16803F5770303F560530B4043F0005391
:101860009360D36823F07803D360136A674803401A
:1018700067490B431362136A184001435162654B79
:101880009362D362D4F8B83023F03F0343F00103EE
:10189000C2F8B830D4F8BC3023F03F0343F0010362
:1018A000C2F8BC30002313614FF4005414665A4848
:1018B000106740F20561C2F8801054665067C2F8A4
:1018C0008410116821F002011160544991610221D4
:1018D000D16104E00021524A42F8231001333F2B2A
:1018E000F8DD474A136843F001031360444B1B685B
:1018F00013F0010FFAD1424B484A9A610224DC618D
:1019000040F2F562C3F8002240F26642C3F81022AA
:1019100040F29942C3F82022424AC3F8302242F2F0
:101920000142C3F8342240F23542C3F840223E4A15
:10193000C3F850223D4AC3F854223D4AC3F86022FE
:1019400042F20122C3F8642200210846FFF772FE2A
:1019500000210120FFF76EFE00212046FFF76AFEFE
:101960000020FFF77DFE45F60D53984234D100214B
:101970000420FFF75FFE4FF400010020FFF75AFE3E
:101980004FF400010120FFF755FE4FF400012046FF
:10199000FFF750FE4FF40000FFF762FE45F60D53CF
:1019A000984208D14FF400010420FFF743FE1022B3
:1019B000204B1A7002E008221E4B1A701D4B1A7839
:1019C0001D49C1EB02520023009301231B4802442E
:1019D0001B4800F0C9F905E0194B00221A605A6053
:1019E0009A60DA6002B010BD00801F40F9B00100BB
:1019F000F910010000C00F40FFFCFF1F000300A012
:101A000000402A401200FFFF00802A4000FFF07CC7
:101A100040000080FF000F8363000200F05AF05A7C
:101A200000422A409F041830EB06180A06320126AD
:101A30003806180AF801012000000070000000704C
:101A4000C0220120184B1B6913F0020F0AD0164B5D
:101A50004FF440429A614FF480325A6143F242029D
:101A60009A61EFE713F4005F04D14FF400520E4B7C
:101A70005A61E7E713F4805F04D14FF480520A4BB8
:101A80005A61DFE7002BDDDA13F4803F04D04FF416
:101A90008032054B9A61D5E713F0400F03D1402205
:101AA000014B5A61CEE7704700800D4030B5404A87
:101AB000136823F001031360032313613D4BD3F834
:101AC000E030D8B23C4C2060C3F30B213B4D296081
:101AD0001B0D07EE903A07EE100AF8EE476AF3EE98
:101AE000094A36EEE46A364880ED006AF8EE677A15
:101AF00007EE101AB8EE477A77EEC77A3149C1ED92
:101B0000007ADFED315A76EEE56A67EEA67AC7EE27
:101B1000866A37EE267ABCEEC77A136817EE10EAAB
:101B200043EA0E531360D5ED007AF8EE677A94ED30
:101B3000007AB8EE477A9FED256A37EE466AD1ED16
:101B4000005A26EE256A90ED005AC6EE056A77EE39
:101B5000A66AFCEEE66A16EE903AD2F810011C492D
:101B600001EA03430343C2F8103137EE647A25EEED
:101B7000877AC7EE056A77EEA67AFCEEE77AD2F8A6
:101B8000101117EE903AC3F30B030B43C2F8103158
:101B9000136843F00203136000220E4B1A700E4AC2
:101BA0000E4BC3F8402101220D4B1A6030BD00BF1F
:101BB00080810D4000441F40FC01012008020120EB
:101BC00000020120040201200000AA420000B442E9
:101BD0000000FF0F40E400E00D790200002001202A
:101BE00008E100E038B540F66172304BC3F82021BF
:101BF00000F0A2F82E4AD2F8803043F00303C2F876
:101C0000803040F204422B4BC3F860212A4B1A6803
:101C10002A4B1A4205D1274BD3F8A83113F0030FF2
:101C20001BD04FF00042244B5A63224AD2F8403175
:101C300043F00203C2F840311E4BD3F8403113F099
:101C4000020FF9D14FF400321D4B1A604FF00042E1
:101C5000194B9A63192000F07BF8174B4FF0804224
:101C60009A6300211960134C0A23C4F8A831154D5A
:101C70004FF44072284600F06FF84FF481032B6058
:101C80004FF480032B64C4F8585140F24313C4F856
:101C900048310D4A0D4BC3F804224FF400320C4B6F
:101CA0001A600123C4F8403138BD00BF00800D40E8
:101CB00000C00F4000002E4000900D40001C1E0090
:101CC0008CE200E000400120697F0200002001203A
:101CD0000CE100E008B50F4B1B6E13F0020F01D1B1
:101CE000FBBE16E072B600220B4BC3F840210B4A34
:101CF000A3F50D131A64A3F1FF53A3F52B239D46FF
:101D0000BFF34F8F0648074B0360074B1B689B6868
:101D1000984700BF00441F4000002E4003002000F1
:101D200000802020000012EB1C002000F8B500BF4E
:101D3000F8BC08BC9E4670475FF800F011820200B4
:101D40005FF800F0497602005FF800F0A57B05001F
:101D50005FF800F0A17402005FF800F0BD86050096
:101D60005FF800F0C18E02005FF800F0E59302001A
:101D70005FF800F0B17602005FF800F0C171020078
:101D80004500000065070000654F0000F1DD000020
:101D9000997501002D7801002D7C01004921020078
:101DA000217002007D700200B9140300A99703009E
:101DB000791C0400315A0400A5A3040079D704005B
:101DC00018034400750061006C002000530065009A
:101DD0007200690061006C00180354006500650022
:101DE0006E00730079006400750069006E006F007A
:101DF0000403090409028D00040100C032080B002D
:101E0000020202010009040000010202010005248F
:101E10000010010524010101042402060524060026
:101E2000010705820310001009040100020A0000E6
:101E30000007050302400000070583024000000878
:101E40000B02020202010009040200010202010069
:101E500005240010010524010101042402060524C3
:101E60000602030705840310004009040300020A68
:101E7000000000070505024000000705850240003C
:101E80000000000009028D00040100C032080B00B0
:101E900002020201000904000001020201000524FF
:101EA0000010010524010101042402060524060096
:101EB000010705820310000509040100020A000061
:101EC0000007050302000200070583020002000864
:101ED0000B020202020100090402000102020100D9
:101EE0000524001001052401010104240206052433
:101EF0000602030705840310000509040300020A13
:101F00000000000705050200020007058502000227
:101F1000000000000A060002EF020140010001017A
:101F200000000000000000000000000000000000B1
:101F300000000000000000000000000000000000A1
:101F400010B5054C237833B9044B13B10448AFF3F3
:101F500000800123237010BD10EB00200000000062
:101F600094610600084B10B51BB108490848AFF34F
:101F700000800848036803B910BD074B002BFBD055
:101F8000BDE81040184700BF0000000014EB00201F
:101F900094610600F4C400200000000010B51A4C43
:101FA00040F6B831204617F017FB4FF4E1312046D8
:101FB00017F0D8FA0121204617F0BCFA60B1134897
:101FC00003685B681022124998470A21204617F0DF
:101FD00097FA204617F0C4FA0B4C01220021204644
:101FE00017F0A0FB0121204617F0A4FA40B10748E2
:101FF00003685B68062207499847204617F0B0FA45
:1020000015F064F810BD00BFDCF300205CBA0020BE
:10201000000000201400002008B510F0CFFC08BD1F
:102020002DE9F04780460C4615469946182028F0C1
:10203000DFFE074610F1100F07D0236903616369C3
:10204000436113B15A6801325A6023783B70002310
:10205000BB60FB607D60E16829B14B463A46404673
:10206000FFF7DEFFF860A5683E4605B3182028F0AC
:10207000BFFE044610F1100F07D02B6903616B6996
:10208000436113B15A6801325A602B7823700023E0
:10209000A360E360B4606660E96829B14B462246FC
:1020A0004046FFF7BDFFE060AD682646DDE73846F5
:1020B000BDE8F08770B582B004461646021D0023C5
:1020C000436083604361C2600261018300F11C05CB
:1020D00000F12002036243626B61EA602A61B16829
:1020E000B1B102AB43F8045D2A1D2846FFF798FF03
:1020F000A860024600E01A469368002BFBD1EA6014
:1021000000E01846C368002BFBD1286173696B613E
:10211000204602B070BD00BF30B583B0044601F167
:102120001C05031D0022426082604261C36003619E
:10213000A968A9B102AB43F8040D021DFFF770FFB7
:10214000A060024600E01A469368002BFBD1E260D3
:1021500000E01846C368002BFBD120616B69636106
:10216000204603B030BD00BF38B50446002383606D
:102170008B6833B10D4602229847EB68E360AB6889
:10218000A360204638BD00BF38B504460025056071
:1021900045600830FFF7E8FFA561204638BD00BF65
:1021A00008B583680BB931F0B5FAC368984708BD24
:1021B00010B50446044B0360C3681BB1043003220E
:1021C00001469847204610BD7400002010B5044613
:1021D000064B0360C3681BB10430032201469847D5
:1021E0002821204628F014FE204610BD740000204F
:1021F00038B50446002383608B6833B10D46022254
:102200009847EB68E360AB68A360204638BD00BF29
:1022100010B50446064B40F8043BFFF7E9FF10F009
:10222000C3F9C4E90601002384F82030204610BD1C
:102230007400002008B583680BB931F06BFAC368ED
:10224000984708BD08B590F820302BB900F1180167
:102250000430FFF7EFFF08BD012008BD20B108B52D
:1022600003685B68984708BD704700BF014B036077
:10227000704700BF7C02002008B503691B6810305E
:10228000984708BD70B504460D46002686600C20B0
:1022900028F0AEFD2B6803606B686E6043602E60B3
:1022A000AB6883602060034BE360034BA360204670
:1022B00070BD00BF45040000B903000010B504461E
:1022C0000846044929F05AFC10B104F1100010BD71
:1022D000002010BD0C02002038B50446032A31D876
:1022E000DFE802F002050818174B03602AE00B68CC
:1022F000036027E00D680C2028F07AFD2B6803604E
:102300006B68436013B15A6801325A60AB688360EE
:10231000206017E00568ADB16C687CB16368013B73
:1023200063605BB923689B6820469847A368013BBC
:10233000A3601BB92368DB68204698470C21284618
:1023400028F066FD002038BD5003002010B504467B
:10235000034B0360382128F05BFD204610BD00BF11
:102360007C02002008B503689968186803F0BAF881
:1023700008BD00BF08B5034B036008B128F040FD5D
:1023800008BD00BF7C020020014B0360704700BF06
:102390009802002038B50446002383608B6833B16F
:1023A0000D4602229847EB68E360AB68A3602046C5
:1023B00038BD00BF38B50446002383608B6833B155
:1023C0000D4602229847EB68E360AB68A3602046A5
:1023D00038BD00BF38B50446002383608B6833B135
:1023E0000D4602229847EB68E360AB68A360204685
:1023F00038BD00BF38B50446002383608B6833B115
:102400000D4602229847EB68E360AB68A360204664
:1024100038BD00BF38B50446002383608B6833B1F4
:102420000D4602229847EB68E360AB68A360204644
:1024300038BD00BF38B504461D461E4B03600B680F
:1024400043604B68836013B1596801315960136868
:10245000E3605368236113B15A6801325A60294618
:1024600004F11400FFF796FF05F1100104F12400B8
:10247000FFF7A0FF05F1200104F13400FFF7AAFFE8
:1024800005F1300104F14400FFF7B4FF05F140010C
:1024900004F15400FFF7BEFF05F1500104F16400A0
:1024A000FFF7B8FF05F1600104F17400FFF75CFE6F
:1024B000204638BDAC02002010B584B08DF80F2046
:1024C0008DF80E3083680BB931F024F907AB019316
:1024D00006AB0093C4680DF10E030DF10F02A04787
:1024E00004B010BD38B504460D46382028F080FCF5
:1024F00025606060204638BD70B590B0C6680B6836
:1025000006934B68079313B15968013159600892DB
:1025100000230493059301A902A8FFF7E3FF039C9E
:10252000002C2FD001236360A3602546304B45F873
:10253000103B069B0993079B002207920A93089B76
:102540000B9309A90CA8FFF79DFE1DB10CA9284605
:10255000FFF75EFE0E9B1BB103220CA908469847AD
:102560000A9D7DB16B68013B6B605BB92B689B6812
:1025700028469847AB68013BAB601BB92B68DB680A
:102580002846984705942CB123681B6919492046B1
:10259000984700E0002010A941F8300D304601F0C6
:1025A000D9F8059C7CB16368013B63605BB9236823
:1025B0009B6820469847A368013BA3601BB923682A
:1025C000DB6820469847079C7CB16368013B6360E9
:1025D0005BB923689B6820469847A368013BA360CA
:1025E0001BB92368DB682046984710B070BD00BF58
:1025F000D40200200C020020024A02600022426045
:10260000704700BFBC0300204068022814BF0020B0
:1026100001207047012823D14FF6FF7399421FD143
:1026200040F252720F4B1A6040F695020E4B1A6040
:1026300040F6D7120D4B1A6040F61A320C4B1A6056
:1026400040F65C420B4B1A6040F673020A4B1A606C
:1026500040F61412094B1A604FF4D662084B1A6008
:10266000704700BF2CEB002038EB00203CEB002033
:1026700040EB002048EB002034EB002044EB00202E
:1026800030EB002008B54FF6FF710120FFF7C2FFC5
:1026900008BD00BF006C00F00100704790F83D00DD
:1026A000704700BF90F83E00704700BF80F83C10B4
:1026B00080F83D2080F83E30009B0364704700BFE7
:1026C000203070472430704738B5044600238360BB
:1026D0008B6833B10D4602229847EB68E360AB6824
:1026E000A360204638BD00BF38B504460023836090
:1026F0008B6833B10D4602229847EB68E360AB6804
:10270000A360204638BD00BF70B582B005460E46B6
:1027100019B9914203D1002302E0002300E0012314
:1027200013B1104830F056FF941B01940F2C07D9B9
:10273000002201A9284645F04DF92860019BAB60B5
:102740002868012C02D13378037004E01CB12246C2
:10275000314626F02BFC019B6B602A680021D15486
:1027600002B070BDC4030020F8B504460F461646FB
:102770001D46FFF7A9FF07F1100104F11000FFF754
:10278000B3FF268404F12C03636229686A684FF062
:1027900000030A4404F12400FFF7B6FF002384F885
:1027A0003C30012284F83D2084F83E3023642046EA
:1027B000F8BD00BF014B0360704700BF7C020020E2
:1027C00010B50446034B0360402128F021FB20464E
:1027D00010BD00BF7C02002008B5034B036008B1A8
:1027E00028F00EFB08BD00BF7C02002010B5044697
:1027F0000846044929F0C2F910B104F10C0010BDDB
:10280000002010BD0C02002038B504460D460D4BCB
:1028100040F8043BFFF7BEFD05F1100104F1140080
:10282000FFF7C8FD04F13C0363620123A3620023A8
:10283000E36223634FF07E526263A363E363204647
:1028400038BD00BFA804002010B50C46102028F0A9
:10285000CFFA034608B10022026013F1040F09D039
:1028600022889A8062689A60A268DA6012B1516820
:1028700001315160184610BD70B582B005460E4654
:1028800019B9914203D1002302E0002300E00123A3
:1028900013B1104830F09EFE941B01940F2C07D901
:1028A000002201A9284645F095F82860019BAB60FD
:1028B0002868012C02D13378037004E01CB1224651
:1028C000314626F073FB019B6B602A680021D154CE
:1028D00002B070BDC403002038B50D46CC687CB191
:1028E0006368013B63605BB923689B682046984737
:1028F000A368013BA3601BB92368DB6820469847A7
:10290000284628F07DFA38BD38B5054629B10C684F
:102910002846FFF7E1FF2146F8E738BD10B5044629
:102920008168FFF7F1FF626892000021206857F08C
:1029300055FE0023E360A36010BD00BF08B5084644
:1029400028F05EFA08BD00BF10B50446FFF7E6FFA9
:102950002168626804F11803994202D02046FFF70B
:10296000EDFF204610BD00BF38B505460A4B40F8C4
:10297000243BFFF7E9FF2C1DA36923B104F11000EC
:10298000032201469847A3681BB103222146204633
:102990009847284638BD00BFA804002038B5054632
:1029A0000C4B40F8243BFFF7CFFF2C1DA36923B14C
:1029B00004F11000032201469847A3681BB10322CB
:1029C0002146204698474021284628F021FA2846EB
:1029D00038BD00BFA8040020F0B4036853F821609C
:1029E000D6B1336800E0234614889D88A54215D0EF
:1029F0001C684CB14568A788B7FBF5F605FB167552
:102A0000A94203D1002502E0012500E001251E4670
:102A1000002DE8D0002002E0002000E03046F0BCAD
:102A2000704700BF38B50A460C884568B4FBF5F11D
:102A3000234605FB1141FFF7CFFF08B1006800E016
:102A4000002000B9002038BD10B50C46102028F039
:102A5000CFF9034608B10022026013F1040F08D039
:102A600022889A8062689A600022A168A260D96078
:102A70006260184610BD00BF036853F8213033B1BF
:102A80001B681360036853F821301A60704730B434
:102A9000836813608260146844B14368A588B5FBFD
:102AA000F3F403FB1453046844F8232050F8083B64
:102AB00043F8210030BC704738B5B1F1804F01D3E5
:102AC00030F068FD8C00204628F092F90546224639
:102AD000002157F083FD284638BD00BFF8B50546F4
:102AE0000C461746036843B94168012902D140F8F2
:102AF000183F01E0FFF7E0FF2860A46834B3211D10
:102B00003868FFF7A1FE0646A8606B688188B1FBB4
:102B1000F3F203FB12132A4652F8081B41F8232054
:102B200024689CB1211D3868FFF78EFE30606B6809
:102B30008188B1FBF3F203FB12132A6852F82310C9
:102B400009B942F8236024680646EAE7F8BD00BFE9
:102B500030B583B004460B460022026049684160EC
:102B60008260D968C16000F1100503F1100103C94A
:102B700085E80300A26102AA42F8044D19462046E6
:102B8000FFF7ACFF204603B030BD00BF10B50446D0
:102B90002431FFF7DDFF204610BD00BFF8B5064623
:102BA0000C46012904D10546002345F8183F02E0F0
:102BB000FFF782FF0546B3680027B76001E01746BC
:102BC0000346E3B118689988B1FBF4F204FB1212D2
:102BD00055F8221069B9B1681960314641F8083FCB
:102BE00045F8221019680029E9D045F82730174622
:102BF000E6E70968196055F822201360E0E73168BC
:102C0000726806F11803994202D03046FFF796FE2B
:102C100074603560F8BD00BF08B54FF00002FFF7E3
:102C2000BDFF08BDF0B587B004460D4617461E46E9
:102C30004369059301230093C368426800F11001C2
:102C400003A830F057FC9DF80C304BB105AA04994D
:102C50002046FFF7E1FF6568B7FBF5F305FB137549
:102C6000324629462046FFF707FFE3680133E36059
:102C7000304607B0F0BD00BF2DE9F84380460C4652
:102C800019462046FFF7E0FE074686886568B6FBD2
:102C9000F5F305FB13653346021D29462046FFF771
:102CA0009BFE10B1D0F8009001E04FF00009B9F19F
:102CB000000F09D039462046FFF70EFEC8F80090F5
:102CC000002388F804300AE03B4632462946204675
:102CD000FFF7A8FFC8F80000012388F80430404639
:102CE000BDE8F88338B504460D46402028F080F84A
:102CF00025606060204638BDF8B507460C46DCB15B
:102D0000E1683846FFF7F8FFA66865697DB16B6832
:102D1000013B6B605BB92B689B6828469847AB68A2
:102D2000013BAB601BB92B68DB68284698472046FF
:102D300028F066F83446E2E7F8BD00BF2DE9F0411F
:102D40009AB015461AAB23F8621D00F12407194604
:102D50003846FFF767FE88B109AC07944B494FF03E
:102D600000030A461C3907A8FFF786FD07A80FF0E5
:102D70000FFC0798A04201D028F042F8EC682E1D05
:102D8000A64209D0BDF80610206902F007FA2046D5
:102D900029F06EF80446F3E703A905A8FFF7A2FFA0
:102DA000069C002C32D001236360A3602646384B7A
:102DB00046F80C3BBDF8068015AB00221592169222
:102DC000199217931893A968B1B114A81AAB43F8D4
:102DD000580D15AAFFF724F91690024600E01A468E
:102DE0009368002BFBD1179200E01846C368002BB4
:102DF000FBD118906B69199326B114AA414630464D
:102E0000FFF758F9169914A8FFF776FF13942CB121
:102E100023681B691F492046984700E00020129054
:102E2000BDF80630ADF83C301090139B0022139291
:102E300011930FAB39460DA8FFF71EFF119C7CB113
:102E40006368013B63605BB923689B6820469847D1
:102E5000A368013BA3601BB92368DB682046984741
:102E6000139C7CB16368013B63605BB923689B681A
:102E700020469847A368013BA3601BB92368DB6821
:102E8000204698471AB0BDE8F08100BFE804002052
:102E9000B80400200C020020F8B507460C46DCB14F
:102EA000E1683846FFF7F8FFA66865697DB16B6891
:102EB000013B6B605BB92B689B6828469847AB6801
:102EC000013BAB601BB92B68DB682846984720465E
:102ED00027F096FF3446E2E7F8BD00BF10B500F1D9
:102EE0000C04016B2830FFF707FFA1682046FFF7AD
:102EF000D3FF10BD8069704700B583B0019183682E
:102F00000BB930F007FCC36801A9984703B05DF81E
:102F100004FB00BF10B5044611F0180F05D08369FB
:102F200003F006031943816104E0836903F0180389
:102F30001943816123685B6920469847A169201D78
:102F4000FFF7DAFF10BD00BF70B504460D4600263E
:102F500086600C2027F04CFF2B6803606B68436091
:102F6000AB68AE6083606E602060034BE360034B30
:102F7000A360204670BD00BFF1270000451100008E
:102F800070B504460D46002686600C2027F030FF01
:102F90002B6803606B684360AB68AE6083606E60F3
:102FA0002060034BE360034BA360204670BD00BF6D
:102FB00045280000B911000070B504460D460026F2
:102FC00086600C2027F014FF2B6803606B68436059
:102FD000AB68AE6083606E602060034BE360034BC0
:102FE000A360204670BD00BF9D280000D1100000E6
:102FF00038B50446032A31D8DFE802F00205081884
:10300000174B03602AE00B68036027E00D680C2073
:1030100027F0EEFE2B6803606B684360AB6883604B
:1030200013B15A6801325A60206017E00568ADB1EB
:10303000AC687CB16368013B63605BB923689B68E3
:1030400020469847A368013BA3601BB92368DB684F
:10305000204698470C21284627F0DAFE002038BD8C
:10306000EC04002038B50446032A31D8DFE802F02A
:1030700002050818174B03602AE00B68036027E07D
:103080000D680C2027F0B4FE2B6803606B6843606A
:10309000AB68836013B15A6801325A60206017E050
:1030A0000568ADB1AC687CB16368013B63605BB936
:1030B00023689B6820469847A368013BA3601BB91F
:1030C0002368DB68204698470C21284627F0A0FE9D
:1030D000002038BD8C05002038B50446032A31D8BD
:1030E000DFE802F002050818174B03602AE00B68BE
:1030F000036027E00D680C2027F07AFE2B68036040
:103100006B684360AB68836013B15A6801325A60E0
:10311000206017E00568ADB1AC687CB16368013B25
:1031200063605BB923689B6820469847A368013BAE
:10313000A3601BB92368DB68204698470C2128460A
:1031400027F066FE002038BD9405002000B583B04E
:10315000019283680BB930F0DDFAC36801AA984781
:1031600003B05DF804FB00BF00B583B00192836833
:103170000BB930F0CFFAC36801AA984703B05DF8E5
:1031800004FB00BF38B50C461546AC4204D254F8D7
:10319000040B27F035FEF8E738BD00BF10B5044634
:1031A00003683BB1426A04324169FFF7EBFF2068D4
:1031B00027F026FE204610BD2DE9F84389469046AB
:1031C000CF680437D8F80C309F421AD23D6805F515
:1031D0000076AE4213D06C687CB16368013B6360DB
:1031E0005BB923689B6820469847A368013BA360AE
:1031F0001BB92368DB68204698470835E9E70437A0
:10320000E0E7D9F80C20934233D0D9F80050D9F830
:103210000860AE4213D06C687CB16368013B6360A8
:103220005BB923689B6820469847A368013BA3606D
:103230001BB92368DB68204698470835E9E7D8F8CA
:103240000450D8F80060B5422DD06C687CB163683A
:10325000013B63605BB923689B6820469847A3687D
:10326000013BA3601BB92368DB68204698470835FB
:10327000E9E7D9F80050D8F80060AE4213D06C6886
:103280007CB16368013B63605BB923689B6820463F
:103290009847A368013BA3601BB92368DB682046FD
:1032A00098470835E9E7BDE8F88300BF38B504461C
:1032B00083685D687DB16B68013B6B605BB92B68AF
:1032C0009B6828469847AB68013BAB601BB92B68ED
:1032D000DB6828469847E06827F092FD63691A1D6D
:1032E00062615B68E36003F500722261A36038BD30
:1032F00038B50C461546AC4206D24FF4007027F0A4
:1033000077FD44F8040BF6E738BD00BF2DE9F04324
:1033100083B004460F468B095D1C082200920333DC
:103320000193934201D901AB00E06B4618686060DD
:10333000B0F1804F01D330F02DF9800027F058FD17
:10334000804620606668761B760800EB860909EBEC
:1033500085052A4649462046FFF7CAFFC4F814905F
:1033600058F82620E26002F5007323612B1F636288
:1033700055F8043CE36103F500712162A26007F097
:103380003F0703EBC703A36103B0BDE8F08300BFB1
:103390002DE9F0419EB00646884600240460446052
:1033A0000494059406940794089409940A940B9441
:1033B0000C940D94214604A8FFF7A8FF06F1080518
:1033C000B4606C60AC60EC602C616C61AC61EC6111
:1033D0002C626C6221462846FFF798FF049B002B65
:1033E0002DD005F10807AB680093EB6801932B69BA
:1033F00002936B69039306AC94E80F0087E80F0013
:103400009DE80F0084E80F0005F1180EAB690093EA
:10341000EB6901932B6A02936B6A03930AAC94E8FD
:103420000F008EE80F009DE80F0084E80F00B368DE
:10343000049AB26004936B68059A6A600593069BD0
:103440001A93079B1B93089B1C93099B1D930A9B34
:1034500016930B9B17930C9B18930D9B199316AA0D
:103460001AA904A8FFF7A8FE04A8FFF797FEC6F85C
:10347000308030461EB0BDE8F08100BF38B50D4643
:103480008C687CB16368013B63605BB923689B68AF
:1034900020469847A368013BA3601BB92368DB68FB
:1034A00020469847284627F0ABFC38BD38B505467E
:1034B00029B10C682846FFF7E1FF2146F8E738BD3F
:1034C00010B504468168FFF7F1FF626892000021A1
:1034D000206857F083F80023E360A36010BD00BFAD
:1034E00008B5084627F08CFC08BD00BF10B504469F
:1034F000FFF7E6FF2168626804F11803994202D0E1
:103500002046FFF7EDFF204610BD00BFF0B4036872
:1035100053F82160D6B1336800E0234614685D6833
:10352000A54215D01C684CB145686768B7FBF5F635
:1035300005FB1675A94203D1002502E0012500E034
:1035400001251E46002DE8D0002002E0002000E00A
:103550003046F0BC704700BF38B50A460C68456875
:10356000B4FBF5F1234605FB1141FFF7CFFF08B18E
:10357000006800E0002000B9002038BD10B50C46FE
:103580000C2027F035FC034608B10022026013F13D
:10359000040F07D022685A6062689A6012B15168BD
:1035A00001315160184610BD036853F8213033B122
:1035B0001B681360036853F821301A60704730B4F9
:1035C000836813608260146844B143686568B5FB22
:1035D000F3F403FB1453046844F8232050F8083B29
:1035E00043F8210030BC70472DE9F04383B0044616
:1035F00001911546426A4069161AB61001367718CD
:103600006368B3EB470F22D9D4F800E0DB1B5B08FB
:103610009B000DB1890000E0002119440EEB01056B
:10362000A84208D90432121A93083DD00146284610
:1036300056F070FF38E0043205EB8607131A9A083B
:1036400032D01A460146F81A56F064FF2CE0221DCB
:10365000994200D901AA1268134403F10208B8F193
:10366000804F01D32FF096FF4FEA880027F0C0FB70
:103670008146C7EB08035B089B0015B1019DAD00B7
:1036800000E000251D444D446169626A0432521A0B
:10369000930802D0284656F03DFF206827F0B0FB83
:1036A000C4F80090C4F8048065612B68E36003F5FA
:1036B000007323616FF04043334405EB8302626281
:1036C00055F82330E36103F50073236203B0BDE8CE
:1036D000F08300BF70B504460D464368426A016836
:1036E000521AA3EBA203012B03D800220121FFF7FA
:1036F0007BFF666A4FF4007027F07AFB7060A36965
:103700003BB12A681A6000225A6069686A60596091
:103710002A60636A1A1D62625B68E36103F50072E6
:103720002262A36170BD00BF10B58369026A083AC6
:1037300093420CD03BB10A681A6000225A604C6870
:103740004A605C600A6083690833836110BDFFF7DB
:10375000C1FF10BD08B50830FFF7E6FF08BD00BF88
:10376000F0B583B00446006B03681B6898470546B4
:10377000002861D0E16AE269236A666AA069276964
:103780008A1A9210013A9B1BDB1003EB8212C31BB7
:1037900002EBE303002B4FD03B680093002301931F
:1037A0007A687B6001923B6004F10806B268336975
:1037B000083B9A4215D057687FB17B68013B7B601C
:1037C0005BB93B689B6838469847BB68013BBB6068
:1037D0001BB93B68DB6838469847B3680833B36069
:1037E00002E03046FFF762FD206B03685B68984794
:1037F0000098FEF727FD68B9206B03681B6898479F
:103800000028F9D069463046FFF78EFF206B036829
:103810005B689847019C7CB16368013B63605BB95E
:1038200023689B6820469847A368013BA3601BB9A7
:103830002368DB6820469847284603B0F0BD00BFE8
:10384000F0B5A9B005460E4606900B6807934B6885
:10385000089313B15A6801325A6000230493059308
:1038600001A902A8FEF73EFE039C002C2FD00123E5
:103870006360A3602746554B47F8103B069B1393A4
:10388000079B1493089B00220892159313A916A86E
:10389000FFF75AFB1FB116A93846FEF7B9FC189B73
:1038A0001BB1032216A908469847159F7FB17B6874
:1038B000013B7B605BB93B689B6838469847BB68B7
:1038C000013BBB601BB93B68DB68384698470594F1
:1038D0002CB123681B693E492046984700E0002030
:1038E00028A941F8900D2846FFF734FF059C7CB1CC
:1038F0006368013B63605BB923689B682046984717
:10390000A368013BA3601BB92368DB682046984786
:10391000089C7CB16368013B63605BB923689B686A
:1039200020469847A368013BA3601BB92368DB6866
:10393000204698470B9533680C9373680D9313B129
:103940005A6801325A60002309930A9301A902A818
:10395000FEF7C8FD039C002C2FD001236360A360F9
:1039600027461A4B47F8103B0B9B1A930C9B1B9353
:103970000D9B00220D921C931AA91DA8FFF700FBB6
:103980001FB11DA93846FEF743FC1F9B1BB1032244
:103990001DA9084698471C9F7FB17B68013B7B604F
:1039A0005BB93B689B6838469847BB68013BBB6086
:1039B0001BB93B68DB68384698470A9454B12368C2
:1039C0001B6903492046984705E000BFD402002048
:1039D0000C020020002028A941F87C0D2846FFF7A2
:1039E000B9FE0A9C7CB16368013B63605BB92368E4
:1039F0009B6820469847A368013BA3601BB92368D6
:103A0000DB68204698470D9C7CB16368013B63608E
:103A10005BB923689B6820469847A368013BA36075
:103A20001BB92368DB6820469847109533681193CB
:103A30007368129313B15A6801325A6000230E93CF
:103A40000F9301A902A8FEF74DFD039C002C2FD077
:103A500001236360A3602646304B46F8103B109B61
:103A60002193119B2293129B00221292239321A94E
:103A700024A8FFF7A1FA1EB124A93046FEF7C8FB1F
:103A8000269B1BB1032224A908469847239E7EB19A
:103A90007368013B73605BB933689B683046984735
:103AA000B368013BB3601BB93368DB6830469847A5
:103AB0000F942CB123681B6919492046984700E0F0
:103AC000002028A941F8680D2846FFF743FE0F9C07
:103AD0007CB16368013B63605BB923689B682046E7
:103AE0009847A368013BA3601BB92368DB682046A5
:103AF0009847129C7CB16368013B63605BB92368A3
:103B00009B6820469847A368013BA3601BB92368C4
:103B1000DB682046984729B0F0BD00BFD4020020E2
:103B20000C02002038B5B1F1804F01D32FF032FDE7
:103B30008C00204627F05CF905462246002156F00D
:103B40004DFD284638BD00BFF8B506460C46012994
:103B500004D10546002345F8183F02E0FFF7E2FFD5
:103B60000546B3680027B76001E017460346E3B196
:103B700018685968B1FBF4F204FB121255F82210D0
:103B800069B9B1681960314641F8083F45F822101B
:103B900019680029E9D045F827301746E6E7096893
:103BA000196055F822201360E0E73168726806F169
:103BB0001803994202D03046FFF792FC74603560DA
:103BC000F8BD00BF08B54FF00002FFF7BDFF08BD0C
:103BD000F0B587B004460D4617461E464369059367
:103BE00001230093C368426800F1100103A82FF07D
:103BF00081FC9DF80C304BB105AA04992046FFF7D3
:103C0000E1FF6568B7FBF5F305FB137532462946FE
:103C10002046FFF7C9FCE3680133E360304607B094
:103C2000F0BD00BF2DE9F84306460F469046994681
:103C300015684C68B5FBF4F304FB13542B4621467E
:103C40003846FFF763FC08B1036800E000231BB1AE
:103C50003360002333710DE04146D9F80000FFF7CF
:103C60008DFC03462A4621463846FFF7B1FF3060F7
:103C7000012333713046BDE8F88300BF2DE9F043DE
:103C800095B005460C461746994603680A93436863
:103C90000B9313B15A6801325A6009AB03930123A5
:103CA00004930023059306934FF07E5207920893E6
:103CB00009930A9803689B692168984780460A9986
:103CC0000B689B6A02460CA898470C990D9A002332
:103CD0000D930C9339607E687A607EB17368013B06
:103CE00073605BB933689B6830469847B368013BA3
:103CF000B3601BB93368DB68304698470D9E7EB1D0
:103D00007368013B73605BB933689B6830469847C2
:103D1000B368013BB3601BB93368DB683046984732
:103D20003B6803B30A9B2B600B9E6B689E4216D0C8
:103D300016B17368013373606F687FB17B68013BB4
:103D40007B605BB93B689B6838469847BB68013B22
:103D5000BB601BB93B68DB68384698476E60C4F8A7
:103D600000800325C1E00AA903A8FFF7F5FB00289E
:103D700040F0B8800A9803681B6A9847002800F052
:103D8000B38003A902914FF000038DF8003002AB1D
:103D90000AAA0EA8FFF746FF286803689E68012359
:103DA0000AAA2168B04740B9286803681B6A984787
:103DB000022805D14FF0010804E04FF0000801E0AF
:103DC0004FF00008B8F1000F01D002258DE0D9F8BE
:103DD0000830F3B10A9B10930B9B119313B15A68EF
:103DE00001325A60226810A94846FFF7BDF9119EBA
:103DF0007EB17368013B73605BB933689B68304682
:103E00009847B368013BB3601BB93368DB68304641
:103E100098470A9803685B692946984720600A9882
:103E200003681B6A9847022807D10A980368DB6871
:103E30002168984708B94FF00108B8F1000F01D088
:103E4000022552E00A9803689B6921689847206020
:103E5000D9F80830F3B10A9B12930B9B139313B15B
:103E60005A6801325A60226812A94846FFF77CF965
:103E7000139E7EB17368013B73605BB933689B68C6
:103E800030469847B368013BB3601BB93368DB68C1
:103E9000304698470A9B2B600B9E6B689E423FF40E
:103EA00008AF16B1736801337360D5F80480B8F1B8
:103EB000000F15D0D8F80430013BC8F804307BB9A6
:103EC000D8F800309B6840469847D8F80830013B46
:103ED000C8F8083023B9D8F80030DB684046984766
:103EE0006E60E6E6002500E0012503A8FFF7FEFA74
:103EF0000B9C7CB16368013B63605BB923689B6882
:103F000020469847A368013BA3601BB92368DB6880
:103F100020469847284615B0BDE8F0832DE9F047C4
:103F2000A2B006460F46144698469DF8A8909DF804
:103F3000AC00196811913B680F937B68109313B123
:103F40005A6801325A6000230D930E93032902D15F
:103F500033607360B5E1B0B9386803689D680123C8
:103F60000FAAA84718B9002333607360A9E10F9D19
:103F70002B68D3F818A05B69394628469847014654
:103F80002846D0471190002C00F033810023149371
:103F90000F9B0493109B059313B15A6801325A602A
:103FA0000CAB0693012307930023089309934FF06A
:103FB0007E520A920B930C9304A906A8FFF7CCFA41
:103FC000002840F0F780049803681B6A984700288F
:103FD00000F0F28006A903914FF000038DF8003045
:103FE00003AB04AA20A8FFF71DFE0F9803689C6886
:103FF000012304AA1199A04738B90F9803681B6AD6
:104000009847022803D1012502E0002500E00025A1
:104010000DB10224D1E0149BF3B1049B1E93059BC8
:104020001F9313B15A6801325A60119A1EA912A83F
:10403000FFF79AF81F9C7CB16368013B63605BB932
:1040400023689B6820469847A368013BA3601BB97F
:104050002368DB6820469847049803685B690FA9CA
:1040600098471190049803681B6A9847022806D164
:1040700004980368DB681199984700B901250DB1D0
:1040800002249AE004990B68DB6A119A1CA89847ED
:104090001C991D9A00231D931C930D910E9C0E924A
:1040A0007CB16368013B63605BB923689B68204611
:1040B0009847A368013BA3601BB92368DB682046CF
:1040C00098471D9C7CB16368013B63605BB92368C2
:1040D0009B6820469847A368013BA3601BB92368EF
:1040E000DB68204698470D9BF3B1049B0F93059C1A
:1040F000109B9C4216D014B1636801336360109D1D
:104100007DB16B68013B6B605BB92B689B6828468F
:104110009847AB68013BAB601BB92B68DB6828464E
:1041200098471094032448E0049803689B69119908
:1041300098471190149BF3B1049B1A93059B1B9312
:1041400013B15A6801325A60119A1AA912A8FFF7DE
:104150000BF81B9C7CB16368013B63605BB923680F
:104160009B6820469847A368013BA3601BB923685E
:10417000DB6820469847049B0F93059C109B9C424C
:104180003FF41AAF14B1636801336360109D7DB1D1
:104190006B68013B6B605BB92B689B68284698474E
:1041A000AB68013BAB601BB92B68DB6828469847BE
:1041B000109401E7002400E0012406A8FFF796F917
:1041C000059D7DB16B68013B6B605BB92B689B689B
:1041D00028469847AB68013BAB601BB92B68DB688E
:1041E00028469847149B9BB1032212A9084698477A
:1041F0000EE00023189316AB0DAA11A90FA8FFF724
:104200003DFD0446189B1BB1032216A9084698479A
:10421000022C02D9032C04D050E0002333607360D9
:104220004FE00D98002849D003689B6898470446E2
:1042300010B1B9F1000F09D10D9803685B68984778
:10424000044618B1B9F1000F00D00024002C27D08B
:104250000F9B3B60109C7B689C4216D014B1636836
:10426000013363607D687DB16B68013B6B605BB956
:104270002B689B6828469847AB68013BAB601BB92D
:104280002B68DB68284698477C60119BC8F8003093
:104290000D9B336000230E9A0E9372600D9310E015
:1042A0000D9803689B68984718B1B9F1000F00D1C9
:1042B00004461CB100233360736002E000233360C6
:1042C00073600E9C7CB16368013B63605BB92368DB
:1042D0009B6820469847A368013BA3601BB92368ED
:1042E000DB6820469847109C7CB16368013B6360A3
:1042F0005BB923689B6820469847A368013BA3608D
:104300001BB92368DB6820469847304622B0BDE8D9
:10431000F08700BF2DE9F0419EB00C461546042AF7
:1043200002D14FF0100801E04FF008080368109325
:104330004368119313B15A6801325A6001680B68DF
:10434000DB6A224603A898470398002800F05081B2
:104350002946FEF7DFFD109803689B6921469847C0
:1043600007460023059306931493109B0793119B14
:10437000089313B15A6801325A600FAB09930123B5
:104380000A9300230B930C934FF07E520D920E93E1
:104390000F9307A909A8FFF7DFF8002840F0F6807F
:1043A000079803681B6A9847002800F0EF8009A966
:1043B00002914FF000038DF8003002AB07AA1CA851
:1043C000FFF730FC109803689C68012307AA394660
:1043D000A04738B9109803681B6A9847022803D190
:1043E000012602E0002600E00026002E40F0CE80EC
:1043F000149BF3B1079B1A93089B1B9313B15A6844
:1044000001325A603A461AA912A8FEF7ADFE1B9C6B
:104410007CB16368013B63605BB923689B6820469D
:104420009847A368013BA3601BB92368DB6820465B
:104430009847079803685B6910A99847054607984D
:1044400003681B6A9847022806D107980368DB684F
:104450002946984700B90126002E40F09780079919
:104460000B68DB6A2A4618A898471899199A0023FE
:10447000199318930591069C06927CB16368013BE1
:1044800063605BB923689B6820469847A368013B3B
:10449000A3601BB92368DB6820469847199C7CB150
:1044A0006368013B63605BB923689B68204698475B
:1044B000A368013BA3601BB92368DB6820469847CB
:1044C000059BEBB1079B1093089C119B9C425DD010
:1044D00014B1636801336360119D7DB16B68013B6A
:1044E0006B605BB92B689B6828469847AB68013BBB
:1044F000AB601BB92B68DB6828469847119445E0F0
:10450000079803689B69294698470746149BF3B1AF
:10451000079B1693089B179313B15A6801325A6090
:104520003A4616A912A8FEF71FFE179C7CB16368D5
:10453000013B63605BB923689B6820469847A3688A
:10454000013BA3601BB92368DB6820469847079BA3
:104550001093089C119B9C423FF41BAF14B16368FD
:1045600001336360119D7DB16B68013B6B605BB98A
:104570002B689B6828469847AB68013BAB601BB92A
:104580002B68DB6828469847119402E709A8FEF7D4
:10459000ADFF089C7CB16368013B63605BB9236835
:1045A0009B6820469847A368013BA3601BB923681A
:1045B000DB6820469847149B1BB1032212A90846CA
:1045C0009847059810B14146FEF7A4FC069C7CB1C3
:1045D0006368013B63605BB923689B68204698472A
:1045E000A368013BA3601BB92368DB68204698479A
:1045F000049C7CB16368013B63605BB923689B6882
:1046000020469847A368013BA3601BB92368DB6879
:1046100020469847119C7CB16368013B63605BB99D
:1046200023689B6820469847A368013BA3601BB999
:104630002368DB68204698471EB0BDE8F08100BFC4
:1046400030B58BB014460B6806934B68079313B1D3
:104650005A6801325A60086800F080FEA04201D119
:10466000042500E002250CB9012300E00223059394
:1046700001220192009205AB06A903A8FFF74EFCA8
:10468000039BF3B1069B0893079B099313B15A68E8
:1046900001325A602A46059908A8FFF73BFE099C9B
:1046A0007CB16368013B63605BB923689B6820460B
:1046B0009847A368013BA3601BB92368DB682046C9
:1046C0009847049C7CB16368013B63605BB92368D5
:1046D0009B6820469847A368013BA3601BB92368E9
:1046E000DB6820469847079C7CB16368013B6360A8
:1046F0005BB923689B6820469847A368013BA36089
:104700001BB92368DB68204698470BB030BD00BF5B
:1047100010B582B003681C685A6800929A680192CA
:1047200012B1516801315160586800F017FE02461D
:1047300069462046FFF784FF019C7CB16368013B1A
:1047400063605BB923689B6820469847A368013B78
:10475000A3601BB92368DB6820469847022002B09B
:1047600010BD00BF10B582B003681C685A68009283
:104770009A68019212B1516801315160586800F095
:10478000EDFD00F0EDFD024669462046FFF758FFBB
:10479000019C7CB16368013B63605BB923689B68E3
:1047A00020469847A368013BA3601BB92368DB68D8
:1047B00020469847022002B010BD00BF70B5A4B0DB
:1047C000046863680593A368069313B15A680132BD
:1047D0005A600023039301220192009203AB05A9C2
:1047E00007A8FFF79BFB63680993A3680A9313B1BB
:1047F0005A6801325A60606800F0B8FD054600232F
:104800000C931A93099B0D930A9B0E9313B15A684C
:1048100001325A6015AB0F930123109300231193BB
:1048200012934FF07E521392149315930D980368D0
:104830009B69294698470D990B689B6A02461CA8FC
:1048400098471C991D9A00231D931C930B910C9C57
:104850000C927CB16368013B63605BB923689B6821
:1048600020469847A368013BA3601BB92368DB6817
:10487000204698471D9C7CB16368013B63605BB92F
:1048800023689B6820469847A368013BA3601BB937
:104890002368DB68204698470B9BF3B10D9B099377
:1048A0000E9C0A9B9C4216D014B16368013363606E
:1048B0000A9D7DB16B68013B6B605BB92B689B689F
:1048C00028469847AB68013BAB601BB92B68DB6897
:1048D000284698470A940325AEE00DA90FA8FEF7D5
:1048E0003BFE002840F0A5800D9803681B6A98479E
:1048F000002800F0A0800FA904914FF000038DF86C
:10490000003004AB0DAA1EA8FFF78CF909980368C4
:104910009C6801230DAA2946A04738B90998036865
:104920001B6A9847022803D1012602E0002600E016
:1049300000260EB102257FE01A9BF3B10D9B209358
:104940000E9B219313B15A6801325A602A4620A95E
:1049500018A8FEF709FC219C7CB16368013B6360E9
:104960005BB923689B6820469847A368013BA36016
:104970001BB92368DB68204698470D9803685B697C
:1049800009A9984704460D9803681B6A98470228AE
:1049900006D10D980368DB682146984700B90126C7
:1049A0000EB1022548E00D9803689B69214698479F
:1049B00005461A9BF3B10D9B22930E9B239313B1D3
:1049C0005A6801325A602A4622A918A8FEF7CCFB81
:1049D000239C7CB16368013B63605BB923689B687F
:1049E00020469847A368013BA3601BB92368DB6896
:1049F000204698470D9B09930E9C0A9B9C423FF4CE
:104A000015AF14B16368013363600A9E7EB17368A9
:104A1000013B73605BB933689B6830469847B36865
:104A2000013BB3601BB93368DB68304698470A9492
:104A3000FCE6002500E001250FA8FEF757FD0E9CBF
:104A40007CB16368013B63605BB923689B68204667
:104A50009847A368013BA3601BB92368DB68204625
:104A600098471A9B1BB1032218A908469847012DA5
:104A700001D9032D01D1042200E00222059B1693E7
:104A8000069B179313B1596801315960039916A811
:104A9000FFF740FC179C7CB16368013B63605BB926
:104AA00023689B6820469847A368013BA3601BB915
:104AB0002368DB68204698470C9C7CB16368013B07
:104AC00063605BB923689B6820469847A368013BF5
:104AD000A3601BB92368DB68204698470A9C7CB119
:104AE0006368013B63605BB923689B682046984715
:104AF000A368013BA3601BB92368DB682046984785
:104B0000089C7CB16368013B63605BB923689B6868
:104B100020469847A368013BA3601BB92368DB6864
:104B200020469847069C7CB16368013B63605BB993
:104B300023689B6820469847A368013BA3601BB984
:104B40002368DB6820469847022024B070BD00BF70
:104B5000002202604260704700220260426070479B
:104B6000006A7047032918BF00290CBF01200020EC
:104B7000704700BF42B9CB6A03600B6B436033B12F
:104B80005A6801325A6070470023036043607047DF
:104B9000032914BF00200120704700BF0A68C36AC0
:104BA0009A4201D1002070470320704709B90320C1
:104BB00070470020704700BF00207047003218BFC8
:104BC0000122343101EBC20351F8322002605B68EC
:104BD000436013B15A6801325A6070470AB9012321
:104BE00000E00023343101EBC30251F8333003609D
:104BF0005368436013B15A6801325A60704700BF6E
:104C000001298CBF00200120704700BF42B9CB6A48
:104C100003600B6B43608BB15A6801325A60704776
:104C2000012A08D14B6B03608B6B436033B15A6828
:104C300001325A607047002303604360704700BF31
:104C400001207047C26A0B68934204D0426B9342C2
:104C500003D101207047002070470320704700BF38
:104C600009B9012070470020704700BF012070473C
:104C7000003218BF01223C3101EBC20351F832204F
:104C800002605B68436013B15A6801325A60704732
:104C90000AB9012300E000233C3101EBC30251F8C3
:104CA000333003605368436013B15A6801325A606D
:104CB000704700BFC81E18BF0120704742B94B6D36
:104CC00003608B6D4360E3B15A6801325A607047EC
:104CD000012A08D1CB6D03600B6E43608BB15A681B
:104CE00001325A607047022A08D14B6E03608B6E06
:104CF000436033B15A6801325A6070470023036041
:104D0000436070470B4651B1012901D1026D42B198
:104D1000022B08D1036D012B07D000207047012022
:104D2000704701207047002070470120704700BF86
:104D3000426D0B68934207D0C26D934206D0426E1B
:104D4000934205D102207047002070470120704730
:104D50000320704719B9036D1BB90120704700206B
:104D600070470220704700BF02207047F8B5054623
:104D70000E4614461F4603681B689847C8B90023AF
:104D8000236065686360002D5AD06B68013B6B60DF
:104D9000002B57D12B689B6828469847AB68013B8E
:104DA000AB60002B50D12B68DB6828469847002069
:104DB000F8BD17B30EB92C3500E034352B682360ED
:104DC0006D6863689D4216D015B16B6801336B60E6
:104DD00066687EB17368013B73605BB933689B683A
:104DE00030469847B368013BB3601BB93368DB6852
:104DF0003046984765600120F8BD0EB9343500E0B3
:104E00002C352B6823606D6863689D4216D015B100
:104E10006B6801336B6066687EB17368013B7360D9
:104E20005BB933689B6830469847B368013BB36011
:104E30001BB93368DB683046984765600120F8BDD0
:104E40000020F8BD0020F8BD0020F8BDF8B50546EB
:104E50000E4614461F4603681B68984760B1002E33
:104E600014BF002307F001034BB9032E14BF002623
:104E70000126B74202D302E0002300E00346F3B16B
:104E8000EB6A23602D6B63689D4216D015B16B6889
:104E900001336B6066687EB17368013B73605BB918
:104EA00033689B6830469847B368013BB3601BB9D1
:104EB0003368DB683046984765600120F8BD002301
:104EC0002360656863608DB16B68013B6B607BB983
:104ED0002B689B6828469847AB68013BAB604BB991
:104EE0002B68DB68284698470020F8BD0020F8BDF5
:104EF0000020F8BD0020F8BDF8B505460E46144662
:104F00001F4603681B68984720B103462A6D022A92
:104F100002D102E0012300E00023E3B1002323607B
:104F200065686360002D00F0C8806B68013B6B60B2
:104F3000002B40F0C4802B689B6828469847AB68DC
:104F4000013BAB60002B40F0BC802B68DB6828463F
:104F500098470020F8BD002F62D0012E22D016B154
:104F6000022E3ED0AFE06B6D2360AD6D63689D4255
:104F700016D015B16B6801336B6066687EB17368DB
:104F8000013B73605BB933689B6830469847B368F0
:104F9000013BB3601BB93368DB68304698476560F6
:104FA0000120F8BDEB6D23602D6E63689D4216D025
:104FB00015B16B6801336B6066687EB17368013B45
:104FC00073605BB933689B6830469847B368013BB0
:104FD000B3601BB93368DB683046984765600120D1
:104FE000F8BD6B6E2360AD6E63689D4216D015B13F
:104FF0006B6801336B6066687EB17368013B7360F8
:105000005BB933689B6830469847B368013BB3602F
:105010001BB93368DB683046984765600120F8BDEE
:105020001EBB2B6D0BB95C3500E064352B6823602B
:105030006D6863689D4216D015B16B6801336B6073
:1050400066687EB17368013B73605BB933689B68C7
:1050500030469847B368013BB3601BB93368DB68DF
:105060003046984765600120F8BD012E01D12B6DB7
:1050700023B1022E29D12B6D012B28D16B6D23601A
:10508000AD6D63689D4216D015B16B6801336B60DE
:1050900066687EB17368013B73605BB933689B6877
:1050A00030469847B368013BB3601BB93368DB688F
:1050B0003046984765600120F8BD0020F8BD00200B
:1050C000F8BD0020F8BD0020F8BD0020F8BD00208C
:1050D000F8BD00BF38B505461A4943F0DDF830B1D8
:1050E0001949284643F0D8F818B1002402E00124F9
:1050F00000E00124FCB91549284643F0CDF828B159
:105100001349284643F0C8F810B102E0012400E03A
:10511000012494B90F49284643F0BEF828B10E493E
:10512000284643F0B9F810B102E0012400E0012460
:105130002CB1022038BD002038BD012038BD03202D
:1051400038BD00BF04090020AC080020480800203A
:10515000A42200204C0800205008002070B58CB01C
:1051600005460C68666B002406940A940124039497
:1051700008AC0294109C0194009304ABB0470A9BC6
:105180001BB1032208A908469847069B1BB10322BE
:1051900004A90846984728460CB070BD8183704723
:1051A000808B704770B5C36A0B60056B4B689D427E
:1051B00017D015B16B6801336B600C464E687EB139
:1051C0007368013B73605BB933689B6830469847EE
:1051D000B368013BB3601BB93368DB68304698475E
:1051E000656070BD2DE9F843044617461E46436DC1
:1051F0000B60856D4B689D4221D0884615B16B6868
:1052000001336B60D8F80490B9F1000F15D0D9F8CC
:105210000430013BC9F804307BB9D9F800309B68F1
:1052200048469847D9F80830013BC9F8083023B9F7
:10523000D9F80030DB6848469847C8F80450E36D59
:105240003B60256E7B689D421FD015B16B680133B2
:105250006B60D7F80480B8F1000F15D0D8F804308F
:10526000013BC8F804307BB9D8F800309B68404651
:105270009847D8F80830013BC8F8083023B9D8F867
:105280000030DB68404698477D60636E3360A46EF3
:1052900073689C4216D014B163680133636075680B
:1052A0007DB16B68013B6B605BB92B689B682846DE
:1052B0009847AB68013BAB601BB92B68DB6828469D
:1052C00098477460BDE8F8832DE9F041054616461D
:1052D000C36A0B60046B4B689C4220D00F4614B12C
:1052E000636801336360D7F80480B8F1000F15D00C
:1052F000D8F80430013BC8F804307BB9D8F8003046
:105300009B6840469847D8F80830013BC8F80830F9
:1053100023B9D8F80030DB68404698477C606B6B57
:105320003360AC6B73689C4216D014B16368013370
:10533000636075687DB16B68013B6B605BB92B681E
:105340009B6828469847AB68013BAB601BB92B684C
:10535000DB68284698477460BDE8F081006D7047AF
:1053600008B9012070470020704700BF036D022B71
:1053700002D01BB9012070470320704702207047FC
:10538000F8B504460F461646084657F029F8054674
:1053900004F10803236000236360237271680144F1
:1053A000204642F069FC6368C3F1FF4303F5FF0345
:1053B00003F5FF437F339D4202D907482EF022F9BF
:1053C0002A463946204642F0F3FD7268316820468D
:1053D00042F0EEFD2046F8BD5408002030B583B001
:1053E00001938B680BB92EF095F90446CD6801AB9B
:1053F000A847204603B030BD38B50446002383607B
:105400008B6833B10D4602229847EB68E360AB68C6
:10541000A360204638BD00BF00B583B00192836809
:105420000BB92EF077F9C36801AA984703B05DF86D
:1054300004FB00BF30B585B0036D8B4241D0022B19
:1054400041D00346022202652C309A6A03929AB137
:10545000516809B924F0E8F9013151605A6A0092A3
:10546000039A0021039101921A6D6946FFF7D4FF58
:105470000446019D15B911E024F0D6F96B68013B93
:105480006B605BB92B689B6828469847AB68013B0B
:10549000AB601BB92B68DB6828469847039D9DB11C
:1054A0006B68013B6B607BB92B689B68284698470B
:1054B000AB68013BAB603BB92B68DB68284698477B
:1054C00002E0022400E00224204605B030BD00BF07
:1054D00010B50446006DFFF743FF01462046FFF775
:1054E000A9FF10BD036D8B4242D0F0B585B00E46CA
:1054F00005462C30AB6A03939BB15A680AB924F075
:1055000093F901325A606B6A0093039B0022039265
:1055100001930A466946FFF77FFF0446019F17B9CA
:1055200011E024F081F97B68013B7B605BB93B684B
:105530009B6838469847BB68013BBB601BB93B681A
:10554000DB6838469847039F7FB17B68013B7B60EF
:105550005BB93B689B6838469847BB68013BBB60BA
:105560001BB93B68DB68384698472E65204601E04A
:105570000220704705B0F0BD00B583B0019183688B
:105580000BB92EF0C7F8C36801A9984703B05DF8BE
:1055900004FB00BF08B5436C23B1016D3C30FFF73D
:1055A000EBFF08BD002008BD70B586B006460C466E
:1055B0000868FFF7F5FD002846D001AB00220192F4
:1055C0000292059203930493206803681B6969465D
:1055D00098470398054601AB98422FD00269446969
:1055E00014B1636801336360964212D17CB1636881
:1055F000013B63605BB923689B6820469847A368BA
:10560000013BA3601BB92368DB6820469847002450
:1056100015E07CB16368013B63605BB923689B68FC
:1056200020469847A368013BA3601BB92368DB6849
:1056300020469847284626F01BFCCBE70424029915
:105640006846FDF759FB00E00424204606B070BD13
:1056500030B583B0C36A0093036B019313B15A68EA
:1056600001325A606946FFF79FFF0546019C7CB1F5
:105670006368013B63605BB923689B682046984779
:10568000A368013BA3601BB92368DB6820469847E9
:10569000284603B030BD00BF30B585B00446C36AAC
:1056A0000093036B019313B15A6801325A60694643
:1056B0002046FFF779FF78B9636B0293A36B0393DE
:1056C00013B15A6801325A6002A92046FFF76CFFF5
:1056D00028B90123002504E00023042501E001236B
:1056E00004258BB1039C7CB16368013B63605BB9AB
:1056F00023689B6820469847A368013BA3601BB9B9
:105700002368DB6820469847019C7CB16368013BB5
:1057100063605BB923689B6820469847A368013B98
:10572000A3601BB92368DB6820469847284605B06C
:1057300030BD00BF70B586B00446436D0093836DE5
:10574000019313B15A6801325A6069462046FFF747
:105750002BFFE8B9E36D0293236E039313B15A68EC
:1057600001325A6002A92046FFF71EFFA0B9636EFE
:105770000493A36E059313B15A6801325A6004A9C9
:105780002046FFF711FF58B901231E4600250AE005
:1057900000231E46042506E000230126042502E01E
:1057A00001231E4604258BB1059C7CB16368013B37
:1057B00063605BB923689B6820469847A368013BF8
:1057C000A3601BB92368DB68204698478EB1039C11
:1057D0007CB16368013B63605BB923689B682046CA
:1057E0009847A368013BA3601BB92368DB68204688
:1057F0009847019C7CB16368013B63605BB9236897
:105800009B6820469847A368013BA3601BB92368A7
:10581000DB6820469847284606B070BDF8B50746B5
:1058200016468C680D1D012201E025461C4654B128
:10583000336822699A428CBF0122002201D9A368F1
:10584000F3E7E368F1E7284642B1CB689D4202D115
:105850003C607D600CE0284626F026FB0269336838
:105860009A4202D23C607D6002E0386000237B6097
:105870003846F8BD2DE9F041054617461E4649B9A0
:10588000031D9A4209D0336812699A4208D84FF032
:10589000000807E04FF0010804E04FF0010801E0C4
:1058A0004FF00108182025F0A3FA044610F1100F5C
:1058B00007D0336803617368436113B15A680132DA
:1058C0005A602B1D3A462146404626F0EFFA6B6996
:1058D00001336B612046BDE8F08100BF70B586B032
:1058E00004460D46164604A8FFF798FF059A5AB1DC
:1058F000039503AB0093334604992846FFF7BAFF9C
:1059000020600123237103E0049B236000232371A3
:10591000204606B070BD00BF00B583B000F12C0278
:105920006846FFF7DBFF03B05DF804FB30B583B0DA
:1059300004460D4600F12C026846FFF7CFFF04F144
:10594000340229466846FFF7C9FF03B030BD00BFE7
:1059500030B583B004460D4600F154026846FFF7A7
:10596000BDFF04F15C0229466846FFF7B7FF04F16A
:10597000640229466846FFF7B1FF03B030BD00BF9F
:1059800010B586B002AC009408494FF000030A46F7
:1059900014396846FCF770FF68460CF0F9FD009872
:1059A000A04201D025F02CFA06B010BD80080020DE
:1059B00070B586B0044612B1032A1ED03BE00B68D6
:1059C00043634D68836B9D4247D015B16B680133CB
:1059D0006B60A66B7EB17368013B73605BB9336823
:1059E0009B6830469847B368013BB3601BB9336886
:1059F000DB6830469847A5632FE00B68C3634D68AA
:105A0000036C9D4229D015B16B6801336B60266C25
:105A10007EB17368013B73605BB933689B68304645
:105A20009847B368013BB3601BB93368DB68304605
:105A30009847256411E002AC009409494FF0000337
:105A40000A4611396846FCF717FF68460CF0A0FDBE
:105A50000098A04201D025F0D3F906B070BD00BF78
:105A6000C108002070B586B0044612B1012A1ED0CC
:105A70003BE00B68C3634D68036C9D4247D015B192
:105A80006B6801336B60266C7EB17368013B736099
:105A90005BB933689B6830469847B368013BB36095
:105AA0001BB93368DB683046984725642FE00B68E4
:105AB00043644D68836C9D4229D015B16B680133F6
:105AC0006B60A66C7EB17368013B73605BB9336831
:105AD0009B6830469847B368013BB3601BB9336895
:105AE000DB6830469847A56411E002AC0094094990
:105AF0004FF000030A4611396846FCF7BDFE6846C0
:105B00000CF046FD0098A04201D025F079F906B0CE
:105B100070BD00BFC108002010B5044601290ED099
:105B200011B1022916D020E000F1080303601549E5
:105B30004FF000030A460139FCF79EFE1FE000F11A
:105B40000803036010494FF000030A460139FCF7CF
:105B500093FE14E000F1080303600C494FF00003CA
:105B60000A460139FCF788FE09E000F108030360EA
:105B700007494FF000030A460739FCF77DFE20462F
:105B800010BD00BFAD080020A52200205108002054
:105B9000CB08002038B504460B461546084A40F8A5
:105BA000042B04F10C02626009685A684FF000038C
:105BB0000A44FCF7A9FD0023A3832562204638BDD3
:105BC0001C0A002010B504460B4600F108020260D2
:105BD00049689A684FF000030A44FCF795FD204697
:105BE00010BD00BF2DE9F04FBFB006460C46489DE2
:105BF0009DF82CB1002A40F050819A469146CB6A1C
:105C0000002B4DD012A8FFF7DDFF12AA41490CA8C6
:105C1000FFF7B6FB0D9BC3F1FF4303F5FF0303F54D
:105C2000FF437F33142B02D83B482DF0EBFC1522A9
:105C30003A490CA842F0BCF9074608AB06938646E1
:105C40005EF8083B73450CD10DF1200CDEF8000026
:105C5000DEF80410DEF80820DEF80C30ACE80F00A7
:105C600002E00693836808937B680793C7F800E017
:105C700000237B603B7206A800F014FF069808AB77
:105C8000984201D025F0BCF80C980EAB984201D098
:105C900025F0B6F8129814AB984201D025F0B0F870
:105CA0002B68E3626F68236B9F421FD017B17B683C
:105CB00001337B60D4F83080B8F1000F15D0D8F8EC
:105CC0000430013BC8F804307BB9D8F800309B6839
:105CD00040469847D8F80830013BC8F8083023B947
:105CE000D8F80030DB68404698472763A36A1993C9
:105CF0006BB15A680AB923F097FD01325A60636AA2
:105D00000493199B0593BBF1000F38D008E023F0F2
:105D10008BFD00BFCC08002054080020E0080020C4
:105D200029680B685F6B00231E932293039320ABBB
:105D30000293CDF8049004AB00931CAB499A1AA8C7
:105D4000B8471B9F7FB17B68013B7B605BB93B68B9
:105D50009B6838469847BB68013BBB601BB93B68F2
:105D6000DB6838469847229B1BB1032220A90846CE
:105D700098471E9B1BB103221CA908469847DAF8D6
:105D80000830002B37D023685F6A049B2693059B5D
:105D9000279313B15A6801325A604B4626AA5146DE
:105DA00024A8FFF71BFB4A4624A92046B847259C98
:105DB0007CB16368013B63605BB923689B682046E4
:105DC0009847A368013BA3601BB92368DB682046A2
:105DD0009847279C7CB16368013B63605BB923688B
:105DE0009B6820469847A368013BA3601BB92368C2
:105DF000DB68204698474A9B9B68002B37D02C686D
:105E000023685F6A2A946B682B9313B15A68013236
:105E10005A60499B2AAA4A9928A8FFF7DFFA499AAB
:105E200028A92046B847299C7CB16368013B636080
:105E30005BB923689B6820469847A368013BA36031
:105E40001BB92368DB68204698472B9C7CB16368AC
:105E5000013B63605BB923689B6820469847A36851
:105E6000013BA3601BB92368DB6820469847059C6B
:105E7000002C5BD06368013B6360002B56D1236824
:105E80009B6820469847A368013BA360002B4DD137
:105E90002368DB682046984748E038A8FFF792FE61
:105EA00038AA284932A8FFF76BFA339BC3F1FF43A6
:105EB00003F5FF0303F5FF437F330C2B02D8224881
:105EC0002DF0A0FB0D22214932A842F071F80446C2
:105ED0002EAB2C93074657F8083BBB4208D10DF177
:105EE000B80E38687968BA68FB68AEE80F0002E05F
:105EF0002C9383682E9363682D932760002363603F
:105F000023722CA800F0CEFD2C982EAB984201D025
:105F100024F076FF329834AB984201D024F070FF21
:105F200038983AAB984201D024F06AFF2B6833606E
:105F30006B68736013B15A6801325A6030463FB0E3
:105F4000BDE8F08FCC08002054080020F80800209D
:105F50002DE9F04FD1B007460C465A9D9DF874A12B
:105F6000022A4AD112A8FFF72DFE12AAB1490CA8A5
:105F7000FFF706FA0D9BC3F1FF4303F5FF0303F59B
:105F8000FF437F33112B02D8AB482DF03BFB12228D
:105F9000AA490CA842F00CF8044608AB0693064642
:105FA00056F8083BB34208D10DF1200E30687168F5
:105FB000B268F368AEE80F0002E0069383680893C6
:105FC00063680793266000236360237206A800F0CD
:105FD00069FD069808AB984201D024F011FF0C9897
:105FE0000EAB984201D024F00BFF129814AB9842EC
:105FF00000F0ED8124F004FFE9E116469846002AFE
:1060000040F08280CB6A002B50D024A8FFF7DAFD45
:1060100024AA88491EA8FFF7B3F91F9BC3F1FF43C9
:1060200003F5FF0303F5FF437F33142B02D88248A7
:106030002DF0E8FA152282491EA841F0B9FF8646E4
:106040001AAB189384465CF8083B63450CD10DF1FC
:106050006809DCF80000DCF80410DCF80820DCF843
:106060000C30A9E80F0002E0189383681A93DEF859
:1060700004301993CEF800C00023CEF804308EF817
:10608000083018A800F00EFD18981AAB984201D0FD
:1060900024F0B6FE1E9820AB984201D024F0B0FE4A
:1060A000249826AB984201D024F0AAFE2B68E36224
:1060B000D5F80490236B994500F0A880B9F1000F42
:1060C00004D0D9F804300133C9F80430D4F830B022
:1060D000BBF1000F15D0DBF80430013BCBF80430E6
:1060E0007BB9DBF800309B6858469847DBF80830EE
:1060F000013BCBF8083023B9DBF80030DB685846A9
:106100009847C4F8309081E0012A7FD14B6B002B77
:1061100050D036A8FFF756FD36AA464930A8FFF7FB
:106120002FF9319BC3F1FF4303F5FF0303F5FF4351
:106130007F33142B02D840482DF064FA15224149D0
:1061400030A841F035FF86462CAB2A9384465CF894
:10615000083B63450CD10DF1B009DCF80000DCF818
:106160000410DCF80820DCF80C30A9E80F0002E08D
:106170002A9383682C93DEF804302B93CEF800C06A
:106180000023CEF804308EF808302AA800F08AFCEC
:106190002A982CAB984201D024F032FE309832ABD2
:1061A000984201D024F02CFE369838AB984201D0AA
:1061B00024F026FE2B686363D5F80490A36B994501
:1061C00024D0B9F1000F04D0D9F804300133C9F854
:1061D0000430D4F838B0BBF1000F15D0DBF8043030
:1061E000013BCBF804307BB9DBF800309B685846A4
:1061F0009847DBF80830013BCBF8083023B9DBF8CF
:106200000030DB6858469847C4F83890A36A3D933D
:106210006BB15A680AB923F007FB01325A60636A0E
:1062200004933D9B0593BAF1000F45D00CE023F099
:10623000FBFA00BF08090020540800201C090020B8
:10624000E00800203009002029680B68D3F834905A
:10625000002342934693039344AB0293019604AB0D
:10626000009340AB5B9A3EA8C847DDF8FC90B9F1BB
:10627000000F15D0D9F80430013BC9F804307BB9C0
:10628000D9F800309B6848469847D9F80830013B58
:10629000C9F8083023B9D9F80030DB684846984778
:1062A000469B1BB1032244A908469847429B1BB159
:1062B000032240A908469847D8F80830002B38D068
:1062C0002368D3F82490049B4A93059B4B9313B106
:1062D0005A6801325A6033464AAA414648A8FFF735
:1062E0007DF8324648A92046C847499C7CB163687E
:1062F000013B63605BB923689B6820469847A368AD
:10630000013BA3601BB92368DB68204698474B9C80
:106310007CB16368013B63605BB923689B6820467E
:106320009847A368013BA3601BB92368DB6820463C
:1063300098475C9B9B68002B37D02C6823685E6A6B
:106340004E946B684F9313B15A6801325A605B9B4D
:106350004EAA5C994CA8FFF741F85B9A4CA92046DD
:10636000B0474D9C7CB16368013B63605BB92368B7
:106370009B6820469847A368013BA3601BB923682C
:10638000DB68204698474F9C7CB16368013B6360A3
:106390005BB923689B6820469847A368013BA360CC
:1063A0001BB92368DB6820469847059C7CB163686D
:1063B000013B63605BB923689B6820469847A368EC
:1063C000013BA3601BB92368DB68204698472B6814
:1063D0003B606B687B6013B15A6801325A60384683
:1063E00051B0BDE8F08F00BF2DE9F04FD5B00646A3
:1063F0000C469A465E9D609F9DF884B10592002AE6
:1064000040F082804B6D002B50D014A8FFF7DAFBD0
:1064100014AA99490EA8FEF7B3FF0F9BC3F1FF43DF
:1064200003F5FF0303F5FF437F33142B02D8934892
:106430002DF0E8F8152292490EA841F0B9FD8646E4
:106440000AAB089384465CF8083B63450CD10DF118
:106450002808DCF80000DCF80410DCF80820DCF880
:106460000C30A8E80F0002E0089383680A93DEF876
:1064700004300993CEF800C00023CEF804308EF823
:10648000083008A800F00EFB08980AAB984201D02B
:1064900024F0B6FC0E9810AB984201D024F0B0FC6A
:1064A000149816AB984201D024F0AAFC2B686365BF
:1064B000D5F80480A36D984500F03681B8F1000F3F
:1064C00004D0D8F804300133C8F80430D4F8589018
:1064D000B9F1000F15D0D9F80430013BC9F80430E8
:1064E0007BB9D9F800309B6848469847D9F80830FE
:1064F000013BC9F8083023B9D9F80030DB684846B9
:106500009847C4F858800FE1059B012B40F082802A
:10651000CB6D002B50D026A8FFF754FB26AA564976
:1065200020A8FEF72DFF219BC3F1FF4303F5FF03D6
:1065300003F5FF437F33142B02D850482DF062F847
:106540001522504920A841F033FD86461CAB1A9312
:1065500084465CF8083B63450CD10DF17008DCF80B
:106560000000DCF80410DCF80820DCF80C30A8E8A7
:106570000F0002E01A9383681C93DEF804301B932B
:10658000CEF800C00023CEF804308EF808301AA8E8
:1065900000F088FA1A981CAB984201D024F030FC25
:1065A000209822AB984201D024F02AFC269828ABF0
:1065B000984201D024F024FC2B68E365D5F80480D0
:1065C000236E984500F0B080B8F1000F04D0D8F8E1
:1065D00004300133C8F80430D4F86090B9F1000FEA
:1065E00015D0D9F80430013BC9F804307BB9D9F88B
:1065F00000309B6848469847D9F80830013BC9F8F5
:10660000083023B9D9F80030DB6848469847C4F809
:10661000608089E04B6E002B5AD038A8FFF7D2FA81
:1066200038AA154932A8FEF7ABFE339BC3F1FF43EE
:1066300003F5FF0303F5FF437F33142B02D80F4804
:106640002CF0E0FF1522104932A841F0B1FC86463B
:106650002EAB2C9384465CF8083B634516D10DF1B4
:10666000B808DCF80000DCF80410DCF80820DCF8DE
:106670000C30A8E80F000CE0480900205408002066
:10668000E008002030090020600900202C93836876
:106690002E93DEF804302D93CEF800C00023CEF800
:1066A00004308EF808302CA800F0FCF92C982EABA2
:1066B000984201D024F0A4FB329834AB984201D028
:1066C00024F09EFB38983AAB984201D024F098FB16
:1066D0002B686366D5F80480A36E984524D0B8F182
:1066E000000F04D0D8F804300133C8F80430D4F8CF
:1066F0006890B9F1000F15D0D9F80430013BC9F802
:1067000004307BB9D9F800309B6848469847D9F8DF
:106710000830013BC9F8083023B9D9F80030DB68EC
:1067200048469847C4F86880BBF1000F50D0A36A70
:106730003F93EBB15A680AB923F076F801325A60F8
:10674000626A06AB069200223F99079129680868A1
:10675000446B44924892039246AA0292059A01928F
:10676000009342AB5F9A40A8A047419C14B911E046
:1067700023F05AF86368013B63605BB923689B6848
:1067800020469847A368013BA3601BB92368DB68D8
:1067900020469847489B1BB1032246A908469847C4
:1067A000449B1BB1032242A908469847079C7CB131
:1067B0006368013B63605BB923689B682046984728
:1067C000A368013BA3601BB92368DB682046984798
:1067D000DAF808308BB14CAC4A942C494FF00003E6
:1067E0000A461F394AA8FCF747F84AA80BF0D0FE22
:1067F0004A98A04201D024F003FBBB68002B38D09C
:106800002C682368D3F8248052946B68539313B197
:106810005A6801325A605F9B52AA394650A8FEF767
:10682000DDFD5F9A50A92046C047519C7CB163684A
:10683000013B63605BB923689B6820469847A36867
:10684000013BA3601BB92368DB6820469847539C33
:106850007CB16368013B63605BB923689B68204639
:106860009847A368013BA3601BB92368DB682046F7
:1068700098472B6833606B68736013B15A680132B4
:106880005A60304655B0BDE8F08F00BF9709002030
:1068900030B587B004460B4602AD009509685A68CA
:1068A0004FF000030A446846FBF72EFF00226946BA
:1068B0002046FFF76FF90098A84201D024F0A0FA13
:1068C00000236362A362054A2260E3622363636379
:1068D000A363E3632364204607B030BDE8070020CC
:1068E00030B587B004460B4602AD009509685A687A
:1068F0004FF000030A446846FBF706FF0022694692
:106900002046FFF747F90098A84201D024F078FA12
:1069100000236362A362064A2260E3622363636327
:10692000A363E36323646364A364204607B030BDBC
:10693000B4090020F0B587B00446084617461E4645
:1069400002AD0095096842684FF000030A446846AA
:10695000FBF7DAFE002269462046FFF71BF9009894
:10696000A84201D024F04CFA00256562A5622046B9
:10697000094B40F82C3B3946FEF73EFD656484F830
:106980004C6025656565A565E56525666566A56652
:10699000204607B0F0BD00BF6C07002003791BB98B
:1069A00001230371184670470020704700230371CC
:1069B000704700BF01207047704700BF38B50546DB
:1069C00044687CB16368013B63605BB923689B6882
:1069D00020469847A368013BA3601BB92368DB6886
:1069E00020469847284638BD024AC260024A826063
:1069F000704700BFDD4A0000E14A0000704700BF59
:106A000012B1012A03D003E0024B036000E00160F1
:106A100000207047100B0020014B0360704700BF3F
:106A20007C02002010B500F10C04236923B104F1AD
:106A30000800032201469847606830B18368013B33
:106A4000836013B90368DB68984710BD10B504462E
:106A5000034B0360282124F0DBF9204610BD00BF62
:106A60007C02002008B5034B036008B124F0C8F98C
:106A700008BD00BF7C02002010B50446084604494A
:106A800025F07CF810B104F10C0010BD002010BD01
:106A90000C020020024A026000220271704700BF0F
:106AA000000B002008B50BF061FD08BD10B50446D1
:106AB00000F10803036004494FF000030A46FBF7A6
:106AC000DBFE204610BD00BF0C21002038B5044677
:106AD00000F1080303600D4621B1084655F080FC23
:106AE0002A1800E04A1E4FF0000329462046FBF713
:106AF000C3FE204638BD00BF10B5044605293BD86B
:106B0000DFE801F003240E3A192F00F108030360B7
:106B10001F494FF000030A460239FBF7ADFE35E08E
:106B200000F1080303601B494FF000030A460A39CD
:106B3000FBF7A2FE2AE000F10803036016494FF0BC
:106B400000030A461039FBF797FE1FE000F1080327
:106B5000036012494FF000030A460D39FBF78CFE23
:106B600014E000F1080303600D494FF000030A46EA
:106B70001639FBF781FE09E000F1080303600949BB
:106B80004FF000030A461339FBF776FE204610BD8E
:106B90001A0B0020260B0020380B0020490B002088
:106BA000620B0020770B002010B504460B4600F165
:106BB0000802026009685A684FF000030A44FBF7B4
:106BC000A3FD204610BD00BF2DE9F041C0B0054631
:106BD000884612A827F0C8FA6D4B129300242E9411
:106BE0008DF8BC408DF8BD4030943194329433948C
:106BF000684A5368029353F80C3C40A90B449268CE
:106C000043F8F82C029B53F80C0C214602AB1844B5
:106C100041F0DCFB604B0293143312935F4B039300
:106C20000494059406940794089409940AA826F0FD
:106C300035FA5B4B039310230B930EAB0C930D941F
:106C40008DF8384003A912A841F0C0FB98F8003035
